:020000040800F2
:1000000000040020C1020008C3020008C302000867
:10001000C3020008C3020008C3020008C3020008AC
:10002000C3020008C3020008C30200088593000849
:10003000C3020008C3020008C3020008C30200088C
:10004000C3020008C3020008C3020008C30200087C
:10005000C3020008C3020008C3020008C30200086C
:10006000C3020008C3020008C30200087DA50008FF
:1000700091A50008A5A50008B9A50008CDA5000810
:10008000E1A50008F5A50008C3020008C3020008A6
:10009000C3020008C3020008C3020008C30200082C
:1000A0000DA0000811A0000815A0000819A0000864
:1000B00051AD0008F5A90008C3020008BDA700085B
:1000C000C9A80008C3020008C3020008C302000850
:1000D000C3020008C3020008C3020008C3020008EC
:1000E000C3020008C3020008C3020008C3020008DC
:1000F000A9AB0008C3020008C3020008C30200083D
:10010000C3020008C3020008C3020008C3020008BB
:10011000C3020008C302000881AB000895AB0008C9
:1001200009A600081DA6000831A6000845A600087B
:1001300059A60008C3020008C3020008C302000851
:10014000C3020008C3020008C3020008C30200087B
:10015000C3020008C3020008C3020008C30200086B
:10016000C3020008C3020008C3020008A5AD0008CE
:10017000C3020008C3020008C3020008C30200084B
:10018000C3020008C3020008C3020008C30200083B
:10019000C3020008C3020008C3020008C30200082B
:1001A00072B6394880F30888384880F3098838489F
:1001B0004EF60851CEF20001086040F20000CCF289
:1001C00000004EF63471CEF200010860BFF34F8F8D
:1001D000BFF36F8F40F20000C0F2F0004EF688517E
:1001E000CEF200010860BFF34F8FBFF36F8F4FF067
:1001F0000000E1EE100A4EF63C71CEF200010860FC
:10020000062080F31488BFF36F8F08F0F1FD08F02B
:1002100077F84FF055301F491B4A91423CBF41F8D7
:10022000040BFAE71C49194A91423CBF41F8040B00
:10023000FAE71A491A4A1B4B9A423EBF51F8040B7F
:1002400042F8040BF8E700201749184A91423CBFD6
:1002500041F8040BFAE708F0CFFD08F0CAFD144C92
:10026000144DAC4203DA54F8041B8847F9E703F055
:10027000E3F8114C114DAC4203DA54F8041B8847E3
:10028000F9E708F0B7BD000000040020000C0020D2
:10029000000000080000002000040020A0E1000889
:1002A000000C002030120020301200206C3400209E
:1002B000A0010008A0010008A0010008A00100089A
:1002C0006EE700F000F8FEE72DE9F04F2DED108A03
:1002D000C1F80CD0C3689D46BDEC108ABDE8F08F14
:1002E000002383F311882846A047002008F0C2FFAE
:1002F000FEE708F07AFF00DFFEE7000081F0004132
:1003000002E000BF83F0004330B54FEA41044FEAFA
:10031000430594EA050F08BF90EA020F1FBF54EA95
:10032000000C55EA020C7FEA645C7FEA655C00F031
:10033000E2804FEA5454D4EB5555B8BF6D420CDD02
:100340002C4480EA020281EA030382EA000083EA85
:10035000010180EA020281EA0303362D88BF30BD25
:1003600011F0004F4FEA01314FF4801C4CEA11317B
:1003700002D0404261EB410113F0004F4FEA0333DA
:100380004CEA133302D0524263EB430394EA050F65
:1003900000F0A780A4F10104D5F1200E0DDB02FAD4
:1003A0000EFC22FA05F2801841F1000103FA0EF268
:1003B000801843FA05F359410EE0A5F120050EF12E
:1003C000200E012A03FA0EFC28BF4CF0020C43FA5F
:1003D00005F3C01851EBE37101F0004507D54FF06C
:1003E000000EDCF1000C7EEB00006EEB0101B1F5BC
:1003F000801F1BD3B1F5001F0CD349085FEA300002
:100400004FEA3C0C04F101044FEA445212F5800F0C
:1004100080F09A80BCF1004F08BF5FEA500C50F1A9
:10042000000041EB045141EA050130BD5FEA4C0C8C
:10043000404141EB010111F4801FA4F10104E9D115
:1004400091F0000F04BF01460020B1FA81F308BF0C
:100450002033A3F10B03B3F120020CDA0C3208DDD8
:1004600002F1140CC2F10C0201FA0CF021FA02F1B3
:100470000CE002F11402D8BFC2F1200C01FA02F123
:1004800020FA0CFCDCBF41EA0C019040E41AA2BF48
:1004900001EB0451294330BD6FEA04041F3C1CDA10
:1004A0000C340EDC04F11404C4F1200220FA04F030
:1004B00001FA02F340EA030021FA04F345EA0301DA
:1004C00030BDC4F10C04C4F1200220FA02F001FA9C
:1004D00004F340EA0300294630BD21FA04F029461E
:1004E00030BD94F0000F83F4801306BF81F48011B7
:1004F0000134013D4EE77FEA645C18BF7FEA655C2A
:1005000029D094EA050F08BF90EA020F05D054EAFB
:10051000000C04BF1946104630BD91EA030F1EBF00
:100520000021002030BD5FEA545C05D14000494104
:1005300028BF41F0004130BD14F580043CBF01F5F7
:10054000801130BD01F0004545F0FE4141F47001DD
:100550004FF0000030BD7FEA645C1ABF19461046B8
:100560007FEA655C1CBF0B46024650EA013406BFB9
:1005700052EA033591EA030F41F4002130BD00BF78
:1005800090F0000F04BF0021704730B54FF4806435
:1005900004F132044FF000054FF0000150E700BFB6
:1005A00090F0000F04BF0021704730B54FF4806415
:1005B00004F1320410F0004548BF40424FF0000102
:1005C0003EE700BF42004FEAE2014FEA31014FEA45
:1005D00002701FBF12F07F4393F07F4F81F0605194
:1005E000704732F07F4208BF704793F07F4F04BFDF
:1005F00041F40021704730B54FF4607401F00045BC
:1006000021F000411CE700BF50EA010208BF70471B
:1006100030B54FF000050AE050EA010208BF70470C
:1006200030B511F0004502D5404261EB41014FF475
:10063000806404F132045FEA915C3FF4D8AE4FF07D
:1006400003025FEADC0C18BF03325FEADC0C18BF60
:10065000033202EBDC02C2F1200300FA03FC20FAB1
:1006600002F001FA03FE40EA0E0021FA02F11444FE
:10067000BDE600BF70B54FF0FF0C4CF4E06C1CEA17
:1006800011541DBF1CEA135594EA0C0F95EA0C0F88
:1006900000F0DEF82C4481EA030621EA4C5123EAFB
:1006A0004C5350EA013518BF52EA033541F480112A
:1006B00043F4801338D0A0FB02CE4FF00005E1FBDD
:1006C00002E506F00042E0FB03E54FF00006E1FB27
:1006D00003569CF0000F18BF4EF0010EA4F1FF046A
:1006E000B6F5007F64F5407404D25FEA4E0E6D41AA
:1006F00046EB060642EAC62141EA55514FEAC520BB
:1007000040EA5E504FEACE2EB4F1FD0C88BFBCF536
:10071000E06F1ED8BEF1004F08BF5FEA500E50F1E7
:10072000000041EB045170BD06F0004646EA0101AD
:1007300040EA020081EA0301B4EB5C04C2BFD4EBDF
:100740000C0541EA045170BD41F480114FF0000ED8
:10075000013C00F3AB8014F1360FDEBF002001F046
:10076000004170BDC4F10004203C35DA0C341BDCC0
:1007700004F11404C4F1200500FA05F320FA04F092
:1007800001FA05F240EA020001F0004221F00041C6
:1007900010EBD37021FA04F642EB06015EEA430E39
:1007A00008BF20EAD37070BDC4F10C04C4F1200569
:1007B00000FA04F320FA05F001FA04F240EA02001C
:1007C00001F0004110EBD37041F100015EEA430EED
:1007D00008BF20EAD37070BDC4F1200500FA05F20D
:1007E0004EEA020E20FA04F301FA05F243EA02038C
:1007F00021FA04F001F0004121FA04F220EA02009B
:1008000000EBD3705EEA430E08BF20EAD37070BDE0
:1008100094F0000F0FD101F00046400041EB0101C0
:1008200011F4801F08BF013CF7D041EA060195F0A2
:10083000000F18BF704703F00046520043EB03035C
:1008400013F4801F08BF013DF7D043EA0603704749
:1008500094EA0C0F0CEA135518BF95EA0C0F0CD054
:1008600050EA410618BF52EA4306D1D181EA03019A
:1008700001F000414FF0000070BD50EA410606BF94
:100880001046194652EA430619D094EA0C0F02D1D9
:1008900050EA013613D195EA0C0F05D152EA03361E
:1008A0001CBF104619460AD181EA030101F000413C
:1008B00041F0FE4141F470014FF0000070BD41F085
:1008C000FE4141F4780170BD70B54FF0FF0C4CF45F
:1008D000E06C1CEA11541DBF1CEA135594EA0C0F7E
:1008E00095EA0C0F00F0A7F8A4EB050481EA030ECB
:1008F00052EA03354FEA013100F088804FEA0333B2
:100900004FF0805545EA131343EA12634FEA02227F
:1009100045EA111545EA10654FEA00260EF0004140
:100920009D4208BF964244F1FD0404F5407402D292
:100930005B084FEA3202B61A65EB03055B084FEA23
:1009400032024FF480104FF4002CB6EB020E75EB20
:10095000030E22BFB61A754640EA0C005B084FEA48
:100960003202B6EB020E75EB030E22BFB61A7546C5
:1009700040EA5C005B084FEA3202B6EB020E75EB10
:10098000030E22BFB61A754640EA9C005B084FEA88
:100990003202B6EB020E75EB030E22BFB61A754695
:1009A00040EADC0055EA060E18D04FEA051545EA84
:1009B00016754FEA06164FEAC30343EA52734FEA2D
:1009C000C2025FEA1C1CC0D111F4801F0BD141EAA6
:1009D00000014FF000004FF0004CB6E711F4801F0B
:1009E00004BF01430020B4F1FD0C88BFBCF5E06FEB
:1009F0003FF6AFAEB5EB030C04BFB6EB020C5FEAFB
:100A0000500C50F1000041EB045170BD0EF0004E4F
:100A10004EEA113114EB5C04C2BFD4EB0C0541EA81
:100A2000045170BD41F480114FF0000E013C90E67E
:100A300045EA060E8DE60CEA135594EA0C0F08BF42
:100A400095EA0C0F3FF43BAF94EA0C0F0AD150EA41
:100A500001347FF434AF95EA0C0F7FF425AF1046D4
:100A600019462CE795EA0C0F06D152EA03353FF4FC
:100A7000FDAE1046194622E750EA410618BF52EA79
:100A800043067FF4C5AE50EA41047FF40DAF52EA4D
:100A900043057FF4EBAE12E74FF0FF3C06E000BFEA
:100AA0004FF0010C02E000BF4FF0010C4DF804CDF7
:100AB0004FEA410C7FEA6C5C4FEA430C18BF7FEAB7
:100AC0006C5C1BD001B050EA410C0CBF52EA430CE5
:100AD00091EA030F02BF90EA020F0020704710F165
:100AE000000F91EA030F58BF994208BF90422CBFF4
:100AF000D8176FEAE37040F0010070474FEA410CED
:100B00007FEA6C5C02D150EA013C07D14FEA430C0A
:100B10007FEA6C5CD6D152EA033CD3D05DF8040B7B
:100B2000704700BF8446104662468C4619466346AD
:100B300000E000BF01B5FFF7B7FF002848BF10F184
:100B4000000F01BD4DF808EDFFF7F4FF0CBF0120C9
:100B500000205DF808FB00BF4DF808EDFFF7EAFF45
:100B600034BF012000205DF808FB00BF4DF808ED00
:100B7000FFF7E0FF94BF012000205DF808FB00BFF5
:100B80004DF808EDFFF7CEFF94BF012000205DF87F
:100B900008FB00BF4DF808EDFFF7C4FF34BF01208C
:100BA00000205DF808FB00BF4FEA410C7FEA6C5C57
:100BB00002D150EA013C0AD14FEA430C7FEA6C5C57
:100BC00002D152EA033C02D14FF0000070474FF0CF
:100BD000010070474FEA4102B2F1E04324BFB3F590
:100BE000001CDCF1FE5C0DD901F0004C4FEAC002A4
:100BF0004CEA5070B2F1004F40EB830008BF20F088
:100C00000100704711F0804F21D113F13872BCBF41
:100C100001F00040704741F480114FEA5252C2F196
:100C20001802C2F1200C10FA0CF320FA02F018BFDF
:100C300040F001004FEAC1234FEAD32303FA0CFC32
:100C400040EA0C0023FA02F34FEA4303CCE77FEAC1
:100C5000625307D150EA01331EBF4FF0FE4040F40B
:100C60004000704701F0004040F0FE4040F40000BA
:100C7000704700BF53B94AB9002908BF00281CBFFC
:100C80004FF0FF314FF0FF3000F074B9ADF1080CB8
:100C90006DE904CE00F006F8DDF804E0DDE902239A
:100CA00004B070472DE9F047089E04468846002BA3
:100CB00040F085808A42154648D9B2FA82F24AB19C
:100CC000C2F1200701FA02F320FA07F7954047EA3C
:100CD000030894404FEA154E230CB8FBFEF71FFAA9
:100CE00085FC0EFB178843EA084307FB0CF1994289
:100CF00009D9EB1807F1FF3080F0E380994240F208
:100D0000E080023F2B445B1AA4B2B3FBFEF00EFB63
:100D1000103344EA034400FB0CFCA44509D92C1908
:100D200000F1FF3380F0CB80A44540F2C880023848
:100D30002C4440EA0740A4EB0C0400271EB1D44029
:100D40000023C6E900433946BDE8F087002A53D0A6
:100D5000B2FA82F2002A40F0B680491B4FEA154EE3
:100D60001FFA85F80127B1FBFEFC230C0EFB1C11BA
:100D700043EA014308FB0CF1994207D9EB180CF147
:100D8000FF3002D2994200F2EC808446591AA3B295
:100D9000B1FBFEF00EFB101443EA044408FB00F81C
:100DA000A04507D92C1900F1FF3302D2A04500F26B
:100DB000DC801846A4EB080440EA0C40BEE78B42F6
:100DC00008D9002E78D00027C6E9000138463946F8
:100DD000BDE8F087B3FA83F77FB98B4202D3824232
:100DE00000F2BD80841A61EB030301209846002EB7
:100DF000A9D0C6E90048A6E7FFDEC7F12005BB4041
:100E000022FA05FC4CEA030C01FA07F420FA05F873
:100E100021FA05F34FEA1C4E48EA0404B3FBFEF93D
:100E2000210C0EFB19331FFA8CF841EA034309FB2E
:100E300008FA9A4502FA07F200FA07F10BD91CEBFF
:100E4000030309F1FF3080F088809A4540F28580E5
:100E5000A9F102096344A3EB0A03A4B2B3FBFEF0B9
:100E60000EFB103344EA034400FB08F8A04508D900
:100E70001CEB040400F1FF336BD2A04569D90238A2
:100E8000644440EA0940A4EB0804A0FB02894C45F5
:100E9000C6464B4654D351D0002E69D0B1EB0E025A
:100EA00064EB030404FA05F522FA07F3FC401D4342
:100EB000C6E90054002746E73746304643E7184660
:100EC00037E707461FE7C2F1200320FA03F79540F2
:100ED00001FA02F021FA03F34FEA154E3843010CF0
:100EE000B3FBFEF71FFA85F80EFB173341EA034107
:100EF00007FB08F38B4204FA02F407D9691807F1DB
:100F0000FF3C28D28B4226D9023F2944CB1A81B21A
:100F1000B3FBFEF00EFB103341EA034100FB08F384
:100F20008B4207D9691800F1FF3C10D28B420ED9D1
:100F300002382944C91A40EA074714E74145ABD2B1
:100F4000B8EB020E69EB0C0201381346A4E76046C9
:100F5000F0E7184695E76746D8E781467BE73846CD
:100F600045E7ACF1020C2B4410E702382C4421E792
:100F70003746E8E6704700BF0000000000000000B0
:100F800001F0FF01102A2BDB10F0070F08D010F83A
:100F9000013B013A8B422DD010F0070F42B3F6D13E
:100FA000F0B441EA012141EA014122F007047FF057
:100FB00000070023F0E80256083C85EA010586EAAE
:100FC000010685FA47F5A3FA87F586FA47F6A5FAEA
:100FD00087F68EB9EED1F0BC01F0FF0102F00702F6
:100FE00032B110F8013B013A83EA010313B1F8D1A1
:100FF0000020704701387047002D06BF3546033882
:10100000073815F0010F07D1013015F4807F02BFBA
:10101000013015F4C03F0130F0BC0138704700BF0B
:10102000704708B5FFF7FCFF08BD08B500F0FAFAF5
:1010300008BD000008B53A4B1B78DB0702D53948DC
:1010400002F0C2FC01224FF40061374809F00FFBA7
:1010500001224FF48061344809F009FB0122042188
:10106000314809F004FB012202212F4809F0FFFA60
:10107000012280214FF0904009F0F9FA0122114637
:10108000294809F0F4FA40224FF480614FF0904073
:1010900009F0EDFA40224FF400714FF0904009F052
:1010A000E6FA40224FF480714FF0904009F0DFFAE9
:1010B00040224FF400411C4809F0D9FA40224FF475
:1010C00000511A4809F0D3FA40224FF480411748E2
:1010D00009F0CDFA40224FF40041144809F0C7FA54
:1010E000402204214FF0904009F0C1FA402208212B
:1010F0004FF0904009F0BBFA402211464FF090406B
:1011000009F0B5FA0A22002109480BF0E5F90C2292
:10111000002108480BF0E0F9BDE8084000F0A6BB4C
:10112000321300202EC500080004004800080048C3
:10113000341200203E1200202DE9F04F634F644C22
:1011400087B0B84600264FF0010A254606F1FF3960
:10115000B9F1040F04D8DFE809F05D60626469004A
:101160004FF400632383012008F089F84FF0904387
:101170005848D3F810E0D3F810B0196922690192E9
:101180000269029202690392026904921A69059245
:101190004FEA1B2B8909019AD3F810C018690BF08C
:1011A000020B01F00401CEF3802E120B4BEA010179
:1011B00041EA0E0102F0080E029A41EA0E014FEADE
:1011C000522E039A0EF0100E41EA0E0E510A049AA6
:1011D00001F020014EEA010E510A059A01F040018A
:1011E0004EEA010E510101F080014FEA4C1C4EEA1B
:1011F000010E0CF4807CC0004EEA0C0C00F4007070
:101200004CEA0000B9F1040F13D8DFE809F051549B
:1012100056585B004FF48063A4E70423A2E702233F
:10122000A0E74FF0904380221A839CE7A4F818A00F
:1012300099E74FF400636B83B8F80030834208D01D
:10124000254BA8F8000083F800A006F039FC234BDA
:1012500018800136062E08F102087FF477AF1E4C85
:101260002378FBB11D4B188806F02FFC052819D9EF
:1012700000211B4D8C46002205F801CB3E4610464E
:1012800036F8023B0B4103F00103834001301A435F
:101290000628D2B2F4D101310A2905F8012CEAD18D
:1012A0000023237000F0E4FA012007B0BDE8F08FBE
:1012B0004FF48063BFE70423BDE70223BBE780222E
:1012C0005A83B9E7A5F81AA0B6E700BF3E1200207E
:1012D00000040048000800483012002032120020AC
:1012E00034120020014B185C704700BF34120020FC
:1012F0002DE9F84F1A4C2378D80702D5194802F087
:1013000063FB194FDFF868A0DFF86880DFF86890AA
:1013100000252378D90703D52946504602F054FB0F
:1013200017F801BB002623784BFA06F2D20703F028
:10133000010311D513B1484602F046FB0136062ED3
:10134000F1D12378DB0702D5084802F03DFB0135D7
:101350000A2DDED1BDE8F88F002BEFD04046EBE739
:10136000321300203BC500083412002097D100083A
:101370004AC5000852C5000850C50008082823D8EF
:10138000DFE800F02D05070A0F14191E20000120C8
:101390007047144B18787047134B187800F0010011
:1013A0007047114B1878C0F3400070470E4B187807
:1013B000C0F3800070470C4B1878C0F3C000704732
:1013C0000A4BEAE7094BEDE70123093803FA00F07D
:1013D000074B1B68184214BF0120002070470020F3
:1013E000704700BF4A120020541200204B12002008
:1013F000501200202A490A78F8B5002A33D1294C26
:101400002078FFF7BBFF07466078FFF7B7FF064677
:10141000A078FFF7B3FF0546E078FFF7AFFF224B58
:101420003B4403EB460303EB8503204D13F83040A8
:101430002B782BB91E4E3078013000F0030030704D
:1014400001330320B3FBF0F000EB40001B1A1948F6
:101450002B700378013303F00F030370164B1868E9
:1014600004EB40041C60013202F001020A701349CF
:101470000878FFF783FF02464878FFF77FFF0446AE
:101480008878FFF77BFF800000EB44000244C878B7
:10149000D2B2FFF773FF02EBC000C0B2F8BD00BFCD
:1014A0004A120020040C0020080C00204C120020DE
:1014B0004B1200205412002050120020000C00207B
:1014C00038B50D4600F06AF8044670B10C4B186848
:1014D00000F0C6FA58B10A2125B1A92000F037FC66
:1014E0002C4602E0AA2000F032FC204638BD1DB197
:1014F0004E2000F03CFCF3E74B2000F038FCF4E712
:1015000060120020A0F5BB40273810B5072839D855
:10151000DFE800F004131E293A38380C8C781CB12F
:10152000002000F021FF0024204610BD8C78002C04
:10153000FAD0032000F01EFFF5E78C78012054B1AB
:1015400000F018FF04220221012000F081F9EAE7EF
:101550008C780220F3E700F017FF0422022101201B
:1015600000F076F9E0E78C7834B1E22000F00CFB73
:101570004F2000F009FBD7E74F2000F08BFBE22063
:1015800000F088FB0124CFE78C7824B1E22000F042
:10159000FBFA5020EDE75020EFE70000134B1B78DB
:1015A00010B50C46A3B1022000F0D6FE40B1104A9F
:1015B00013781CB101331370012010BD013BFAE711
:1015C0000C4A138814B101331380F5E7013BFBE7A4
:1015D00031B14E2000F0D8FA4E2000F05BFBEBE773
:1015E0004B2000F0D1FA4B20F7E700BF5812002043
:1015F000180C00201A0C002008B518B1012809D0D9
:10160000012008BD042011B100F0B4FEF8E700F09D
:10161000BBFEF5E70029024B18BF01461970EFE742
:101620005812002070B51B4A1B4C167823888AB0CC
:10163000254646B3E3B923221849194E01A80AF0FA
:101640003DFFFFF7D7FE0AAB1844164B10F8244CA9
:101650001B7830781C44E4B2A04209D002F0C8F9EB
:1016600002F04AFB204602F0C3F902F025FC347078
:101670000D4A2B8811880133B3FBF1F201FB1233C1
:101680002B800AB070BD002BFBD002F02BFA268015
:10169000F7E700BF5812002056120020E8C40008E7
:1016A00055120020180C00201A0C0020A0F5BB4099
:1016B0002838012894BF002001207047A0F58073CE
:1016C000B3F5F85F10B526D210F4805F00F4007413
:1016D00000F4807300F4806100F400620DD0002BF0
:1016E0000CBF002010200CB140F0200009B140F0E8
:1016F00040000AB140F0800010BD181C18BF012046
:101700000CB140F0020009B140F00400002AF3D00F
:1017100040F00800F0E70020EEE710B50C46FFF7B8
:10172000CDFF2346BDE8104018470000A0F1E003BC
:10173000072B10B5044600D940B905492046FFF7EC
:10174000ECFFE0B2BDE8104000F01EBA0149F6E738
:101750007F1D0008E521000810B50446C0B200F066
:1017600099FAA4F1E003072B00D92CB903492046CC
:10177000BDE81040FFF7D1BF0149F8E7911D00080F
:10178000F721000810B50446FFF7D0FF392C03D12C
:101790004FF4487007F073FD2046FFF7DDFF10BDE2
:1017A0000120704708B5FFF7ADFE08BD704708B5CA
:1017B000FFF7FCFF08BD000013B502AB03E903000F
:1017C0000F4B1B78B3B99DF80230009873B16AB122
:1017D00000F052FE04460146009800F005FE009914
:1017E000204602B0BDE8104001F0D6BC00F022FE59
:1017F0000446F4E7009800F03FFE0099F1E700BFCF
:101800005A120020034610B400885C880A4640EA59
:10181000044099885DF8044BFFF7CEBF0120704764
:1018200010B500210446FFF7EDFF2146FFF7BFFF8B
:1018300010BD10B5012404FA02F204FA01F11143BB
:1018400004FA03F331EA00020CBF1843984310BDB9
:1018500008B513460A46014603480068FFF7E9FF4A
:10186000BDE8084000F060BD60120020FFF7D9BB62
:10187000FFF7DBBB7047000010B500F0DDFC03F0A4
:10188000EDF806F01DF9002204460321094802F094
:1018900093F9FFF7EFFF204606F017F9F92805D96D
:1018A00002F020F9BDE8104006F016B90A2007F052
:1018B000E6FCF0E71C0C002038B501210546FFF7D7
:1018C000A1FF29460446FFF76DFF08B9002038BD87
:1018D0002946204602F0A4FD0028F7D029462046DC
:1018E00002F0ACF80028F1D02946204603F058F960
:1018F0000028EBD02946204605F0A1F80028E5D0C5
:101900002946204605F02AFE0028DFD02946204639
:1019100005F0ACF80028D9D02946204605F09CFDFA
:101920000028D3D02946204604F05CFE0028CDD004
:10193000AB785BB145F6DF439C422FD00AD8B4F5B3
:10194000B84F16D045F601439C4215D02846FFF704
:1019500027FFBCE745F65C539C4225D045F65D5316
:101960009C421ED045F65B539C42EFD101F0DCF95E
:10197000ECE7FFF781FFA9E70D4A1078C0F30003F9
:1019800083F0010363F3000010F00104107003D032
:10199000084802F019F899E70748FAE701F05EFAFB
:1019A00094E701F0B5F9D1E701F0C1F9CEE700BF46
:1019B00032130020E8C70008F9C7000808B505F091
:1019C000AEFF00F07BF8BDE8084002F08BB808B528
:1019D00000F079F8BDE8084005F0A6BFF8B5174B50
:1019E00017491F5C174BC20800F007008D5C1649B1
:1019F0009B5C8E5C0341054113F0010446FA00F044
:101A000005F0010500F0010602D0E12000F0BCF86D
:101A100015B1E62000F0B8F8384600F0A8F915B185
:101A2000E62000F037F914B1E12000F033F926B1D7
:101A30002C20BDE8F84000F09AB9F8BD2BC800088A
:101A40000BC80008ABC800081BC8000800F00F0353
:101A50000A3B052B8CBF30305730C0B2FFF7BEBFFA
:101A6000030C002B16BF184600231023020A1CBFCC
:101A70001046083302091EBF04331046DBB2820849
:101A80001EBF02331046DBB242081CBF0133DBB27B
:101A900018467047704708B5FFF7FCFF08BD0120E6
:101AA000704708B5FFF7FBFF08BD704710B5044647
:101AB000FFF7F1FF2046FFF7F4FF10BD08B5002047
:101AC000FFF7F4FF08BD08B505F09EFDFFF7EEFF38
:101AD00008BD000038B505F097FD104B1A7882421A
:101AE000044619D00E4D18702B78580711D5D90718
:101AF0000FD50C4801F068FF2B78DA0709D521468D
:101B0000094801F061FF2B78DB0702D5074801F097
:101B10005BFF2046FFF7CAFF38BD00BF5912002007
:101B200032130020BBC80008C6C8000897D10008BF
:101B300010B586B06C4684E803009DF802300BB106
:101B400001F01CF80023ADF8163094E80300ADF85E
:101B5000141089B20490ADF80C0004AC29B994E8D3
:101B6000030000F037FF06B010BDBDF80C204FF6A3
:101B7000FF739A42F3D02046FFF750FE0028EED1C3
:101B8000F1E7008800F09ABC10B5044600287AD02E
:101B9000822813D105F038FD810774D4392000F074
:101BA0008BFF01F01BF84FF47A7007F068FB3920C7
:101BB00000F08AFFBDE8104001F010B883280ED174
:101BC00005F022FDC2075ED4532000F075FF01F03E
:101BD00005F84FF47A7007F052FB5320E8E78428A9
:101BE0000ED105F011FD43074DD4472000F064FFEE
:101BF00000F0F4FF4FF47A7007F041FB4720D7E77D
:101C0000031FDBB2A02B12D805F002FB00283AD14B
:101C10001D4B2146186805F08DFD20B1204600F0CF
:101C200053FF00F0DBFF204600F046FFC2E700F163
:101C30002003DBB2072B07D800F007040120A040E7
:101C4000C0B200F06FFFB5E700F15B03DBB2022B1F
:101C500005D80E4ABDE81040D05C05F02DBD00F15E
:101C60005803DBB2162B06D8094ABDE8104032F8FB
:101C7000130005F031BDEC2805D903F0F5F8BDE8F7
:101C8000104003F0C5B910BD380C0020CBC80008C7
:101C9000CEC8000808B5002858D082280FD105F01A
:101CA000B3FC810752D5392000F006FF00F096FF03
:101CB000392000F009FFBDE8084000F08FBF8328FD
:101CC0000AD105F0A1FCC20740D5532000F0F4FE74
:101CD00000F084FF5320ECE784280AD105F094FC3F
:101CE000430733D5472000F0E7FE00F077FF472099
:101CF000DFE7021FD2B2A02ADBD900F12002D2B264
:101D0000072A07D800F0070301209840C0B200F06E
:101D100011FFD0E700F15B02D2B2022A04D8002002
:101D2000BDE8084005F0C8BC00F15802D2B2162A3E
:101D300004D80020BDE8084005F0CEBCEC2805D949
:101D400003F0F0F8BDE8084003F062B908BD38B50B
:101D500005460C46FFF718FF1CB92846FFF79AFF07
:101D600038BD0A20013C07F08AFAA4B2F4E708B5AE
:101D700039280CBF50210021FFF7E9FF08BD08B545
:101D800028B100F0CFFEBDE8084000F027BF08BD35
:101D900008B528B100F0CEFEBDE8084000F01EBF37
:101DA00008BD00002DE9F04790F806908578804640
:101DB0000C4600F0A7FE4FEA19190746C0B12F469E
:101DC000B5B1C4F3072303F0F003402B04D004F1B2
:101DD0002003DBB2072B1DD9B14B5B78580719D410
:101DE000022000F055FF00F08DFE80F00100C7B228
:101DF000C4F303330B2B43D8DFE813F00E000E00BF
:101E000063006300CA00E00042004200EA004101B2
:101E1000540154010027EBE7C4F30723C4F303265E
:101E200013F0F00F18BF36015FFA84F9A5B166B15F
:101E300009F12003DBB2072B304602D9B9F1000FBC
:101E400007D100F06FFE00F0C9FE4846FFF79CFE88
:101E500016E000F083FEF6E74846FFF71BFF7EB171
:101E600009F12003DBB2072B304602D9B9F1000F8C
:101E700002D100F05FFE01E000F078FE00F0AEFE5F
:101E8000C4F30334083C032C03D805F0BDFBFFF773
:101E90000DFE002F00F0648100F02CFE10F0010018
:101EA00040F05E8188F8020000F01CFE00F062FA4B
:101EB000404600F06BF900F015FEBDE8F04700F079
:101EC00063BAC4F3072303F0F003C4F30326202B03
:101ED0005FFA84FA18BF3601BAF1000F09D0BAF1DF
:101EE000010F3CD0002D44D0B9F1000F3BD050463B
:101EF000ACE76B4B5B7859070FD53DB126B1304647
:101F000000F010FE00F06AFE00209FE72846FFF771
:101F1000C1FE002EB4D03046ABE79DB1B9F1000F41
:101F200006D100F031FE3043C0B2FFF728FFA7E72B
:101F3000B9F1010FF5D100F027FE3043C0B200F037
:101F40002FFE9DE7B9F1000F05D100F03BFE3046B2
:101F5000FFF71EFF94E7B9F1010F91D0F5E725B126
:101F6000B9F1050F8CD83046DFE7B9F1040F87D8F7
:101F7000EDE7B9F1000FEAD0BAF1390F0CBF4FF419
:101F80004870012007F07BF95046FFF783FE77E7A2
:101F9000C4F3812343B1012B7FF472AF65B1C4F365
:101FA000090005F099FB6BE725B1C4F3090005F0C2
:101FB00083FB65E72846FAE72846F2E7E0B225B159
:101FC00002F052FF03F024F85AE702F0ABFFF9E702
:101FD00014F4407F25D1002D7FF452AFE206C4F304
:101FE000421048BF0F254FEA800048BF854004F0EB
:101FF0000F03C4F3812248BFED438340022A45EA20
:10200000030008D00AD8012A02D000F077F937E798
:1020100000F06CF934E700F079F931E700F063F98A
:102020002EE7C4F30122D3B2F5B102F00103002B75
:102030003FF426AFC4F34210830004F00F0000FA0F
:1020400003F214F010001CBF0F209840C4F381234A
:1020500018BFC043022B40EA02000AD00CD8012B63
:1020600004D000F0AFF90BE75B08E0E700F0A2F95D
:1020700006E700F0AFF903E700F056F900E75FFA72
:1020800084F9C4F3032625B1304600F073F94846BD
:102090004BE74846FFF77CFE304600F075F9EFE667
:1020A000982F0020E6B2A6F1F003042B40D8DFE819
:1020B00003F003241017200045B1B9F1040F3FF6D7
:1020C000DFAEC4F3042000F06BF9D9E6B9F1050FD7
:1020D000F5E7C4F30420002DDFD100F04BF9CFE683
:1020E00025B1C4F3042000F03FF9C9E600F028F957
:1020F000C6E61C4B5B785B0704D5C4F30420002DB7
:10210000CBD0EAE74DB1C4F30425284600F032F9FC
:102110000321284600F098FDB2E6012000F0B8FD4A
:10212000B9F1010F7FF6ACAE022000F0B1FDA7E6D9
:102130003DB1B9F1000F01D0304687E6C4F3042069
:10214000CBE7B9F1000F08D0392E0CBF4FF448701F
:10215000012007F094F8304617E7C4F304209CE709
:10216000BDE8F087982F002038B5018804468078B4
:1021700000F0B0F9054600F035F900F0B3F8294653
:102180002046BDE83840FFF70DBE000037B5858812
:1021900004460146022201A80AF090F9F5B1BDF803
:1021A00004204FF6FF739A4218D02046FFF784FBB5
:1021B00070B900F0A7FC88B1A3787BB1084B5B78BD
:1021C0005B070BD4022003B0BDE8304000F060BDD7
:1021D0002046FFF7C9FF2046FFF722FB03B030BDC2
:1021E000982F002008B528B100F0B8FCBDE80840E1
:1021F00000F0F4BC08BD08B528B100F0B7FCBDE89C
:10220000084000F0EBBC08BD08B5002005F054FA0A
:10221000002005F061FA00F0B1FC00F0DFFC03F0F3
:102220002DF8BDE8084002F0F3BE08B500F054FCFC
:10223000BDE80840FFF7E8BF08B500F089FCBDE83D
:102240000840FFF7F2BFC0F303320E3202F00F0274
:10225000092A10B5C4B21BD8012101FA02F340F2D9
:102260000332134203D113F010000DD110BDF02C36
:1022700010D004D8E72C8CBF00200120F6E7F42C06
:1022800014BF00200120F1E7E72C03D9F12CF7E778
:102290000020EBE70846E9E708B5008800F00EF9F2
:1022A000BDE80840FFF7CFBF82B002AB03E90300EF
:1022B00002B0704782B002AB03E9030002B070477E
:1022C000704708B5FFF7FCFF08BD000008B5FFF731
:1022D000F8FF034B1860BDE80840FFF795BF00BF4B
:1022E0005C1200207047FFF7F1BF0000024B1B6833
:1022F0001843FFF7EBBF00BF5C120020024B1B68C6
:102300001840FFF7E3BF00BF5C120020024B1B68C0
:102310005840FFF7DBBF00BF5C120020704708B5D4
:10232000FFF7FCFF08BD000008B5FFF7F8FF034BFF
:102330001860BDE80840FFF767BF00BF60120020CB
:102340000020FFF7F1BF18B9B1FA81F040097047DA
:10235000C84000F001007047024B01461868FFF7C3
:10236000F2BF00BF60120020012303FA00F0FFF764
:10237000DBBF0000012303FA00F0024B1B68184387
:10238000FFF7D2BF60120020012303FA00F0034BD5
:102390001B6823EA0000FFF7C7BF00BF60120020E0
:1023A000012303FA00F0024B1B685840FFF7BCBF43
:1023B00060120020024B1B681843FFF7B5BF00BF37
:1023C00060120020024B1B681840FFF7ADBF00BF32
:1023D00060120020024B1B685840FFF7A5BF00BFEA
:1023E0006012002070470000C0F3072303EB430393
:1023F00037B500EB430000F0FF0000F007030122B7
:102400009A40C0080A4B00EB8000D2B21844002466
:10241000057821FA04F343F300036B4013400134C1
:102420006B40052C00F8013BF2D103B030BD00BF7A
:1024300064120020C0F3072303EB430313B500EB42
:10244000430000F0FF0000F007040A49C00800EB59
:10245000800000220144104611F8013BE34003F0E4
:102460000103934001321843052AC0B2F4D102B0EF
:1024700010BD00BF641200200E4B73B51E680E4BDA
:10248000ADF804001B681F241E4326FA04F3DB0783
:10249000E5B206D414F1FF34F7D20025284602B085
:1024A00070BD0199284600F089FE80B20128F1D064
:1024B000F4E700BF601200205C12002007B5ADF801
:1024C00004000198FFF7D8FF019903B05DF804EB11
:1024D00000F074BE13B5104BADF804101B782BB18F
:1024E000019802B0BDE81040FFF7E8BF70B1019855
:1024F000FFF7C2FF044601460198FFF775FF0199F7
:10250000204602B0BDE8104000F058BE0198FFF729
:1025100091FF0446F3E700BF5A120020F8B50C4BB8
:102520000C4E1C780C4D3378A34200D1F8BD05EB5E
:10253000C40335F834005F889A88D98840EA074098
:1025400042EA01410134FFF7B5FE04F00704EAE76F
:10255000D5120020D412002094120020064B10B493
:1025600018885C889A88D98840EA044042EA014188
:102570005DF8044BFFF79EBE8C120020254B9A7924
:1025800012F0F00F2DE9F3410CD19A7852B1224AA2
:10259000224F1278224CDFF88CE04FF6FF7C39781E
:1025A000914202D102B0BDE8F0819D886DB31878E8
:1025B0005E788DF804008DF80560BDF80410614563
:1025C00023D004EBC20191F80180B0451DD114F86D
:1025D0003260864219D18878B8B98888401BBEF825
:1025E000005080B2854210D99879012262F3071019
:1025F00098718B79074862F307138B71FFF7C6FD5B
:1026000002B0BDE8F041FFF789BF013202F00702D6
:10261000C5E700BF8C120020D5120020D412002084
:1026200094120020340C00202DE9F04FBF4E91B0E1
:102630000446014606220AA809F040FFB388328802
:1026400020786178A778B4F80490ADF80C2096F85B
:1026500000E096F801C0B046002B00F0FB8092B27B
:102660004FF6FF7B5A4500F0F580B578002D00F05D
:10267000F180B279019202F0F00AAD4AA9EB0303AE
:1026800012889BB29A4240F29A80BAF1000F56D15A
:102690008DF810E08DF811C0BDF810305B45BA46DA
:1026A00019D0B6F800C023889C4514D1002F40F003
:1026B00056819DF80420012363F30712B271FFF7DE
:1026C0004DFF3046FFF762FDB379A3710025284620
:1026D00011B0BDE8F08FB9F1000F40F04481002F38
:1026E000F4D098F8063043F0010388F80630EDE79F
:1026F00002EBC30696F801C08C4506D112F833C030
:10270000844502D1B678002EE0D1013303F00703EF
:102710003CE110F4706F00D07BB12033DBB2072BAB
:102720000BD92046FFF732FDAA4606E010F4706F81
:10273000F3D0A27912F0F00FEFD15546C7E78DF82C
:1027400014E08DF815C0BDF814305B4511D0318808
:10275000238899420DD167B9019BA3712046FFF7E9
:1027600015FD08222146304609F0A8FEFFF7F6FEC7
:10277000ADE72046FFF790FDE8B1E7B198F80630E5
:102780001F2B0DD9B8F80020ADF8302000228DF8AD
:102790003220ADF834908DF836300CA8FFF7F6FCF7
:1027A00008222146614809F089FEFFF7E7FEFFF79E
:1027B000D5FE01258BE72046FFF7E8FCF9E7BAF1E3
:1027C000000F17D10AAB8DF82A70ADF82C908DF858
:1027D00028008DF8291093E80300FFF765FD3046C7
:1027E000FFF7D4FC08225146304609F075FEFFF78A
:1027F000B5FEA2E78DF818E08DF819C0BDF81830C5
:102800005B450FD03188238899420BD157B9019B82
:10281000A3712046FFF7BAFC08223946304609F07A
:102820005BFE54E72046FFF737FD0028C3D0002F9A
:10283000C1D098F806301F2BB2D9B8F80020ADF8F7
:10284000382000228DF83A20ADF83C908DF83E30CB
:102850000EA8A3E7002B6DD08DF81CE08DF81DC0ED
:10286000BDF81C504FF6FF72954263D098F80250A5
:10287000002D5FD12E4EA9EB030336889BB29E42FA
:1028800040D93D46002F96D08DF820E08DF821C02C
:10289000BDF82030934225D0B8F8002023889A4212
:1028A00020D198F80630DA0716D413F0F00F13D0C1
:1028B00003F0F002F02A1CBFC3F303120132A3712C
:1028C00018BF62F30713204618BFA371FFF75EFC21
:1028D00008222146154847E708222146134809F0F7
:1028E000EDFDF4E62046FFF7D7FC00287FF458AF53
:1028F00098F80630204643F0010388F80630FFF7C9
:1029000045FCE4E68DF82A70ADF82C908DF828008F
:102910008DF829100AAB93E80300FFF7C5FC0822E5
:102920002946024809F0D8FD20E700BF8C1200209C
:10293000340C0020002F3FF43EAF2046FFF7ACFCE4
:10294000054600283FF437AF082221461D4809F00C
:10295000B5FD1C48FFF715F9FFF710FE06E7B9F1C2
:10296000000F3FF4BEAE8DF824008DF82510BDF8A1
:1029700024204FF6FF739A423FF4B1AE002F7FF44C
:10298000B0AE114A114B17781B78114ABB427FF445
:10299000AFAE8DF828008DF829100A98FFF78EFD4C
:1029A000C0F30332C3B2032A3FF6BBAE01A151F814
:1029B00022F000BF13270008132700082D27000866
:1029C0002D2700088C120020D4120020D5120020E0
:1029D00094120020F0B587B06C4684E803002046CE
:1029E000FFF722FE304E314D074688B1BDF8043066
:1029F000BDF80020ADF8102043B192B24FF6FF733E
:102A00009A4203D094E80300FFF754FC284C45E0B9
:102A100094E8030004AB83E80300BDF80420BDF88C
:102A20001010ADF80C10002AF0D089B24FF6FF72EA
:102A30009142EBD030782A78441C04F00704944289
:102A40000AD019461A4B082203EBC00009F036FDE4
:102A50003470FFF763FDD9E7FFF7EEFB0822394634
:102A6000144837702F7009F037FDCFE704EBC00032
:102A7000FFF7DAFDB0B12B7834F8330004EBC30371
:102A80005F889A88D98840EA074042EA0141FFF707
:102A900011FC2B78013303F007032B70287833786F
:102AA0008342E3D107B0F0BDD4120020D51200203C
:102AB000941200208C120020024B0146186804F08A
:102AC000B9BE00BF380C0020024B0146186804F064
:102AD000CBBE00BF380C0020014B186804F0DEBEEE
:102AE000380C0020024B93F90000C0F3C700704778
:102AF00016130020024B187800F00700704700BF43
:102B000016130020034B187810F0070018BF01209F
:102B1000704700BF16130020014B1878704700BFA4
:102B200018130020024A137818431070704700BF32
:102B300018130020024A137823EA0000107070472F
:102B400018130020014B1870704700BF18130020A5
:102B5000014B00221A70704718130020024A1378A4
:102B600018431070704700BF19130020024A1378F1
:102B700023EA00001070704719130020014B002257
:102B80001A70704719130020014B1878704700BF66
:102B900017130020704708B5FFF7FCFF08BD0000C1
:102BA00008B5064B5B785B0706D4054B1978814264
:102BB00002D01870FFF7EFFF08BD00BF982F00206C
:102BC0001713002008B5044B1A781AB100201870AA
:102BD000FFF7E1FF08BD00BF1713002010B5124B2F
:102BE00012491B780978124C0B4312492068097866
:102BF000037031B10B43037004F07EFD08B1FFF7A1
:102C0000E1FF24680C492022204609F049FC48B124
:102C100021462022084809F051FC2046BDE810401A
:102C200004F0FEBC10BD00BF1813002019130020D3
:102C3000380C002017130020F6120020704708B54A
:102C4000FFF7FCFF08BD00000A4A5278520710B592
:102C50000CD4094C41EAC0012170FFF78BFB94F9B9
:102C60000000C0F3C700FFF7EAFF10BDBDE8104049
:102C7000FFF780BB982F00201613002008B5034BE8
:102C800000201870FFF7DBFF08BD00BF16130020FF
:102C900008B50C4A92F9003023EA000040B21070E7
:102CA00042070ED1DBB283420BD0074B5B785B0748
:102CB00007D4C0F3C700FFF767FBBDE80840FFF784
:102CC000DDBF08BD16130020982F00200D4A537851
:102CD000C3F38001814210B5044612D060F3820331
:102CE0005370108800F04CF80220FFF7D1FF064B1C
:102CF0001B78DB0705D521460448BDE8104000F0ED
:102D000063BE10BD982F002032130020FCC80008BD
:102D1000044B5878C0F3800080F0010000F00100FF
:102D2000FFF7D4BF982F00200120FFF7CFBF00206E
:102D3000FFF7CCBF08B502F0C9FC4FF6FF710020C9
:102D4000BDE8084002F00CBB08B5002002F0BBFA59
:102D50004FF6E963C31A5842584108BD022002F0F9
:102D6000A3BA032002F0A0BA10B5042002F09CFA26
:102D70000446222002F098FA44EA002080B210BDF6
:102D800010B5C1B20446042002F0DCFA210A222068
:102D9000BDE8104002F0D6BA072002F085BA01461D
:102DA000072002F0CFBA01460F2002F0E7BA014631
:102DB000132002F0E3BA0020FFF7F9BF08B50020A6
:102DC000FFF7F1FFFFF7F7FF08BD000010B502F0B5
:102DD0007DFC4FF6E961002002F0C2FA00210220DA
:102DE00002F0B0FA00210320002402F0ABFA1A4BE3
:102DF000214604201C6002F0A5FA2146222002F0A0
:102E0000A1FA2146052002F09DFA2146062002F093
:102E100099FAFF21072002F095FA2146082002F0D6
:102E2000ADFA21460D2002F08DFA2146182002F05D
:102E3000A5FA2146172002F085FA21461C2002F04F
:102E40009DFA2146202002F08BFA2146182002F03C
:102E500095FAFFF7B3FF10BD5C120020FFF7B6BF75
:102E600001460E2002F06EBA08B504F0F5FD024BE3
:102E70001860024B186008BD2013002024130020A6
:102E800008B504F0E9FD024B1860024B186008BD5C
:102E9000201300201C1300207047704708B5FFF76F
:102EA000FCFF08BD704708B5FFF7FCFF08BD000038
:102EB00008B5054800F068FA02F006FCFFF7ECFFE1
:102EC000FFF7ECFF08BD00BF31820008012070470A
:102ED00008B5FFF7FBFF08BD7047704708B5FFF75F
:102EE000FBFFFFF7FAFF08BD08B500F073FAFEF725
:102EF000DCFD00F0D3FEBDE8084003F0DDBC08B502
:102F000004F08EFDFEF796F8FFF7EEFF03F03CFAB3
:102F100004F03AFA04F01AFAFFF7C5FF08BD000002
:102F20002DE9F04F87B0FEF707F9074608B1FFF724
:102F30009BFFDFF8BCB00025D8465FFA85F948460C
:102F4000FEF7D0F91BF8016B8642824637D0274B3B
:102F50001B789B0701D5FEF7CBF90023012486EAF5
:102F60000A063442D9B225D00191FFF7B1FF019989
:102F7000A8B11AEA040F14BF012300238DF808102A
:102F80008DF80A308DF8099004F09AFD40F00100A8
:102F9000ADF80C0002AB93E80300FEF7C9FD18F88A
:102FA00005305C4008F80540381C18BF012007B008
:102FB000BDE8F08F01336400062BE4B2D1D10135B6
:102FC0000A2DBAD14FF6FF73ADF8103000238DF8FB
:102FD000123004F075FD40F00100ADF8140006ABAE
:102FE00013E90300FEF7A4FDDEE700BF3213002063
:102FF0002813002008B501F071FD0020BDE808404D
:1030000004F068B908B5FFF78BFFFFF7F3FF03F093
:1030100051FA04F0D9F908B1FFF732FF02F06CF869
:1030200001F0D4FCBDE80840FEF754BD10B500F037
:10303000D1F8B0F5A24F04462BD2B0F5A04F71D213
:10304000E72812D8E0280AD2A7280AD8A5285AD2F9
:10305000012804D003B233B1032898BF00242046CE
:1030600010BDBE2856D90024F9E7B0F5005F08D29C
:10307000B0F5807F03D2ED28F5D340F4A044A4B28C
:10308000EDE7B0F5804FEED3C0F30B0444F42044D9
:10309000E5E7B0F5AA4F11D2B0F5A84FC3B261D29F
:1030A000B0F5A64F54D2B0F5A44F4CD39A080124E2
:1030B00003F003039C4044EA421441E0B0F5B24FF0
:1030C0000ED2B0F5B04F52D2B0F5AC4FCBD2C0B2A9
:1030D00000F002F9040204F4F85444F40054BEE78A
:1030E000B0F5B44F48D3A0F5C0439BB2B3F5005F31
:1030F000B9D2C0F3042000F0EFF8000200F4F85059
:10310000E4B20443E9E75B34E4B2214B1C5D44F4D0
:103110008044A4E75834E4B21E4B33F8144044F41E
:1031200088449CE7C2B2C2F381035B01C0F301147F
:1031300043EA042402F00302012303FA02F21443D7
:1031400044F40C449BE74AF2F10040EA032486E78A
:103150009A08012403F003039C4044EA421444F417
:103160000A448CE74AF2F40444EA032477E74AF27B
:10317000F00040EA042482E700F00F0000F0ACF811
:10318000C4F3031440EA042444F4104477E700BF76
:1031900011C9000814C900083C225043C1F3072399
:1031A000062202FB030353FA81F3034A32F81300A9
:1031B00082B002B0704700BF90C5000807B5ADF8F7
:1031C00004100199FFF7E8FF03B05DF804EBFFF787
:1031D0002DBF0000822825D00CD8312863D004D818
:1031E000292859D02A2865D0704735284DD039284C
:1031F00018D07047E32830D004D8E02819D0E2284E
:1032000026D07047E62832D0E72835D0E42832D1DE
:10321000304B5A7891072ED51B7813F0100F08BF4A
:10322000E72012E02B4B1B7813F0030F18BFE020B0
:103230007047284A1378D90743D4527812F0010F07
:1032400019D013F0100F08BFE32018BF00207047FB
:10325000204B1B7813F0040FF2E71E4A137859072E
:1032600031D45278D20730D413F0100FEDE7194B58
:103270001B781A07D1D47047164A1378190726D439
:1032800052789207F0D5E420F5E7124B1B7813F043
:10329000200F18BF292070470E4B1B7813F0200F0A
:1032A00018BF352070470B4B1B7813F0400F18BF29
:1032B0002A207047074B1B7813F0400F18BF3120AE
:1032C000704739207047E2207047E0207047E620C1
:1032D000704700BF982F0020294B1A78510707D557
:1032E00000F01801082927D100F0F70040F0040091
:1032F000110707D500F01801182926D100F0E700C2
:1033000040F014005B78D90707D500F018010829B0
:1033100024D100F0F70040F00100990707D500F034
:103320001803182B23D100F0E70040F01100D3065A
:1033300048BF00F0E700704700F01401042904BF03
:1033400000F0FB0040F00800D2E700F0140114295F
:1033500004BF00F0EB0040F01800D3E700F01101CB
:10336000012904BF00F0FE0040F00800D5E700F09E
:103370001103112B04BF00F0EE0040F01800D6E757
:10338000982F002000207047014B1860704700BF45
:103390003C0C0020014B1B68184700BF3C0C002070
:1033A000FFF7C8BC08B5FDF7C7FE642005F067FF4E
:1033B000FDF7C2FE0020FDF795FFC30705D5FFF717
:1033C000EFFFBDE8084004F087BB08BD08B5FFF774
:1033D000E9FF08BD08B5FFF7B7FC08B9FFF73EFDE8
:1033E000FFF7BCFC084B1870FFF7BEFC074B1880BA
:1033F000FFF7ECFFFFF7B5FCFEF775FF044B18680D
:10340000BDE80840FEF78BBF32130020982F002044
:103410006012002008B504F083FFFFF770FDBDE8DF
:10342000084004F099BF08B504F09CFFFFF7EAFDDF
:10343000BDE8084004F0BCBF08B504F08BFA04F006
:103440006DFFFFF735FDFFF7E5FFFFF7ECFFFFF737
:1034500045FDFAE770472DE9F04F8BB00F46149CFD
:103460009DF854E01699189D984683461646199B78
:103470000CB923F0100313F48062009200D00CB357
:1034800013F0200F20460DF108094FF0000414BF7F
:103490004FF0370A4FF0570AB0FBF1FC01FB1C0C50
:1034A0005FFA8CF2BCF1090F94BF30325244D2B2B1
:1034B000884209F8012BB0FBF1F204F1010401D3B9
:1034C000202C11D113F0020201921ED103F001024F
:1034D0003DB132B1BEF1000F02D113F00C0F00D09C
:1034E000013D4FF0300C05E01046D5E702A800F88A
:1034F00004C001341798A04201D9202CF6D1302005
:103500001AB1A54201D91F2C42D9DA0620D5009A5A
:10351000002A44D1002C42D0179AA24201D0AC42DA
:103520003DD1621E3AD0102943D1023C980642D4C4
:103530001F2C18D80AAA2244782102F8201C013432
:103540001F2C10D80AAA2244302102F8201C013472
:103550001F2C08D8BEF1000F33D00AAA22442D2117
:1035600002F8201C01349B07324642D004EB020AC9
:103570005046AAEB0402002C3ED1019B2BB1AAEBD2
:10358000060A554506EB0A003DD80BB0BDE8F08FA2
:103590000DF1080C0CF804000134B1E714461029B1
:1035A000C4D00229CCD11F2CDDD80AAA2244622122
:1035B000C3E71446F5E71F2CD5D80AAA22445821A0
:1035C000BBE7590703D50AAA22442B21C8E71A07EB
:1035D000C9D50AAA22442021C2E702F101094346C3
:1035E00039462020D8474A460AEB0203AB42F4D3BF
:1035F000BCE7A4EB060AF7E7013C02A843463946BC
:10360000005DD847B4E70246434639462020D847F4
:103610000AF1010AB5E708B1FFF7BCBE7047000028
:103620002DE9F04F8BB01F46B44B149EB1F1000949
:10363000904614BF83469B460025387860B94545BF
:103640002CBF08F1FF322A46434649460020D8479E
:1036500028460BB0BDE8F08F252807F1010706D0FA
:103660002A466C1C43464946D8472546E5E70023D1
:1036700006E02D2A15D0302A0CD143F001030F4665
:10368000394611F8012B2B2A0ED0F2D8202A0ED061
:10369000232A0FD0A2F1300009282AD8002206924E
:1036A00012E043F00203EAE743F00403E7E743F0E4
:1036B0000803E4E743F01003E1E706980A2404FB5B
:1036C0000022303A06920F46394611F8012BA2F13A
:1036D00030000928F1D93A782E2A41D17978A1F120
:1036E0003000092807F1010243F4806330D8002438
:1036F00013E02A2A09D156F8042B002ABCBF5242F3
:1037000043F0020306920F46E5E700220692E2E745
:103710000A2202FB0414303C0246104610F8011B3A
:10372000A1F13007092FF3D9174617F8011B6A29B1
:1037300030D018D8682924D0174617F8010B69280B
:103740003CD062D8622828D1022123F00C033DE04E
:103750002A2906D156F8044BBA1C24EAE474E3E79C
:103760003A460024E0E76C2904D07A29E4D143F4F6
:103770008073E2E751786C29F9D143F44073971CC8
:10378000DBE75178682902D043F08003D5E743F0A6
:10379000C003F4E743F40073CFE709D825283FF4CA
:1037A0005FAF58287FF45CAF43F020031021CCE7D3
:1037B000632800F0838064287FF452AF692823F0E7
:1037C00010034FF00A0101D06428BED15A0548BF4A
:1037D00023F00103692803F4007201D0642844D166
:1037E000002A7FF42AAFDA0506F1040A33D53268DD
:1037F0000593069B0493002A4FEAD2730394029127
:103800000193B8BF524200923EE0732800F08980D5
:103810001BD86F2801D1082197E770287FF420AFCB
:1038200043F02103059308230493102302930023FC
:103830000394019356F8043B00932A4643464946B5
:103840005846FFF708FE0546F7E67528B6D07828F3
:103850007FF406AFAAE713F0400F326801D0D2B26E
:10386000C6E71E0648BF12B2C2E7002A7FF4E5AEE3
:10387000D80506F1040A10D50593069B049303941A
:1038800002910192336800932A46434649465846BE
:10389000FFF7E1FD05465646CFE613F0400F3268CC
:1038A00008D0D2B20593069B04930023039402919F
:1038B0000193A8E7180648BF92B2F3E713F0020499
:1038C0002DD001232A46079356F8040B4346494658
:1038D000C0B2551CD847002C3FF4AFAE069B079AE8
:1038E00093427FF6AAAE43462A4649462020D8474F
:1038F000079B6C1C013307932546EFE755340008FE
:10390000434649462020D8470AF102030793069B05
:1039100005EB0A020AF1010A9A45F1D3D4E7A2465F
:10392000F2E7B246002C5AF8046B14BF21464FF060
:10393000FF3131443246107808B1914210D113F46E
:103940008061A2EB0602089102D0A24228BF224663
:1039500013F00203099312D007922A46951B15E033
:103960000132E8E7434649462020D847079B591CC7
:1039700007910699994205EB0302F3D8EEE7134647
:10398000AD1AF4E71C4643464946D847AA1916F82B
:10399000010B28B1089B002BF5D0631E002CF1D140
:1039A000099B1546002B3FF476AF079B9C1A06E057
:1039B0002A46434649462020D8476E1C3546069A7B
:1039C00063199342F4D366E70FB41FB506AA02A9A0
:1039D00052F8043B0392009204484FF0FF32FFF785
:1039E0001FFE05B05DF804EB04B070471736000801
:1039F000453807EE900AF8EEE77AB2EE087AC7EE9D
:103A0000877A08B517EE900AFCF7DCFD9FED080BEE
:103A100041EC110B07F0F8FC002251EC100B064BA7
:103A2000FCF728FEFDF7D6F800EE100A08BD00BF2F
:103A3000000000000000004000807B4008B545F613
:103A40001D43984205D18B7873B300F039FA0020FA
:103A500008BD45F61E43984204D18B7823B300F08D
:103A600045FAF4E745F61F43984206D18B78DBB15F
:103A700000F030F80028F2D1E7E745F62A439842F3
:103A800009D18B7883B100F07DFC00220421074826
:103A900000F092F8DBE745F62B43984204D18B788F
:103AA00013B100F075FCF0E70120D1E7400C0020D5
:103AB00008B5FFF79DFFBDE8084000F0FDB908B567
:103AC000FFF796FFBDE8084000F016B900F00AB80D
:103AD00070477047024B187800F00100704700BF34
:103AE0001430002038B50D4D2C78B4B90C4B1C7037
:103AF00000F0FAFB0B4B0C491C700C4B1C700C4B70
:103B00001C800C4B22460134082C1A8059601A8103
:103B100003F10C03F7D101232B7038BD600C00209A
:103B2000331300203D130020000080BF3E1300200F
:103B30003A130020B42F00200B4B1B7883420FD97F
:103B4000013B1B1A09485BB20C2202FB030393EDF5
:103B5000010AB5EEC00AF1EE10FA01D900F01EBC60
:103B60009FED030A704700BF33130020B42F0020DD
:103B7000000000000D4B07EE900A1B78F8EE676A14
:103B8000DFED0B7A9B0166EEA76A07EE903AB8EE7E
:103B9000E77AC6EE877A9FED077A67EE877AFCEEC2
:103BA000E77A17EE903A98B2704700BF840C002075
:103BB0000000704200007A44F8B5224B1B78DB0706
:103BC00004460F46154603D4BDE8F840FFF78ABF08
:103BD0001D4B1B780BB900F061F81C4B1B780BB127
:103BE000FFF780FF1A4BD4ED017A1A4E01221A70AA
:103BF000194A346000231370184A1780184AFCEEE3
:103C0000E77A1570174D2B8017EE903A98B2FFF7B0
:103C1000B1FF94ED000A00F0CBF803F051FF124B16
:103C20002A881880336803EBC203D3ED017AFCEED7
:103C3000E77A17EE903A98B2FFF79CFF0B4B18808B
:103C4000F8BD00BF14300020341300203E130020C4
:103C50003D130020B02F00203C1300209C2F00209B
:103C60001530002036130020381300203A130020AE
:103C700008B5074B1B78DB0704D500220421054853
:103C8000FFF79AFF03F01CFF034B188008BD00BF2D
:103C900014300020880C00203813002010B5124C7E
:103CA000237803BBFFF750F808B9FFF7D7F8FFF701
:103CB00073F80E4B002218700D4B0E48114601325E
:103CC000082A19805860198103F10C03F7D1237871
:103CD0001BB900F0C3FA01232370FFF703FFBDE80F
:103CE0001040FFF7C5BF10BD341300201430002072
:103CF000B42F0020000080BFF8B5264DB5EEC00AF5
:103D00002B78F1EE10FA2DED028BB0EE408A48BF11
:103D1000B1EE408A002B3AD01F4B1B780BB9FFF74E
:103D2000BDFF1E4B07241846D3ED167AF4EE487AF1
:103D3000F1EE10FA26D10C216143002243184252C1
:103D4000174959601A810F461646072C0ED1154B9C
:103D500001261E70144B1C78013CE4B21C70B4B9EF
:103D600000F0C2FA114B2C701E7010E003F10C0C25
:103D70009CE80700013483E807009E811F619E8252
:103D80006346E2E7013C621CA3F10C03CCD1BDEC1D
:103D9000028BF8BD3E13002034130020B42F002006
:103DA000000080BF3F13002033130020600C002070
:103DB0002DE9F041384B1B780746D8072DED028BD3
:103DC000B0EE408A50D5354B1B780BB9FFF766FF34
:103DD000334DDFF8D0802B78B5EEC08AF1EE10FAC3
:103DE00048BFB1EE488A5E1E0C22711C2FD10133F0
:103DF000DBB2082B4DD908232B702A4B002603F188
:103E00000C0494E807000136072E83E807002346D8
:103E1000F5D1254A01231370244A13702B785C1EB8
:103E200003F04EFE0C23634308EB030228F8030063
:103E300082ED018A178103F043FE1D4C1D4B188053
:103E400023788BB100F07AFA002323700CE002FB98
:103E50000684D4ED017AF4EE487AF1EE10FA16D128
:103E60002B78013B9E4203DBBDEC028BBDE8F08169
:103E700004F10C0898E8070084E8070003F020FE2E
:103E80000136A08184ED048AA7824446E8E7013E1A
:103E9000ABE72B70BDE700BF1430002034130020C7
:103EA00033130020B42F00203F1300203E130020C6
:103EB000600C00204C1300204FF6FF70FFF778BF16
:103EC00008B5084B187840F001001870FEF767FF3E
:103ED000FFF7FEFD002202210348BDE80840FFF77E
:103EE0006BBE00BF14300020740C002008B5002207
:103EF00002210A48FFF760FEFFF7EBFD4FF47A70EE
:103F000005F0BDF9FFF7EEFD054B18786FF30000E3
:103F10001870C0B2BDE80840FEF741BF640C002035
:103F200014300020624B1A782DE9F0479846614C16
:103F300012B92578002D70D003F0C2FD2778814694
:103F4000F7B9002798F80030002B00F0AF805A4BEB
:103F50001D7825B9594B1D78002D08BF3D46584C9A
:103F6000584F00264FF6FD783B78B34200F38C8023
:103F7000554A1378002B50D0002111701D464CE09B
:103F8000524D534E288803F0A0FD33888342D8D881
:103F9000288803F09AFDA5F800904E4D3488B5F8B6
:103FA00000A00AF10103041B2B8003F089FD4A4B9A
:103FB00018804A4B19882B888B42A4B2A94605D396
:103FC000474B1D783DB30023A9F80030454B4648C8
:103FD0001A680578B9F800308646DB0005BB02EBAD
:103FE000CA0CD5189CED007AD5ED007AB4EE677A4C
:103FF000F1EE10FA14D1012303700220FFF7BAFD8D
:104000009FED3A0AFFF7D4FE0220A9F800A0FFF7BF
:10401000B1FD308096E7FFF765FD2846BDE8F087E3
:104020001344D3ED017AFCEEE77A002017EE903AC4
:104030008EF8000098B2FFF79DFD01398442B9F86F
:10404000003001D999420DDC84423ABF001B84B292
:10405000012402EBC303204693ED000AFFF7A8FEFC
:1040600034806FE701339BB2A9F8003002EBC30341
:10407000D3ED017AFCEEE77A201A17EE903A84B27B
:1040800098B2FFF777FDD9E72389013B9BB24345FF
:1040900009D8208803F019FD2389834203D894EDC1
:1040A000010AFFF729FE01360C345DE73D465FE764
:1040B0003E1300203D130020491300204813002028
:1040C000B42F0020331300203F13002038130020AA
:1040D0003A130020361300204C1300209C2F0020A0
:1040E00015300020B02F00203C13002000000000FD
:1040F00010B5084C0849204605F0D3FB20460221A4
:1041000005F0E1FB032210214FF09040BDE8104084
:1041100006F0ADBA98330020A80C002008B5074877
:1041200005F0DFFB012210214FF0904006F09FFACE
:104130004FF0904310221A8308BD00BF983300202F
:1041400008B5114B2DED028BB0EE408A83ED000ACD
:10415000FFF7E4FFB5EEC08AF1EE10FA10D938EEA1
:10416000088A9FED0A0A0A4B28EE008ABCEEC88A2C
:1041700083ED008ABDEC028BBDE80840FFF7B8BFB5
:10418000BDEC028B08BD00BF40130020000080433F
:10419000A80C002010B5084C0849204605F081FB0A
:1041A0002046022105F08FFB032220214FF0904092
:1041B000BDE8104006F05BBAB8330020B80C002010
:1041C00008B5074805F08DFB012220214FF09040F3
:1041D00006F04DFA4FF0904320221A8308BD00BF2D
:1041E000B833002008B5114B2DED028BB0EE408A9C
:1041F00083ED000AFFF7E4FFB5EEC08AF1EE10FA96
:1042000010D938EE088A9FED0A0A0A4B28EE008A78
:10421000BCEEC88A83ED008ABDEC028BBDE8084085
:10422000FFF7B8BFBDEC028B08BD00BF44130020F0
:1042300000008043B80C002008B5FFF773FE58B1AA
:104240000020FFF779FCFFF77BFF0020FFF774FCED
:10425000BDE80840FFF7C6BF08BD000038B5184DDF
:10426000184C032210214FF0904006F000FA284627
:10427000154905F0D8FA1549154805F012FB032237
:1042800020214FF0904006F0F2F92046114905F048
:10429000CAFA1149114805F004FBAB6A10491A68C3
:1042A0001048136823F002031360A36A1A681368A6
:1042B00023F400331360BDE8384005F0F2BA00BFC4
:1042C000043300203433002044CD0008A80C002023
:1042D000983300204CCD0008B80C0020B8330020E3
:1042E000C80C0020A833002010B50F4C0F4805F073
:1042F000F8FA204605F0B6FA40F2FF720021204697
:104300000B4C05F09EFA0B4805F0EBFA204605F041
:10431000A9FA204640F2FF72002105F092FA064801
:10432000BDE8104005F0DDBA0433002098330020CA
:1043300034330020B8330020A833002008B50A4ADF
:104340000A490B484FF4807305F07DFA4FF48073EF
:1043500008490948094A05F076FA02210848BDE8EB
:10436000084005F0B0BA00BF42C9000854CD0008AB
:104370000433002064CD00083433002042CB000811
:10438000A8330020014B00221A7070474A13002006
:10439000014B00221A7070474A130020024B1B7811
:1043A0000BB9024A137070474A13002048130020CB
:1043B0000E4A138803F4004343F4FE4343F004031E
:1043C0001380802393700A4A4823FF20002102F8BB
:1043D000010B013B13F0FF0382F84710F7D1054AA8
:1043E0001370054A1370054A138070471830002077
:1043F000521300204E1300204F13002050130020B2
:10440000064B1B78C3F3030243F3031302EB420290
:104410002F3B03EB82031844C0B2704718300020D2
:104420002DE9F84345F6AE43984202460C4600F2A9
:10443000858045F69F43984280F0CE8145F68F43B4
:10444000984229D845F68343984280F05881B0F5C8
:10445000B94F0BD845F67743984280F02E8145F648
:104460002F43984280F0DC80012523E145F681430B
:10447000984200F0358145F682439842F4D18B781A
:10448000002B00F0F880AF4A137803F00F010829E1
:1044900000F2F18001312CE145F69C43984231D87D
:1044A00045F69243984280F0618145F690439842E8
:1044B00000F0378145F691439842D5D18B78002B97
:1044C00000F0D9809F4B197841F3031250B20528B0
:1044D00000F3D180013242F3030262F30711002896
:1044E000197005DD002ABEBFCAB260F307121A7048
:1044F000954A1278D60740F1BE80197841F303112E
:1045000049B20CE145F69D43984200F0428145F6E0
:104510009E439842A8D18B78002B00F0AC80894B49
:10452000597801F07F027F2A00F0A5801146722A97
:104530009ABF0D3101F07F017F2120E145F6B5439F
:10454000984200F0A48131D845F6B143984200F07A
:10455000648110D845F6AF43984200F0508145F68B
:10456000B043984280D18B78002B00F08480754A4C
:104570009378591C4BE145F6B3439842714A8B78C6
:10458000714D00F0728140F25E8191786F48002B8E
:1045900014BF7F230023422201F00F0104F020F911
:1045A0002B78DF0767D5A178694896E045F6B843D0
:1045B000984200F0968112D845F6B643984200F032
:1045C0007B8145F6B74398427FF44EAF8B78002B42
:1045D000604B14BF01224FF0FF321A704BE045F6DA
:1045E000BA43984200F0B081C0F0968145F6BB43D3
:1045F00098427FF439AF534C8D78A178524E01F038
:104600000F01002D00F0B78141F6FF724F4804F012
:1046100014F93378DA072ED5A17841F6FF72A4E1B8
:10462000484B8D789F7893F801804B4EA0F12F0274
:1046300007F00F0708F07F08D4B2F5B1FFF7E0FEEE
:104640004346024605463946404804F0D8F83E4BFA
:104650001B78DA0705D543462A4639463F48FFF717
:10466000B3F9321992F84830013382F84830335D9B
:10467000FF2B08BF355500251CE0321916F80490B1
:1046800092F84830013BDBB282F84830002BF2D17F
:1046900043464A4639462D4804F0C0F82A4B1B7859
:1046A000DB0705D543464A4639462D48FFF78CF9C6
:1046B000FF2333552846BDE8F8838B78002BDAD0EA
:1046C000204BA0F177011A78C9B261F303021A7086
:1046D0001D4B1B78D807CED52248FFF775F9CAE7DE
:1046E0008B78002BC7D0174A13781907C3D003F172
:1046F0000F0101F00F0161F303031370E8E78B78FA
:10470000002BB8D00F4B00F177011A7841F3030169
:1047100061F307121A700C4B1B78DF07ABD51248F8
:10472000DBE78B78002BA6D0064A137843F30311FE
:1047300048B205309FDB0F3141F3030161F30713EA
:104740001370E8E718300020321300206430002096
:1047500060CE00084F1300205213002088CD0008BF
:10476000B4CD0008E1CD0008F1CD00088B78002B16
:1047700081D06E3202EB42029100874BC9B25A7867
:1047800061F306025A70854B1B78DC077FF573AF27
:1047900018E08B78002B3FF46EAF7F4A537813F00C
:1047A0007F003FF468AF7F280ED1A0F10A0161F3CA
:1047B00006035370794B1B78DD077FF55CAF5178AA
:1047C00001F07F01764888E70C2802D9A0F10D019D
:1047D000EDE76FF30603ECE78B78002B3FF44BAF6C
:1047E0006D4B00F161019A78C9B261F303029A70CE
:1047F0006A4B1B78D8077FF53EAF6A486DE78B7828
:10480000002B3FF438AF644A937803F10F0101F0B5
:104810000F0161F303039370EAE78B78002B3FF4F9
:104820002AAF5D4B604899787B22002301F00F018D
:1048300003F0D6FF594B1B78D9077FF51CAF5B48B7
:10484000FFF7C2F817E791785748002B14BF7F2372
:104850000023402201F00F0103F0C2FF2B78DA079A
:104860007FF509AFA178524837E791784E48002B81
:1048700014BF7F230023412201F00F0103F0B0FF9A
:104880002B78DB077FF5F7AEA1784A4825E7424B46
:1048900045489978A378002B14BF7F230023432237
:1048A00001F00F0103F09CFF3C4B1B78DE077FF506
:1048B000E2AEA178404810E7374B3B489978A3789F
:1048C000002B14BF7F230023432201F00F0103F0CC
:1048D00087FF324B1B78DD077FF5CDAEA1783748D7
:1048E000FBE68B78002B3FF4C6AE2B4A9378190970
:1048F000481C60F307139370DBB213F0F00F04BF92
:1049000061F307139370254B1B78DC077FF5B3AE7B
:10491000917809092A48E0E68B78002B3FF4ABAE8A
:104920001D4A937813F0F00F3FF4A5AEC3F30311C3
:104930000F3101F00F0161F307139370174B1B78D0
:10494000D8077FF598AEE5E7134C8D78A178134E24
:1049500001F00F017DB11B4A134803F06EFF33785D
:10496000D9077FF588AEA178164A174801F00F01E4
:10497000FFF72AF87FE62A460B4803F05EFF3378FC
:10498000DB077FF578AEA1780F48002201F00F0118
:10499000FFF71AF88EE600BF18300020321300200F
:1049A00004CE000816CE00086430002027CE000890
:1049B0003BCE00084CCE000873CE000881CE000824
:1049C00091CE000800E0FFFFAECE000870B51C4C91
:1049D0001C481D4E04F0AFF8208803F076F8B2783A
:1049E000B0EB121F23D3194D03F06AF895F900308C
:1049F0002080E3B1164B174C1B7813F0010F03D046
:104A000021781548FEF7E0FFB17823780D480122A0
:104A100001F00F0103F0E4FE95F90020002A07DA07
:104A200021785342994203DA002323702B7070BD22
:104A300023781344DBB21A0648BF7F232370F6E7BE
:104A40005013002064300020183000204F13002045
:104A5000321300204E13002074CD0008024B1B7847
:104A60000BB1FFF733B87047E313002008B5FCF72C
:104A70001DFE08BD08B5FFF7F1FF044B04480022F6
:104A80001A700821BDE80840FFF796B8E31300202C
:104A9000FC0D0020034B0448002208211A70FFF788
:104AA0008BB800BFE2130020D80C002010B5FFF730
:104AB000D5FF084A08481378013303F00303137045
:104AC000282404FB030000220521BDE81040FFF765
:104AD00073B800BF580D00205C0D0020F8B5174BCF
:104AE0001B788BB1164C208840B902F0E9FF20807A
:104AF000144C154D227842B1531E08E002F0E5FF38
:104B0000124B1B888342F0D3F8BD2B78013B104E2B
:104B1000317849B10F49C85C8F5CFEF7D0FF33781C
:104B200013B13846FEF7C4FF237829780133B3FB6D
:104B3000F1F201FB12332370E6E700BFF51300200A
:104B4000FA130020F6130020F4130020800E00203A
:104B5000E3130020E41300207047000008B5054B64
:104B6000054801221A7008210022FFF725F8FFF7F7
:104B7000F3FF08BDE3130020400E00207047000043
:104B800008B5054B054801221A7008210022FFF7DD
:104B900013F8FFF7F3FF08BDE2130020180D002003
:104BA0002DE9F04145F6264398428AB0054606D1E4
:104BB0008B78002B3ED0FFF7D1FF002053E045F665
:104BC0002743984205D18B78002B33D0FFF752FF53
:104BD000F3E745F62843984206D15F4B8A781B7865
:104BE00042B3002BF2D1E6E745F62C43984204D1BC
:104BF0008B78FBB1FFF7C4FFDFE745F62D43984202
:104C000004D18B78B3B1FFF745FFD6E745F62E43C5
:104C1000984206D18B786BB1504B1B78002BF2D1A8
:104C2000E8E745F62943984204D18B7813B1FFF7A2
:104C30003DFFC2E7484B1E7826B9484B1B78002B36
:104C400000F087808F78002F3DD0E02D0ED1FFF748
:104C500005FF434B01221A70424B00201870424B53
:104C60001870424B18700AB0BDE8F081E22D0BD1EC
:104C7000FFF7F4FE3A4B1A7812B13A4A012111704B
:104C800000201870384BEDE7E32D0FD1354B1B7822
:104C9000CBB1FFF7E3FE324B00201870324B0122FC
:104CA0001A70334B1870334B1880DCE7522D04D147
:104CB000314A13880A3B13807FE7512D03D12E4AD6
:104CC00013880A33F7E74B780A782C49062000FB53
:104CD000031313F802802A4B1C782A4B1B682434D8
:104CE0001C44294B1B78E4B2B3B94444E4B257B333
:104CF00016B12046FEF7DCFE194B1B782BB11B4A80
:104D000022491378CC54013313702846FFF7AEFEC6
:104D100080F00100C0B2A6E723221D4901A807F0D8
:104D2000CDFB0723B8FBF3F303EB4302C3EBC30351
:104D300004EB8204A8EB03030AAA52FA83F313F8E4
:104D4000243C1C44D2E7002EDFD02046FEF7B7FEFD
:104D5000DBE7012087E700BFE3130020E213002018
:104D6000F8130020F7130020F5130020F41300209F
:104D7000F6130020FA130020800E002054C500080E
:104D8000820E00203C0E0020580D0020E41300206D
:104D90000BC50008164B1B78D90707D5154B18789B
:104DA00040007F2820D808B3C0B270479A0703D5C7
:104DB000104B18788000F4E75B0703D50D4B18788B
:104DC000C000EEE70C4B1B7863B10C4A094912781E
:104DD00008789342F4D210FB03F0C000B0FBF2F06D
:104DE00080B2DEE70820DFE77F20704701207047B0
:104DF00006140020850E002007140020860E0020D7
:104E0000154B1B78D90705D5144B1878800800B3CB
:104E1000C0B270479A0703D5104B18784008F6E7E0
:104E20005B0705D50D4B18787F28F0D97F20704798
:104E30000B4B1B785BB10B4A0849127808789342F8
:104E400036BF10FB03F080B2B0FBF2F0ECE70120BC
:104E5000DEE70120704700BF06140020890E002005
:104E6000081400208A0E0020ED2808B505D1FFF7B0
:104E700091FF4042294BD87008BDEE2802D1FFF7C0
:104E800089FFF7E7EF2805D1FFF784FF4042234B66
:104E90009870F1E7F02802D1FFF77CFFF7E7F928D7
:104EA00004D1FFF7ADFF1D4B1871E5E7FA2803D1D8
:104EB000FFF7A6FF4042F6E7FB2805D1FFF7A0FF6A
:104EC0004042164B5871D7E7FC2802D1FFF798FFF4
:104ED000F7E700F10F03DBB2072B08D80F4A0123D5
:104EE000F13803FA00F0537818435070C4E7FD28F6
:104EF00005D10B4A137843F001031370BCE7FE2879
:104F000004D1074A137843F00203F6E7FF28B3D130
:104F1000034A137843F00403EFE700BF00140020B6
:104F200006140020364BED2893F902200AD193F99C
:104F3000031000290CDA0021D97052B9314A00213E
:104F4000117006E0EE280DD193F903100029F2DC70
:104F500072B11A795B7913435BB2002B4FD12A4AA5
:104F600013707047EF2806D1002AF1DA00229A70F8
:104F700093F90320E1E7F02802D1002AF6DCE7E705
:104F8000F92893F9041004D10029E1DD00211971F9
:104F9000DEE7FA2802D10029DADAF7E7FB2893F9ED
:104FA000051004D10029D3DA00215971D0E7FC287B
:104FB00002D10029F8DCCBE700F10F01C9B20729C3
:104FC00007D8F13801218140587820EA0100587053
:104FD000BEE7FD2805D10D48017821F001010170DF
:104FE000B6E7FE2804D10948017821F00201F6E76E
:104FF000FF28ADD10548017821F00401EFE77047A3
:1050000000140020071400200814002006140020BB
:105010002A4B1B7813F0080F10B5294C39D02948BA
:10502000FEF7D2FC61782848FEF7CEFC2748FEF751
:10503000CBFC94F902102648FEF7C6FC2548FEF783
:10504000C3FC94F903102248FEF7BEFC2148FEF78A
:10505000BBFC94F904101E48FEF7B6FC1D48FEF791
:10506000B3FC94F905101A48FEF7AEFC1A48FEF797
:10507000ABFC1A4B1A481978FEF7A6FC1948FEF744
:10508000A3FC194B16481978FEF79EFC1748FEF74B
:105090009BFC02F015FDE378A278134318BF144B74
:1050A000227918BF18806379134318BF114BBDE8EC
:1050B000104018BF1880024802F0F4BA32130020E2
:1050C00000140020D3CE0008C6C80008F6CE0008A1
:1050D000F8CE0008F6D70008FBCE00080714002021
:1050E000FECE000801CF00080614002003CF000800
:1050F000FC130020FE1300202DE9F047564C94F9D4
:10510000028094F9037094F9046094F9055094F8BE
:1051100000A094F801900023A370E37023716371E1
:1051200058EA07030AD04D4B188802F0CEFC4C49D0
:105130000B783BB34B4A127890422DDC56EA0503BC
:105140000BD0494B188802F0C0FC48490B78002B63
:105150004ED0474A1278904254DCE278A378134349
:10516000227913436279134301D0FFF751FF84F88A
:1051700000A084F8019084F80280E77026716571C0
:10518000BDE8F0873B4A127802EB8202B0EB420F97
:10519000D4DD01330B7001E0FF2BFAD1B8F1000F21
:1051A00008D0FFF7F7FDB8F1000FCCBF0123FF23B4
:1051B0005843A0703FB1FFF7EDFD002FCCBF012396
:1051C000FF235843E07094F90220002AB6D094F9E6
:1051D00003100029B2D0B5235A43121203FB01F386
:1051E00008BF01221B1208BF0123A270E370A5E7CC
:1051F000214A127802EB8202B0EB420FADDD01339F
:105200000B7001E0FF2BFAD13EB1FFF7F9FD002E44
:10521000CCBF0123FF23584320713DB1FFF7F0FDC0
:10522000002DCCBF0123FF235843607194F9042063
:10523000002A92D094F9051000298ED0B5235A4344
:10524000121203FB01F308BF01221B1208BF012346
:105250002271637181E700BF00140020FC1300205D
:1052600007140020840E0020FE13002008140020E4
:10527000880E0020830E0020870E002008B506222D
:105280000021054807F028F9044A00231370044A56
:105290001370044A137008BD001400200714002086
:1052A000081400200614002007B50023014601223F
:1052B0000DF107008DF8073000F00AFA9DF807009D
:1052C00003B05DF804FB07B50023014602220DF18F
:1052D0000600ADF8063000F0FBF9BDF8060003B09B
:1052E0005DF804FB07B50422002301460DEB020024
:1052F000019300F0EDF9019803B05DF804FB07B5E8
:1053000001228DF8071001460DF1070000F014FA94
:1053100003B05DF804FB07B50222ADF806100146A4
:105320000DF1060000F008FA03B05DF804FB07B5C4
:105330000422019101460DEB020000F0FDF903B0DB
:105340005DF804FB38B50C460546FFF7ADFFA042FB
:1053500005D021462846BDE83840FFF7D0BF38BD0C
:1053600038B50C460546FFF7AEFFA04205D02146F2
:105370002846BDE83840FFF7CEBF38BD38B50C46EB
:105380000546FFF7AFFFA04205D021462846BDE8FD
:105390003840FFF7CCBF38BD10B500F085FA094C96
:1053A000094800F039FA094800F036FA204600F0C2
:1053B00033FA074800F030FA00F084FA054B1C601D
:1053C00010BD00BF00F0030800E0030800E8030878
:1053D00000F803080C24002038B54FF6FE73034094
:1053E00003F1006505F578354FF6FF712A888A428A
:1053F00010D10A495C5AE443A4B294420CD000F0A4
:1054000053FA2146284600F029FA044600F05AFAD9
:10541000204638BD0024FBE70524F9E70A140020E4
:10542000F8B5FFF7B9FF00F03FFA0B4E0B4C0C4FED
:10543000052536F8021B39B1C94389B2204600F070
:105440000DFA052818BF05460234BC42F1D100F020
:1054500039FA2846F8BD00BF0A14002000E003080E
:1054600000F00308F8B51C4B1C4FC65A3A68012ED1
:105470009ABF1B4D02230423C3F1006394BF45EA86
:105480004635803803F5802392BFADB280B24FF429
:1054900060459A4203D9BDE8F840FFF7C1BF45EA2D
:1054A000500400F001FA38682146831C3B6000F08C
:1054B000D5F9B5F5604F044609D13868F143831C2E
:1054C00089B23B6000F0CAF9052818BF044600F015
:1054D000F9F92046F8BD00BF0A1400200C24002072
:1054E0000080FFFF38B50D4C0D4B22689A420546EF
:1054F00003D9BDE83840FFF793BF00F0D5F9094B59
:105500002068E95C41EA0521831C89B2236000F030
:10551000A5F9044600F0D6F9204638BD0C24002039
:10552000FFFF03080A1400201F4B204A2048F0B553
:105530001D4632F8021BC943824223F8021BF8D1F0
:105540001C4C4FF6FF7743F6FE761388BB4206D01D
:10555000180409D4190A6B540232A242F5D9164B29
:105560004FF480501A60F0BD03F4C041B1F5C04F54
:105570000FD1901CA04215D85188C94389B279B186
:1055800006EA430380330246B3F5805FE4D2E95272
:10559000E2E75904E0D4C3F3403106EA4303F3E7FA
:1055A0000246D9E70246DAE70A14002000E00308C1
:1055B00000F00308FFFF03080C24002008B5FFF7E4
:1055C000EBFEBDE80840FFF7AFBF0000B0F5805F1D
:1055D00010B5044614D20C4BC25C8A4212D0C1549E
:1055E000FFF7FAFE68B97F2C04D82046BDE81040CA
:1055F000FFF778BF24F00100BDE81040FFF732BF8D
:10560000072010BD0020FCE70A140020B0F5805FE1
:10561000F8B504460E4634D210F001050DD0C9B2DB
:10562000FFF7D4FF0546601C310A80B2FFF7CEFFBA
:10563000052818BF05462846F8BD134BC75AB9427E
:10564000F9D0E152FFF7C8FE05460028F3D17F2CC0
:1056500012D8FBB2F2B293420CD02046FFF742FFC1
:105660000546360AB6EB172FE5D0601C80B2FFF76F
:1056700039FFDDE70525F4E72046BDE8F840FFF7F0
:10568000F1BE0725D7E700BF0A140020B0F5805F00
:105690003ABF024BC05CFF20704700BF0A140020D5
:1056A00040F6FE7398420AD8064BC20741BF5A1C07
:1056B000825CC05C40EA022058BFC05A70474FF677
:1056C000FF7070470A140020FFF72EBFFFF776BF68
:1056D0002DE9F843044615464AB1CB0707D588B2F1
:1056E0004A1CFFF7D3FF04F8010B013D11466F0878
:1056F00004F00109A61C01EB470841450BD16FF0EE
:10570000010202FB075222B188B2FFF7BFFF04F883
:105710001700BDE8F88388B2FFF7C2FFB9F1000FA8
:1057200004D126F8020C02310236E6E706F8020C34
:10573000000A06F8010CF6E72DE9F04705460C468D
:1057400016464AB1CB0707D54F1CA0B215F8011B6E
:10575000FFF73CFF013E3C464FEA560805F0010AC0
:10576000AF1C04EB48094C450BD16FF0010202FB62
:105770000862C2B115F81810A0B2BDE8F047FFF7F3
:1057800025BFBAF1000F07D137F8021CA0B2FFF70E
:105790003DFF02340237E6E717F8013C17F8021C18
:1057A00041EA0321F2E7BDE8F08700000B4BDA681D
:1057B000D2070CD4DA6851070BD4DA68D2060AD4BF
:1057C000DB6813F0010F0CBF052004207047012097
:1057D0007047022070470320704700BF002002403E
:1057E00073B50446FFF7E2FF0025FF2601280FD11D
:1057F00014B9062002B070BD01950196019B1BB93A
:10580000FFF7D4FF013CF1E7019B013B0193F5E772
:10581000002C08BF0620EDE738B5054640F6FF70BE
:10582000FFF7DEFF052815D10B4C236943F0020377
:1058300023616561236943F04003236140F6FF70F3
:10584000FFF7CEFF06281EBF236923F00203236162
:105850003423E36038BD00BF00200240104B00F14C
:1058600078429A4270B505460E4616D81F20FFF7BB
:10587000B7FF052810D10B4C236943F001032361C6
:105880001F202E80FFF7ACFF06281EBF236923F0E0
:10589000010323613423E36070BD0720FCE700BFF0
:1058A000FEFF070000200240044B1A69120641BFA8
:1058B000034A5A6002F188325A6070470020024061
:1058C00023016745024A136943F08003136170475F
:1058D0000020024030B585B0C0F307220190C0F32C
:1058E0000740BAB909B1314B185C8DF80C008DF83E
:1058F0000D008DF80E009DF80C30002063F30700BA
:105900009DF80D3063F30F209DF80E3063F31740C0
:1059100005B030BD9DF8043071B32449085C03EB39
:105920004304FF216400B4FBF1F46FF054016143C0
:1059300001EB430101EB4101C9B212FB01F3C1F1DB
:10594000FF01C2F1FF054A431B121212C3F1FF030C
:10595000C2F1FF02454343434243C5F30725C3F366
:105960000723C2F30722C0B2062C19D8DFE804F0DF
:105970000608110F1418060080B2D0E7034610463F
:105980008DF80C008DF80D308DF80E50B3E70246FF
:1059900018462B461546F3E7134602462846F9E714
:1059A000024628461D461346EAE700BF64D30008B6
:1059B00084B0012104B0FFF78DBF704784B004B0FC
:1059C000FFF7F6BF13B58DF802208DF800008DF8B3
:1059D000011000981C46FFF7F1FFC0F30743C0F326
:1059E000072262702070A37002B010BD064A1378BF
:1059F00013F0FE0F04D1012161F3470313707047C8
:105A0000492BFCD92421F7E71C3000200820FFF7A0
:105A100069BC08B5FFF7EAFFBDE808400146082069
:105A2000FFF7ACBC034B0448186000221A71FFF763
:105A3000F0BF00BF1C3000200300FFFF38B51C4C36
:105A40002378D90732D51B48FDF7BEFF2378DA0744
:105A50002CD5194D1948297801F00101FDF7B4FF43
:105A60002378DB0722D5297815484908FDF7ACFFD4
:105A70002378D8071AD569781248FDF7A5FF23784F
:105A8000D90713D5A9781048FDF79EFF2378DA07C8
:105A90000CD5E9780D48FDF797FF2378DB0705D58E
:105AA00029790B48BDE83840FDF78EBF38BD00BFEF
:105AB000321300201DCF00081C30002036CF000814
:105AC00053CF00086ECF000888CF0008A2CF00088F
:105AD000BCCF0008034B1B7813F0010018BF580817
