:020000040800F2
:1000000000040020C1020008C3020008C302000867
:10001000C3020008C3020008C3020008C3020008AC
:10002000C3020008C3020008C302000825940008A8
:10003000C3020008C3020008C3020008C30200088C
:10004000C3020008C3020008C3020008C30200087C
:10005000C3020008C3020008C3020008C30200086C
:10006000C3020008C3020008C30200081DA600085E
:1000700031A6000845A6000859A600086DA600088C
:1000800081A6000895A60008C3020008C302000864
:10009000C3020008C3020008C3020008C30200082C
:1000A000ADA00008B1A00008B5A00008B9A00008E4
:1000B000F1AD000895AA0008C30200085DA8000879
:1000C00069A90008C3020008C3020008C3020008AF
:1000D000C3020008C3020008C3020008C3020008EC
:1000E000C3020008C3020008C3020008C3020008DC
:1000F00049AC0008C3020008C3020008C30200089C
:10010000C3020008C3020008C3020008C3020008BB
:10011000C3020008C302000821AC000835AC000887
:10012000A9A60008BDA60008D1A60008E5A60008FB
:10013000F9A60008C3020008C3020008C3020008B1
:10014000C3020008C3020008C3020008C30200087B
:10015000C3020008C3020008C3020008C30200086B
:10016000C3020008C3020008C302000845AE00082D
:10017000C3020008C3020008C3020008C30200084B
:10018000C3020008C3020008C3020008C30200083B
:10019000C3020008C3020008C3020008C30200082B
:1001A00072B6394880F30888384880F3098838489F
:1001B0004EF60851CEF20001086040F20000CCF289
:1001C00000004EF63471CEF200010860BFF34F8F8D
:1001D000BFF36F8F40F20000C0F2F0004EF688517E
:1001E000CEF200010860BFF34F8FBFF36F8F4FF067
:1001F0000000E1EE100A4EF63C71CEF200010860FC
:10020000062080F31488BFF36F8F08F041FE08F0DA
:10021000C7F84FF055301F491B4A91423CBF41F887
:10022000040BFAE71C49194A91423CBF41F8040B00
:10023000FAE71A491A4A1B4B9A423EBF51F8040B7F
:1002400042F8040BF8E700201749184A91423CBFD6
:1002500041F8040BFAE708F01FFE08F01AFE144CF0
:10026000144DAC4203DA54F8041B8847F9E703F055
:1002700051F8114C114DAC4203DA54F8041B884775
:10028000F9E708F007BE000000040020000C002081
:1002900000000008000000200004002098E0000892
:1002A000000C002090120020901200200C3500203D
:1002B000A0010008A0010008A0010008A00100089A
:1002C0006EE700F000F8FEE72DE9F04F2DED108A03
:1002D000C1F80CD0C3689D46BDEC108ABDE8F08F14
:1002E000002383F311882846A047002009F012F864
:1002F000FEE708F0CAFF00DFFEE7000081F00041E2
:1003000002E000BF83F0004330B54FEA41044FEAFA
:10031000430594EA050F08BF90EA020F1FBF54EA95
:10032000000C55EA020C7FEA645C7FEA655C00F031
:10033000E2804FEA5454D4EB5555B8BF6D420CDD02
:100340002C4480EA020281EA030382EA000083EA85
:10035000010180EA020281EA0303362D88BF30BD25
:1003600011F0004F4FEA01314FF4801C4CEA11317B
:1003700002D0404261EB410113F0004F4FEA0333DA
:100380004CEA133302D0524263EB430394EA050F65
:1003900000F0A780A4F10104D5F1200E0DDB02FAD4
:1003A0000EFC22FA05F2801841F1000103FA0EF268
:1003B000801843FA05F359410EE0A5F120050EF12E
:1003C000200E012A03FA0EFC28BF4CF0020C43FA5F
:1003D00005F3C01851EBE37101F0004507D54FF06C
:1003E000000EDCF1000C7EEB00006EEB0101B1F5BC
:1003F000801F1BD3B1F5001F0CD349085FEA300002
:100400004FEA3C0C04F101044FEA445212F5800F0C
:1004100080F09A80BCF1004F08BF5FEA500C50F1A9
:10042000000041EB045141EA050130BD5FEA4C0C8C
:10043000404141EB010111F4801FA4F10104E9D115
:1004400091F0000F04BF01460020B1FA81F308BF0C
:100450002033A3F10B03B3F120020CDA0C3208DDD8
:1004600002F1140CC2F10C0201FA0CF021FA02F1B3
:100470000CE002F11402D8BFC2F1200C01FA02F123
:1004800020FA0CFCDCBF41EA0C019040E41AA2BF48
:1004900001EB0451294330BD6FEA04041F3C1CDA10
:1004A0000C340EDC04F11404C4F1200220FA04F030
:1004B00001FA02F340EA030021FA04F345EA0301DA
:1004C00030BDC4F10C04C4F1200220FA02F001FA9C
:1004D00004F340EA0300294630BD21FA04F029461E
:1004E00030BD94F0000F83F4801306BF81F48011B7
:1004F0000134013D4EE77FEA645C18BF7FEA655C2A
:1005000029D094EA050F08BF90EA020F05D054EAFB
:10051000000C04BF1946104630BD91EA030F1EBF00
:100520000021002030BD5FEA545C05D14000494104
:1005300028BF41F0004130BD14F580043CBF01F5F7
:10054000801130BD01F0004545F0FE4141F47001DD
:100550004FF0000030BD7FEA645C1ABF19461046B8
:100560007FEA655C1CBF0B46024650EA013406BFB9
:1005700052EA033591EA030F41F4002130BD00BF78
:1005800090F0000F04BF0021704730B54FF4806435
:1005900004F132044FF000054FF0000150E700BFB6
:1005A00090F0000F04BF0021704730B54FF4806415
:1005B00004F1320410F0004548BF40424FF0000102
:1005C0003EE700BF42004FEAE2014FEA31014FEA45
:1005D00002701FBF12F07F4393F07F4F81F0605194
:1005E000704732F07F4208BF704793F07F4F04BFDF
:1005F00041F40021704730B54FF4607401F00045BC
:1006000021F000411CE700BF50EA010208BF70471B
:1006100030B54FF000050AE050EA010208BF70470C
:1006200030B511F0004502D5404261EB41014FF475
:10063000806404F132045FEA915C3FF4D8AE4FF07D
:1006400003025FEADC0C18BF03325FEADC0C18BF60
:10065000033202EBDC02C2F1200300FA03FC20FAB1
:1006600002F001FA03FE40EA0E0021FA02F11444FE
:10067000BDE600BF70B54FF0FF0C4CF4E06C1CEA17
:1006800011541DBF1CEA135594EA0C0F95EA0C0F88
:1006900000F0DEF82C4481EA030621EA4C5123EAFB
:1006A0004C5350EA013518BF52EA033541F480112A
:1006B00043F4801338D0A0FB02CE4FF00005E1FBDD
:1006C00002E506F00042E0FB03E54FF00006E1FB27
:1006D00003569CF0000F18BF4EF0010EA4F1FF046A
:1006E000B6F5007F64F5407404D25FEA4E0E6D41AA
:1006F00046EB060642EAC62141EA55514FEAC520BB
:1007000040EA5E504FEACE2EB4F1FD0C88BFBCF536
:10071000E06F1ED8BEF1004F08BF5FEA500E50F1E7
:10072000000041EB045170BD06F0004646EA0101AD
:1007300040EA020081EA0301B4EB5C04C2BFD4EBDF
:100740000C0541EA045170BD41F480114FF0000ED8
:10075000013C00F3AB8014F1360FDEBF002001F046
:10076000004170BDC4F10004203C35DA0C341BDCC0
:1007700004F11404C4F1200500FA05F320FA04F092
:1007800001FA05F240EA020001F0004221F00041C6
:1007900010EBD37021FA04F642EB06015EEA430E39
:1007A00008BF20EAD37070BDC4F10C04C4F1200569
:1007B00000FA04F320FA05F001FA04F240EA02001C
:1007C00001F0004110EBD37041F100015EEA430EED
:1007D00008BF20EAD37070BDC4F1200500FA05F20D
:1007E0004EEA020E20FA04F301FA05F243EA02038C
:1007F00021FA04F001F0004121FA04F220EA02009B
:1008000000EBD3705EEA430E08BF20EAD37070BDE0
:1008100094F0000F0FD101F00046400041EB0101C0
:1008200011F4801F08BF013CF7D041EA060195F0A2
:10083000000F18BF704703F00046520043EB03035C
:1008400013F4801F08BF013DF7D043EA0603704749
:1008500094EA0C0F0CEA135518BF95EA0C0F0CD054
:1008600050EA410618BF52EA4306D1D181EA03019A
:1008700001F000414FF0000070BD50EA410606BF94
:100880001046194652EA430619D094EA0C0F02D1D9
:1008900050EA013613D195EA0C0F05D152EA03361E
:1008A0001CBF104619460AD181EA030101F000413C
:1008B00041F0FE4141F470014FF0000070BD41F085
:1008C000FE4141F4780170BD70B54FF0FF0C4CF45F
:1008D000E06C1CEA11541DBF1CEA135594EA0C0F7E
:1008E00095EA0C0F00F0A7F8A4EB050481EA030ECB
:1008F00052EA03354FEA013100F088804FEA0333B2
:100900004FF0805545EA131343EA12634FEA02227F
:1009100045EA111545EA10654FEA00260EF0004140
:100920009D4208BF964244F1FD0404F5407402D292
:100930005B084FEA3202B61A65EB03055B084FEA23
:1009400032024FF480104FF4002CB6EB020E75EB20
:10095000030E22BFB61A754640EA0C005B084FEA48
:100960003202B6EB020E75EB030E22BFB61A7546C5
:1009700040EA5C005B084FEA3202B6EB020E75EB10
:10098000030E22BFB61A754640EA9C005B084FEA88
:100990003202B6EB020E75EB030E22BFB61A754695
:1009A00040EADC0055EA060E18D04FEA051545EA84
:1009B00016754FEA06164FEAC30343EA52734FEA2D
:1009C000C2025FEA1C1CC0D111F4801F0BD141EAA6
:1009D00000014FF000004FF0004CB6E711F4801F0B
:1009E00004BF01430020B4F1FD0C88BFBCF5E06FEB
:1009F0003FF6AFAEB5EB030C04BFB6EB020C5FEAFB
:100A0000500C50F1000041EB045170BD0EF0004E4F
:100A10004EEA113114EB5C04C2BFD4EB0C0541EA81
:100A2000045170BD41F480114FF0000E013C90E67E
:100A300045EA060E8DE60CEA135594EA0C0F08BF42
:100A400095EA0C0F3FF43BAF94EA0C0F0AD150EA41
:100A500001347FF434AF95EA0C0F7FF425AF1046D4
:100A600019462CE795EA0C0F06D152EA03353FF4FC
:100A7000FDAE1046194622E750EA410618BF52EA79
:100A800043067FF4C5AE50EA41047FF40DAF52EA4D
:100A900043057FF4EBAE12E74FF0FF3C06E000BFEA
:100AA0004FF0010C02E000BF4FF0010C4DF804CDF7
:100AB0004FEA410C7FEA6C5C4FEA430C18BF7FEAB7
:100AC0006C5C1BD001B050EA410C0CBF52EA430CE5
:100AD00091EA030F02BF90EA020F0020704710F165
:100AE000000F91EA030F58BF994208BF90422CBFF4
:100AF000D8176FEAE37040F0010070474FEA410CED
:100B00007FEA6C5C02D150EA013C07D14FEA430C0A
:100B10007FEA6C5CD6D152EA033CD3D05DF8040B7B
:100B2000704700BF8446104662468C4619466346AD
:100B300000E000BF01B5FFF7B7FF002848BF10F184
:100B4000000F01BD4DF808EDFFF7F4FF0CBF0120C9
:100B500000205DF808FB00BF4DF808EDFFF7EAFF45
:100B600034BF012000205DF808FB00BF4DF808ED00
:100B7000FFF7E0FF94BF012000205DF808FB00BFF5
:100B80004DF808EDFFF7CEFF94BF012000205DF87F
:100B900008FB00BF4DF808EDFFF7C4FF34BF01208C
:100BA00000205DF808FB00BF4FEA410C7FEA6C5C57
:100BB00002D150EA013C0AD14FEA430C7FEA6C5C57
:100BC00002D152EA033C02D14FF0000070474FF0CF
:100BD000010070474FEA4102B2F1E04324BFB3F590
:100BE000001CDCF1FE5C0DD901F0004C4FEAC002A4
:100BF0004CEA5070B2F1004F40EB830008BF20F088
:100C00000100704711F0804F21D113F13872BCBF41
:100C100001F00040704741F480114FEA5252C2F196
:100C20001802C2F1200C10FA0CF320FA02F018BFDF
:100C300040F001004FEAC1234FEAD32303FA0CFC32
:100C400040EA0C0023FA02F34FEA4303CCE77FEAC1
:100C5000625307D150EA01331EBF4FF0FE4040F40B
:100C60004000704701F0004040F0FE4040F40000BA
:100C7000704700BF53B94AB9002908BF00281CBFFC
:100C80004FF0FF314FF0FF3000F074B9ADF1080CB8
:100C90006DE904CE00F006F8DDF804E0DDE902239A
:100CA00004B070472DE9F047089E04468846002BA3
:100CB00040F085808A42154648D9B2FA82F24AB19C
:100CC000C2F1200701FA02F320FA07F7954047EA3C
:100CD000030894404FEA154E230CB8FBFEF71FFAA9
:100CE00085FC0EFB178843EA084307FB0CF1994289
:100CF00009D9EB1807F1FF3080F0E380994240F208
:100D0000E080023F2B445B1AA4B2B3FBFEF00EFB63
:100D1000103344EA034400FB0CFCA44509D92C1908
:100D200000F1FF3380F0CB80A44540F2C880023848
:100D30002C4440EA0740A4EB0C0400271EB1D44029
:100D40000023C6E900433946BDE8F087002A53D0A6
:100D5000B2FA82F2002A40F0B680491B4FEA154EE3
:100D60001FFA85F80127B1FBFEFC230C0EFB1C11BA
:100D700043EA014308FB0CF1994207D9EB180CF147
:100D8000FF3002D2994200F2EC808446591AA3B295
:100D9000B1FBFEF00EFB101443EA044408FB00F81C
:100DA000A04507D92C1900F1FF3302D2A04500F26B
:100DB000DC801846A4EB080440EA0C40BEE78B42F6
:100DC00008D9002E78D00027C6E9000138463946F8
:100DD000BDE8F087B3FA83F77FB98B4202D3824232
:100DE00000F2BD80841A61EB030301209846002EB7
:100DF000A9D0C6E90048A6E7FFDEC7F12005BB4041
:100E000022FA05FC4CEA030C01FA07F420FA05F873
:100E100021FA05F34FEA1C4E48EA0404B3FBFEF93D
:100E2000210C0EFB19331FFA8CF841EA034309FB2E
:100E300008FA9A4502FA07F200FA07F10BD91CEBFF
:100E4000030309F1FF3080F088809A4540F28580E5
:100E5000A9F102096344A3EB0A03A4B2B3FBFEF0B9
:100E60000EFB103344EA034400FB08F8A04508D900
:100E70001CEB040400F1FF336BD2A04569D90238A2
:100E8000644440EA0940A4EB0804A0FB02894C45F5
:100E9000C6464B4654D351D0002E69D0B1EB0E025A
:100EA00064EB030404FA05F522FA07F3FC401D4342
:100EB000C6E90054002746E73746304643E7184660
:100EC00037E707461FE7C2F1200320FA03F79540F2
:100ED00001FA02F021FA03F34FEA154E3843010CF0
:100EE000B3FBFEF71FFA85F80EFB173341EA034107
:100EF00007FB08F38B4204FA02F407D9691807F1DB
:100F0000FF3C28D28B4226D9023F2944CB1A81B21A
:100F1000B3FBFEF00EFB103341EA034100FB08F384
:100F20008B4207D9691800F1FF3C10D28B420ED9D1
:100F300002382944C91A40EA074714E74145ABD2B1
:100F4000B8EB020E69EB0C0201381346A4E76046C9
:100F5000F0E7184695E76746D8E781467BE73846CD
:100F600045E7ACF1020C2B4410E702382C4421E792
:100F70003746E8E6704700BF0000000000000000B0
:100F800001F0FF01102A2BDB10F0070F08D010F83A
:100F9000013B013A8B422DD010F0070F42B3F6D13E
:100FA000F0B441EA012141EA014122F007047FF057
:100FB00000070023F0E80256083C85EA010586EAAE
:100FC000010685FA47F5A3FA87F586FA47F6A5FAEA
:100FD00087F68EB9EED1F0BC01F0FF0102F00702F6
:100FE00032B110F8013B013A83EA010313B1F8D1A1
:100FF0000020704701387047002D06BF3546033882
:10100000073815F0010F07D1013015F4807F02BFBA
:10101000013015F4C03F0130F0BC0138704700BF0B
:10102000704708B5FFF7FCFF08BD08B500F020FBCE
:1010300008BD000008B53A4B1B78DB0702D53948DC
:1010400002F030FC01224FF40061374809F05FFBE9
:1010500001224FF48061344809F059FB0122042138
:10106000314809F054FB012202212F4809F04FFBBF
:10107000012280214FF0904009F049FB01221146E6
:10108000294809F044FB40224FF480614FF0904022
:1010900009F03DFB40224FF400714FF0904009F001
:1010A00036FB40224FF480714FF0904009F02FFB47
:1010B00040224FF400411C4809F029FB40224FF424
:1010C00000511A4809F023FB40224FF48041174891
:1010D00009F01DFB40224FF40041144809F017FBB2
:1010E000402204214FF0904009F011FB40220821DA
:1010F0004FF0904009F00BFB402211464FF090401A
:1011000009F005FB0A22002109480BF035FA0C22F0
:10111000002108480BF030FABDE8084000F042BB5F
:1011200072130020D0C500080004004800080048E1
:10113000941200209E1200202DE9F04F634F644C62
:1011400087B0B84600264FF0010A254606F1FF3960
:10115000B9F1040F04D8DFE809F05D60626469004A
:101160004FF400632383012008F0D9F84FF0904337
:101170005848D3F810E0D3F810B0196922690192E9
:101180000269029202690392026904921A69059245
:101190004FEA1B2B8909019AD3F810C018690BF08C
:1011A000020B01F00401CEF3802E120B4BEA010179
:1011B00041EA0E0102F0080E029A41EA0E014FEADE
:1011C000522E039A0EF0100E41EA0E0E510A049AA6
:1011D00001F020014EEA010E510A059A01F040018A
:1011E0004EEA010E510101F080014FEA4C1C4EEA1B
:1011F000010E0CF4807CC0004EEA0C0C00F4007070
:101200004CEA0000B9F1040F13D8DFE809F051549B
:1012100056585B004FF48063A4E70423A2E702233F
:10122000A0E74FF0904380221A839CE7A4F818A00F
:1012300099E74FF400636B83B8F80030834208D01D
:10124000254BA8F8000083F800A006F0BBFC234B58
:1012500018800136062E08F102087FF477AF1E4C85
:101260002378FBB11D4B188806F0B1FC052819D96D
:1012700000211B4D8C46002205F801CB3E4610464E
:1012800036F8023B0B4103F00103834001301A435F
:101290000628D2B2F4D101310A2905F8012CEAD18D
:1012A0000023237000F080FA012007B0BDE8F08F22
:1012B0004FF48063BFE70423BDE70223BBE780222E
:1012C0005A83B9E7A5F81AA0B6E700BF9E1200201E
:1012D00000040048000800489012002092120020EC
:1012E00094120020014B185C704700BF941200203C
:1012F0002DE9F84F1A4C2378D80702D5194802F087
:10130000D1FA194FDFF868A0DFF86880DFF868903D
:1013100000252378D90703D52946504602F0C2FAA2
:1013200017F801BB002623784BFA06F2D20703F028
:10133000010311D513B1484602F0B4FA0136062E66
:10134000F1D12378DB0702D5084802F0ABFA01356A
:101350000A2DDED1BDE8F88F002BEFD04046EBE739
:1013600072130020DDC50008941200208FD1000800
:10137000ECC50008F4C50008F2C50008082823D809
:10138000DFE800F02D05070A0F14191E20000120C8
:101390007047144B18787047134B187800F0010011
:1013A0007047114B1878C0F3400070470E4B187807
:1013B000C0F3800070470C4B1878C0F3C000704732
:1013C0000A4BEAE7094BEDE70123093803FA00F07D
:1013D000074B1B68184214BF0120002070470020F3
:1013E000704700BFAA120020B4120020AB120020E8
:1013F000B01200202A490A78F8B5002A33D1294CC6
:101400002078FFF7BBFF07466078FFF7B7FF064677
:10141000A078FFF7B3FF0546E078FFF7AFFF224B58
:101420003B4403EB460303EB8503204D13F83040A8
:101430002B782BB91E4E3078013000F0030030704D
:1014400001330320B3FBF0F000EB40001B1A1948F6
:101450002B700378013303F00F030370164B1868E9
:1014600004EB40041C60013202F001020A701349CF
:101470000878FFF783FF02464878FFF77FFF0446AE
:101480008878FFF77BFF800000EB44000244C878B7
:10149000D2B2FFF773FF02EBC000C0B2F8BD00BFCD
:1014A000AA120020040C0020080C0020AC1200201E
:1014B000AB120020B4120020B0120020000C00205B
:1014C00038B50D4600F090F8044670B10C4B186822
:1014D00000F01AFA58B10A2125B1A92000F08DFBBD
:1014E0002C4602E0AA2000F088FB204638BD1DB142
:1014F0004E2000F092FBF3E74B2000F08EFBF4E768
:10150000C0120020A0F5BB40273810B50D2834D8F4
:10151000DFE800F007333323353333183E474D52AD
:101520005A608C780CB3032000F07CFE002000F0A1
:1015300069FE02F047FA2A480022062102F0ACFABE
:10154000002412E08C7884B1032000F061FE02F0E8
:1015500039FA002204212348F0E78C783CB1E220DC
:1015600000F068FA4F2000F065FA204610BD4F20C9
:1015700000F0E6FAE22000F0E3FA0124F5E78C78C7
:1015800024B1E22000F056FA5020ECE75020EFE7BB
:101590008B7823B140F29F2006F0BCF9D0E7002001
:1015A000FAE78B78002BFAD040F22120F4E78B7811
:1015B000002BF4D0CF20EFE78B781BB19B2006F0F7
:1015C00099F9BDE70020FAE78B78002BE7D04FF4BC
:1015D000CF70E1E78B78002BF4D04FF42870DBE775
:1015E000280C0020580C0020134B1B7810B50C461B
:1015F000A3B1022000F0FEFD40B1104A13781CB1E7
:1016000001331370012010BD013BFAE70C4A138827
:1016100014B101331380F5E7013BFBE731B14E20F4
:1016200000F008FA4E2000F08BFAEBE74B2000F0B8
:1016300001FA4B20F7E700BFB8120020240C00206D
:10164000260C002008B518B1012809D0012008BDDA
:10165000042011B100F0DCFDF8E700F0E3FDF5E750
:101660000029024B18BF01461970EFE7B81200209D
:1016700070B51B4A1B4C167823888AB0254646B3A2
:10168000E3B923221849194E01A80AF067FFFFF7B2
:10169000B1FE0AAB1844164B10F8244C1B78307876
:1016A0001C44E4B2A04209D002F012F902F094FA0C
:1016B000204602F00DF902F06FFB34700D4A2B88C2
:1016C00011880133B3FBF1F201FB12332B800AB016
:1016D00070BD002BFBD002F075F92680F7E700BF44
:1016E000B8120020B612002088C50008B5120020EC
:1016F000240C0020260C00200120704708B5FFF7BD
:1017000001FF08BD704708B5FFF7FCFF08BD0000EA
:1017100013B502AB03E903000F4B1B78B3B99DF877
:101720000230009873B16AB100F0F4FD044601463E
:10173000009800F0A7FD0099204602B0BDE81040D7
:1017400001F098BC00F0C4FD0446F4E7009800F0F6
:10175000E1FD0099F1E700BFBA12002003460089BD
:1017600010B40A4640B95C881888998840EA044059
:101770005DF8044BFFF7CCBF5DF8044B704710B524
:1017800001210446FFF7EAFF2146BDE8104005F0BD
:10179000ADBA10B500210446FFF7E0FF2146FFF780
:1017A000B2FF10BDFFF73DBCFFF73FBC7047000024
:1017B00010B500F089FC03F0C1F806F003FA00222E
:1017C00004460321094802F067F9FFF7EFFF2046BE
:1017D00006F0FDF9F92805D902F0F4F8BDE810404B
:1017E00006F0FCB90A2007F09AFDF0E7780C00201B
:1017F00038B501210546FFF7B1FF29460446FFF73A
:101800007DFF08B9002038BD2946204602F078FD4A
:101810000028F7D02946204602F080F80028F1D0B1
:101820002946204603F032F90028EBD0294620460D
:1018300005F0C8FF0028E5D02946204604F08AFFBD
:101840000028DFD02946204605F03AFF0028D9D0ED
:101850002946204604F03CFE0028D3D0AB785BB18B
:1018600045F6DF439C422FD00AD8B4F5B84F16D0C6
:1018700045F601439C4215D02846FFF73DFFC2E7DD
:1018800045F65C539C4225D045F65D539C421ED0E4
:1018900045F65B539C42EFD101F0B4F9ECE7FFF75A
:1018A00087FFAFE70D4A1078C0F3000383F0010310
:1018B00063F3000010F00104107003D0084801F039
:1018C000F1FF9FE70748FAE701F036FA9AE701F0DF
:1018D0008DF9D1E701F099F9CEE700BF721300202E
:1018E00090C80008A1C8000808B506F09AF800F0F2
:1018F00039F8BDE8084002F065B808B500F037F8DF
:10190000BDE8084006F092B8030C002B16BF18463D
:1019100000231023020A1CBF1046083302091EBF11
:1019200004331046DBB282081EBF02331046DBB21E
:1019300042081CBF0133DBB218467047704708B538
:10194000FFF7FCFF08BD0120704708B5FFF7FBFF5C
:1019500008BD704710B50446FFF7F1FF2046FFF7BA
:10196000F4FF10BD08B50020FFF7F4FF08BD08B56F
:1019700005F07EFFFFF7EEFF08BD000038B505F06B
:1019800077FF104B1A788242044619D00E4D18701A
:101990002B78580711D5D9070FD50C4801F082FFD5
:1019A0002B78DA0709D52146094801F07BFF2B780F
:1019B000DB0702D5074801F075FF2046FFF7CAFF95
:1019C00038BD00BFB912002072130020B3C8000850
:1019D000BEC800088FD1000810B586B06C4684E8F8
:1019E00003009DF802300BB101F036F80023ADF88A
:1019F0001230ADF8143094E80300ADF8101089B23D
:101A00000390ADF8080003AC29B994E8070000F092
:101A100051FF06B010BDBDF808204FF6FF739A4283
:101A2000F3D02046FFF7ABFE0028EED1F1E70088A7
:101A300000F092BC10B5044600287AD0822813D159
:101A400005F016FF810774D4392000F0A9FF01F0DA
:101A500033F84FF47A7007F062FC392000F0A8FFE9
:101A6000BDE8104001F028B883280ED105F000FF32
:101A7000C2075ED4532000F093FF01F01DF84FF42D
:101A80007A7007F04CFC5320E8E784280ED105F06B
:101A9000EFFE43074DD4472000F082FF01F00CF821
:101AA0004FF47A7007F03BFC4720D7E7031FDBB207
:101AB000A02B12D805F0E0FC00283AD11D4B21469E
:101AC000186805F045FF20B1204600F071FF00F0D6
:101AD000F3FF204600F064FFC2E700F12003DBB211
:101AE000072B07D800F007040120A040C0B200F087
:101AF0008DFFB5E700F15B03DBB2022B05D80E4A80
:101B0000BDE81040D05C05F0F5BE00F15803DBB233
:101B1000162B06D8094ABDE8104032F8130005F02C
:101B2000F9BEEC2805D903F015F9BDE8104003F023
:101B3000E5B910BD940C0020C3C80008C6C8000851
:101B400008B5002858D082280FD105F091FE8107F2
:101B500052D5392000F024FF00F0AEFF392000F00C
:101B600027FFBDE8084000F0A7BF83280AD105F091
:101B70007FFEC20740D5532000F012FF00F09CFF0B
:101B80005320ECE784280AD105F072FE430733D5D1
:101B9000472000F005FF00F08FFF4720DFE7021F1E
:101BA000D2B2A02ADBD900F12002D2B2072A07D88C
:101BB00000F0070301209840C0B200F02FFFD0E7EB
:101BC00000F15B02D2B2022A04D80020BDE808402E
:101BD00005F090BE00F15802D2B2162A04D80020B7
:101BE000BDE8084005F096BEEC2805D903F010F9D1
:101BF000BDE8084003F082B908BD38B505460C467B
:101C0000FFF718FF1CB92846FFF79AFF38BD0A20D6
:101C1000013C07F084FBA4B2F4E708B539280CBFF7
:101C200050210021FFF7E9FF08BD08B528B100F0F9
:101C3000EDFEBDE8084000F03FBF08BD08B528B183
:101C400000F0ECFEBDE8084000F036BF08BD000023
:101C50002DE9F04790F80690857880460C4600F014
:101C6000C5FE4FEA19190746C0B12F46B5B1C4F3F6
:101C7000072303F0F003402B04D004F12003DBB270
:101C8000072B1DD9B14B5B78580719D4022000F0FF
:101C90006DFF00F0ABFE80F00100C7B2C4F3033368
:101CA0000B2B43D8DFE813F00E000E006300630037
:101CB000CA00E00042004200EA0041015401540120
:101CC0000027EBE7C4F30723C4F3032613F0F00F58
:101CD00018BF36015FFA84F9A5B166B109F1200396
:101CE000DBB2072B304602D9B9F1000F07D100F063
:101CF0008DFE00F0E1FE4846FFF79CFE16E000F086
:101D00009BFEF6E74846FFF71BFF7EB109F1200373
:101D1000DBB2072B304602D9B9F1000F02D100F037
:101D20007DFE01E000F090FE00F0C6FEC4F3033437
:101D3000083C032C03D805F09BFDFFF70BFE002F9A
:101D400000F0648100F04AFE10F0010040F05E8176
:101D500088F8020000F03AFE00F05AFA404600F01F
:101D60006FF900F033FEBDE8F04700F05BBAC4F352
:101D7000072303F0F003C4F30326202B5FFA84FA51
:101D800018BF3601BAF1000F09D0BAF1010F3CD0EB
:101D9000002D44D0B9F1000F3BD05046ACE76B4B5F
:101DA0005B7859070FD53DB126B1304600F02EFEC5
:101DB00000F082FE00209FE72846FFF7C1FE002EBC
:101DC000B4D03046ABE79DB1B9F1000F06D100F0B9
:101DD00049FE3043C0B2FFF728FFA7E7B9F1010F72
:101DE000F5D100F03FFE3043C0B200F047FE9DE762
:101DF000B9F1000F05D100F053FE3046FFF71EFF8A
:101E000094E7B9F1010F91D0F5E725B1B9F1050FCC
:101E10008CD83046DFE7B9F1040F87D8EDE7B9F188
:101E2000000FEAD0BAF1390F0CBF4FF4487001200F
:101E300007F075FA5046FFF783FE77E7C4F3812376
:101E400043B1012B7FF472AF65B1C4F3090005F013
:101E500061FD6BE725B1C4F3090005F04BFD65E7B3
:101E60002846FAE72846F2E7E0B225B102F072FF11
:101E700003F044F85AE702F0CBFFF9E714F4407F8F
:101E800025D1002D7FF452AFE206C4F3421048BFC3
:101E90000F254FEA800048BF854004F00F03C4F3CC
:101EA000812248BFED438340022A45EA030008D05F
:101EB0000AD8012A02D000F06FF937E700F064F980
:101EC00034E700F071F931E700F05BF92EE7C4F375
:101ED0000122D3B2F5B102F00103002B3FF426AF8B
:101EE000C4F34210830004F00F0000FA03F214F070
:101EF00010001CBF0F209840C4F3812318BFC043BB
:101F0000022B40EA02000AD00CD8012B04D000F0CA
:101F1000A7F90BE75B08E0E700F09AF906E700F0A5
:101F2000A7F903E700F04EF900E75FFA84F9C4F37C
:101F3000032625B1304600F06BF948464BE748468A
:101F4000FFF77CFE304600F06DF9EFE640300020F0
:101F5000E6B2A6F1F003042B40D8DFE803F0032437
:101F60001017200045B1B9F1040F3FF6DFAEC4F3FE
:101F7000042000F063F9D9E6B9F1050FF5E7C4F3E1
:101F80000420002DDFD100F043F9CFE625B1C4F3E2
:101F9000042000F037F9C9E600F020F9C6E61C4B32
:101FA0005B785B0704D5C4F30420002DCBD0EAE7AF
:101FB0004DB1C4F30425284600F02AF90321284630
:101FC00000F0B0FDB2E6012000F0D0FDB9F1010F44
:101FD0007FF6ACAE022000F0C9FDA7E63DB1B9F135
:101FE000000F01D0304687E6C4F30420CBE7B9F1F7
:101FF000000F08D0392E0CBF4FF44870012007F0B5
:102000008EF9304617E7C4F304209CE7BDE8F0875B
:102010004030002038B50446008960B100F074FFFC
:10202000054600F02DF900F0ABF829462046BDE842
:102030003840FFF70DBE2188A07800F099F9EFE74E
:1020400037B5858804460146022201A80AF086FABF
:10205000F5B1BDF804204FF6FF739A4218D0204620
:10206000FFF7C6FB70B900F0C1FC88B1A3787BB163
:10207000084B5B785B070BD4022003B0BDE830400F
:1020800000F074BD2046FFF7C5FF2046FFF781FB37
:1020900003B030BD4030002008B5002005F02AFC18
:1020A000002005F037FC00F0D7FC00F005FD03F040
:1020B0005BF8BDE8084002F021BF08B500F080FCE5
:1020C000BDE80840FFF7E8BF08B500F0AFFCBDE889
:1020D0000840FFF7F2BFC0F303320E3202F00F02E6
:1020E000092A10B5C4B21BD8012101FA02F340F24B
:1020F0000332134203D113F010000DD110BDF02CA8
:1021000010D004D8E72C8CBF00200120F6E7F42C77
:1021100014BF00200120F1E7E72C03D9F12CF7E7E9
:102120000020EBE70846E9E708B50346008928B137
:1021300000F0EAFEBDE80840FFF7CDBF188800F0C8
:102140000BF9F7E782B002AB03E9030002B0704776
:1021500084B004AB03E9070004B07047704708B5CA
:10216000FFF7FCFF08BD000008B5FFF7F8FF034BC1
:102170001860BDE80840FFF78FBF00BFBC12002009
:102180007047FFF7F1BF0000024B1B681843FFF7D1
:10219000EBBF00BFBC120020024B1B681840FFF7CA
:1021A000E3BF00BFBC120020024B1B685840FFF782
:1021B000DBBF00BFBC120020704708B5FFF7FCFF73
:1021C00008BD000008B5FFF7F8FF034B1860BDE835
:1021D0000840FFF761BF00BFC01200200020FFF7DA
:1021E000F1BF18B9B1FA81F040097047C84000F05A
:1021F00001007047024B01461868FFF7F2BF00BFAD
:10220000C0120020012303FA00F0FFF7DBBF00003B
:10221000012303FA00F0024B1B681843FFF7D2BFFB
:10222000C0120020012303FA00F0034B1B6823EACD
:102230000000FFF7C7BF00BFC0120020012303FA50
:1022400000F0024B1B685840FFF7BCBFC0120020D3
:10225000024B1B681843FFF7B5BF00BFC012002038
:10226000024B1B681840FFF7ADBF00BFC012002033
:10227000024B1B685840FFF7A5BF00BFC0120020EB
:1022800070470000C0F3072303EB430337B500EBAF
:10229000430000F0FF0000F0070301229A40C0084D
:1022A0000A4B00EB8000D2B218440024057821FAD2
:1022B00004F343F300036B40134001346B40052CDF
:1022C00000F8013BF2D103B030BD00BFC4120020C2
:1022D000C0F3072303EB430313B500EB430000F007
:1022E000FF0000F007040A49C00800EB800000224C
:1022F0000144104611F8013BE34003F00103934011
:1023000001321843052AC0B2F4D102B010BD00BF9B
:10231000C41200200E4B73B51E680E4BADF80400BE
:102320001B681F241E4326FA04F3DB07E5B206D41C
:1023300014F1FF34F7D20025284602B070BD019990
:10234000284600F0A9FE80B20128F1D0F4E700BFD2
:10235000C0120020BC12002007B5ADF8040001989F
:10236000FFF7D8FF019903B05DF804EB00F094BECD
:1023700013B5104BADF804101B782BB1019802B0C7
:10238000BDE81040FFF7E8BF70B10198FFF7C2FF4A
:10239000044601460198FFF775FF0199204602B0F7
:1023A000BDE8104000F078BE0198FFF791FF0446A9
:1023B000F3E700BFBA120020F8B50E4B0E4E1C78A2
:1023C0000E4D0A273378A34200D1F8BD07FB04F273
:1023D000AB18A85AB3F802C09A88D98840EA0C40D2
:1023E00042EA014101341A89FFF7B2FE04F0070402
:1023F000E8E700BF4713002046130020F612002034
:10240000074B10B49A885C881888D98840EA044041
:1024100042EA01415DF8044B1A89FFF799BE00BFFB
:10242000EC120020264B9A7912F0F00F2DE9F347B9
:102430000ED19A7862B1234A234F1278234CDFF8E9
:1024400090804FF6FF7C4FF00A0E3978914202D10E
:1024500002B0BDE8F0879D8875B3187893F80190B5
:102460008DF804008DF80590BDF80410614523D067
:102470000EFB02F6A11991F801A0CA451CD1A65D78
:10248000864219D18878B8B98888401BB8F80050BE
:1024900080B2854210D99879012262F307109871B1
:1024A0008B79074862F307138B71FFF7C9FD02B000
:1024B000BDE8F047FFF780BF013202F00702C4E732
:1024C000EC1200204713002046130020F6120020D3
:1024D000900C00202DE9F04FC04D93B0044601460A
:1024E00006220AA80AF03AF8AB882A882078617890
:1024F00094F80280B4F80490ADF80C2095F800E050
:1025000095F801C02F46002B00F0118192B24FF6D2
:10251000FF7B5A4500F00B81AE78002E00F007815A
:10252000AA79019202F0F00AAD4AA9EB03031288DE
:102530009BB29A4240F2A880BAF1000F5BD18DF8AD
:1025400010E08DF811C0BDF810305B45C2461FD0B9
:10255000B5F800C023889C451AD1B5F808C0238976
:102560009C4515D1B8F1000F40F065819DF804201D
:10257000012363F30712AA71FFF742FF2846FFF712
:102580005FFDAB79A3710026304613B0BDE8F08F34
:10259000B9F1000F40F05381B8F1000FF3D0BB79CF
:1025A00043F00103BB71EEE70EFB03F57A1992F8D5
:1025B0000180884505D17D5D854202D19278002A4F
:1025C000E1D1013303F0070350E110F4706F00D044
:1025D0007BB12033DBB2072B0BD92046FFF730FD50
:1025E000B24606E010F4706FF3D0A27912F0F00F4B
:1025F000EFD15646C8E78DF814E08DF815C0BDF848
:1026000014305B4517D029882388994213D1298932
:10261000238999420FD1B8F1000F0CD1019BA3710E
:102620002046FFF70DFD0A222146284609F096FFB5
:10263000FFF7E6FEA8E72046FFF776FD00B3B8F106
:10264000000F1DD0BB791F2B0FD93A88ADF8302071
:102650008DF8363000223B898DF83220ADF8349069
:10266000ADF838300CA8FFF7EBFC0A2221465B4896
:1026700009F074FFFFF7D6FEFFF7C2FE012683E7DD
:102680002046FFF7DDFCF9E7BAF1000F17D10AABDE
:102690008DF82A80ADF82C908DF828008DF829103F
:1026A00093E80300FFF74EFD2846FFF7C9FC0A2216
:1026B0005146284609F060FFFFF7A2FE99E78DF822
:1026C00018E08DF819C0BDF818305B4515D0298881
:1026D0002388994211D12989238999420DD1B8F1D2
:1026E000000F0AD1019BA3712046FFF7A9FC0A2223
:1026F0004146284609F040FF46E72046FFF714FD13
:102700000028BDD0B8F1000FBAD0BB791F2BACD9CF
:102710003A88ADF83C208DF8423000223B898DF894
:102720003E20ADF84090ADF844300FA89BE7002B59
:102730006BD08DF81CE08DF81DC0BDF81C504FF615
:10274000FF72954261D0BE78002E5ED1244DA9EB78
:1027500003032D889BB29D4244D94646002E8FD05C
:102760008DF820E08DF821C0BDF82030934227D0AD
:102770003A8823889A4223D13A8923899A421FD1E1
:10278000BB79DA0716D413F0F00F13D003F0F00280
:10279000F02A1CBFC3F303120132A37118BF62F306
:1027A0000713204618BFA371FFF74AFC0A222146EF
:1027B0000A483BE70A222146084809F0CFFEE3E633
:1027C0002046FFF7B1FC00287FF44FAFBB792046CD
:1027D00043F00103BB71FFF733FCD5E6EC12002098
:1027E000900C00208DF82A80ADF82C908DF82800F0
:1027F0008DF829100AAB93E80300FFF7A3FC0A2227
:102800003146284809F0B8FE12E7B8F1000F3FF44E
:1028100037AF2046FFF788FC064600283FF430AF6C
:102820000A2221461F4809F099FE1E48FFF7FFF8CB
:10283000FFF7F8FDFCE6B9F1000F3FF4B0AE8DF8FC
:1028400024008DF82510BDF824204FF6FF739A421E
:102850003FF4A2AEB8F1000F7FF4A1AE124B134AC1
:102860001B7892F800C0124F4FF00A0E63457FF4B8
:102870009BAE8DF828008DF829100A98FFF76CFDA3
:10288000C0F30332C3B2032A3FF6A7AE01A151F849
:1028900022F000BFCB250008CB250008E525000865
:1028A000E5250008EC120020471300204613002005
:1028B000F6120020F0B589B001AC84E8070020468C
:1028C000FFF708FE324E334D074690B1BDF8083091
:1028D000BDF80420ADF8142043B192B24FF6FF7357
:1028E0009A4203D094E80700FFF732FC2A4F0A24EB
:1028F00048E094E8070005AB03C31A80BDF8083030
:10290000BDF81420ADF81020002BEFD092B24FF696
:10291000FF739A42EAD033782A785C1C04F00704EB
:1029200094420AD01C480A2205A902FB030009F0C0
:1029300015FE3470FFF740FDD8E7FFF7C5FB0A220C
:102940003946164837702F7009F016FECEE700EBB7
:10295000800007EB4000FFF7BDFDB8B12A78624365
:10296000BB18B85AB3F802C09A88D98840EA0C401C
:1029700042EA01411A89FFF7EBFB2B78013303F0A0
:1029800007032B70287833788342E0D109B0F0BD7B
:102990004613002047130020F6120020EC120020FE
:1029A000024B0146186805F006B800BF940C0020E1
:1029B000024B0146186805F000B800BF940C0020D7
:1029C000014B186804F0FBBF940C0020024B93F9F4
:1029D0000000C0F3C700704758130020024B18785E
:1029E00000F00700704700BF58130020034B187811
:1029F00010F0070018BF0120704700BF58130020D7
:102A0000014B1878704700BF5A130020024A137810
:102A100018431070704700BF5A130020024A137801
:102A200023EA0000107070475A130020014B002267
:102A30001A7070475A130020024A13781843107016
:102A4000704700BF5B130020024A137823EA00009E
:102A5000107070475B130020014B00221A70704702
:102A60005B130020014B1878704700BF59130020FA
:102A7000704708B5FFF7FCFF08BD000008B5064B1E
:102A80005B785B0706D4054B1978814202D0187039
:102A9000FFF7EFFF08BD00BF4030002059130020B2
:102AA00008B5044B1A781AB100201870FFF7E1FF3F
:102AB00008BD00BF5913002010B5124B12491B78F6
:102AC0000978124C0B43124920680978037031B120
:102AD0000B43037004F02EFF08B1FFF7E1FF2468F9
:102AE0000C490822204609F02BFD48B12146082256
:102AF000084809F033FD2046BDE8104004F0C0BE90
:102B000010BD00BF5A1300205B130020940C00205E
:102B10005913002050130020704708B5FFF7FCFF41
:102B200008BD00000A4A5278520710B50CD4094C6F
:102B300041EAC0012170FFF76BFB94F90000C0F37C
:102B4000C700FFF7EAFF10BDBDE81040FFF760BB0C
:102B5000403000205813002008B5034B00201870A7
:102B6000FFF7DBFF08BD00BF5813002008B50C4A73
:102B700092F9003023EA000040B2107042070ED1F3
:102B8000DBB283420BD0074B5B785B0707D4C0F303
:102B9000C700FFF747FBBDE80840FFF7DDBF08BDF2
:102BA00058130020403000200D4A5378C3F38001B1
:102BB000814210B5044612D060F38203537010882E
:102BC00000F04CF80220FFF7D1FF064B1B78DB0723
:102BD00005D521460448BDE8104000F063BE10BD95
:102BE0004030002072130020F4C80008044B5878CD
:102BF000C0F3800080F0010000F00100FFF7D4BFB7
:102C0000403000200120FFF7CFBF0020FFF7CCBFEE
:102C100008B502F0D1FC4FF6FF710020BDE8084076
:102C200002F014BB08B5002002F0C3FA4FF6E963C6
:102C3000C31A5842584108BD022002F0ABBA032023
:102C400002F0A8BA10B5042002F0A4FA044622202B
:102C500002F0A0FA44EA002080B210BD10B5C1B263
:102C60000446042002F0E4FA210A2220BDE81040C4
:102C700002F0DEBA072002F08DBA0146072002F00A
:102C8000D7BA01460F2002F0EFBA0146132002F036
:102C9000EBBA0020FFF7F9BF08B50020FFF7F1FFFE
:102CA000FFF7F7FF08BD000010B502F085FC4FF6F6
:102CB000E961002002F0CAFA0021022002F0B8FA0D
:102CC00000210320002402F0B3FA1A4B214604200D
:102CD0001C6002F0ADFA2146222002F0A9FA21463A
:102CE000052002F0A5FA2146062002F0A1FAFF21F4
:102CF000072002F09DFA2146082002F0B5FA21468D
:102D00000D2002F095FA2146182002F0ADFA214676
:102D1000172002F08DFA21461C2002F0A5FA214668
:102D2000202002F093FA2146182002F09DFAFFF7C6
:102D3000B3FF10BDBC120020FFF7B6BF01460E2046
:102D400002F076BA08B504F009FF024B1860024B96
:102D5000186008BD601300206413002008B504F05B
:102D6000FDFE024B1860024B186008BD6013002086
:102D70005C1300207047704708B5FFF7FCFF08BDE3
:102D8000704708B5FFF7FCFF08BD000008B505480F
:102D900000F068FA02F00EFCFFF7ECFFFFF7ECFF23
:102DA00008BD00BFD18200080120704708B5FFF7B9
:102DB000FBFF08BD7047704708B5FFF7FBFFFFF743
:102DC000FAFF08BD08B500F073FAFEF7C2FDBDE8D2
:102DD000084000F0D3BE08B504F0A4FEFEF72AF9BF
:102DE000FFF7F0FF03F046FA04F002FC04F0E2FB08
:102DF000FFF7C7FF08BD00002DE9F04F87B0FEF7D1
:102E00009BF9074608B1FFF79DFFDFF8BCB000252E
:102E1000D8465FFA85F94846FEF764FA1BF8016B5D
:102E20008642824637D0274B1B789B0701D5FEF799
:102E30005FFA0023012486EA0A063442D9B225D07B
:102E40000191FFF7B3FF0199A8B11AEA040F14BF6B
:102E5000012300238DF808108DF80A308DF80990B1
:102E600004F0B0FE40F00100ADF80C0002AB93E8B6
:102E70000300FEF7B1FD18F805305C4008F8054086
:102E8000381C18BF012007B0BDE8F08F0133640083
:102E9000062BE4B2D1D101350A2DBAD14FF6FF731A
:102EA000ADF8103000238DF8123004F08BFE40F0A6
:102EB0000100ADF8140006AB13E90300FEF78CFD2A
:102EC000DEE700BF721300206813002008B501F090
:102ED0007BFD03F0BDFE0020BDE8084004F02EBBE2
:102EE00008B5FFF789FFFFF7F1FF03F059FA04F087
:102EF0009FFB08B1FFF732FF02F074F801F0D6FC37
:102F0000BDE80840FEF73ABD10B500F0D1F8B0F5C5
:102F1000A24F04462BD2B0F5A04F71D2E72812D8A9
:102F2000E0280AD2A7280AD8A5285AD2012804D016
:102F300003B233B1032898BF0024204610BDBE2839
:102F400056D90024F9E7B0F5005F08D2B0F5807FCC
:102F500003D2ED28F5D340F4A044A4B2EDE7B0F5D8
:102F6000804FEED3C0F30B0444F42044E5E7B0F502
:102F7000AA4F11D2B0F5A84FC3B261D2B0F5A64F97
:102F800054D2B0F5A44F4CD39A08012403F00303A4
:102F90009C4044EA421441E0B0F5B24F0ED2B0F585
:102FA000B04F52D2B0F5AC4FCBD2C0B200F002F964
:102FB000040204F4F85444F40054BEE7B0F5B44FEE
:102FC00048D3A0F5C0439BB2B3F5005FB9D2C0F3BC
:102FD000042000F0EFF8000200F4F850E4B20443DB
:102FE000E9E75B34E4B2214B1C5D44F48044A4E780
:102FF0005834E4B21E4B33F8144044F488449CE740
:10300000C2B2C2F381035B01C0F3011443EA04249A
:1030100002F00302012303FA02F2144344F40C44C5
:103020009BE74AF2F10040EA032486E79A0801246C
:1030300003F003039C4044EA421444F40A448CE73E
:103040004AF2F40444EA032477E74AF2F00040EA43
:10305000042482E700F00F0000F0ACF8C4F303147E
:1030600040EA042444F4104477E700BF09C900088B
:103070000CC900083C225043C1F30723062202FB7F
:10308000030353FA81F3034A32F8130082B002B00B
:10309000704700BF38C6000807B5ADF804100199A5
:1030A000FFF7E8FF03B05DF804EBFFF72DBF00006A
:1030B000822825D00CD8312863D004D8292859D0AB
:1030C0002A2865D0704735284DD0392818D0704748
:1030D000E32830D004D8E02819D0E22826D0704761
:1030E000E62832D0E72835D0E42832D1304B5A7860
:1030F00091072ED51B7813F0100F08BFE72012E0C0
:103100002B4B1B7813F0030F18BFE0207047284AA1
:103110001378D90743D4527812F0010F19D013F065
:10312000100F08BFE32018BF00207047204B1B780A
:1031300013F0040FF2E71E4A1378590731D452787E
:10314000D20730D413F0100FEDE7194B1B781A0794
:10315000D1D47047164A1378190726D452789207AB
:10316000F0D5E420F5E7124B1B7813F0200F18BFC1
:10317000292070470E4B1B7813F0200F18BF352005
:1031800070470B4B1B7813F0400F18BF2A20704775
:10319000074B1B7813F0400F18BF312070473920C0
:1031A0007047E2207047E0207047E620704700BF7C
:1031B00040300020294B1A78510707D500F018013C
:1031C000082927D100F0F70040F00400110707D5C7
:1031D00000F01801182926D100F0E70040F0140093
:1031E0005B78D90707D500F01801082924D100F031
:1031F000F70040F00100990707D500F01803182BDD
:1032000023D100F0E70040F01100D30648BF00F0E2
:10321000E700704700F01401042904BF00F0FB0030
:1032200040F00800D2E700F01401142904BF00F0B8
:10323000EB0040F01800D3E700F01101012904BFB2
:1032400000F0FE0040F00800D5E700F01103112B5C
:1032500004BF00F0EE0040F01800D6E74030002038
:1032600000207047014B1860704700BF980C002089
:10327000014B1B68184700BF980C0020FFF7C8BC23
:1032800008B5FDF759FF642006F049F8FDF754FF33
:103290000020FEF727F8C30705D5FFF7EFFFBDE8CD
:1032A000084004F09BBC08BD08B5FFF7E9FF08BD66
:1032B00008B5FFF7B7FC08B9FFF73EFDFFF7BCFC08
:1032C000084B1870FFF7BEFC074B1880FFF7ECFFA8
:1032D000FFF7B5FCFEF755FF044B1868BDE8084042
:1032E000FEF76BBF7213002040300020C012002098
:1032F00008B505F065F8FFF76EFDBDE8084005F07C
:103300007BB808B505F07EF8FFF7EAFDBDE8084098
:1033100005F09EB808B504F09FFB05F04FF8FFF7E5
:1033200035FDFFF7E5FFFFF7ECFFFFF745FDFAE797
:1033300070472DE9F04F8BB00F46149C9DF854E078
:103340001699189D984683461646199B0CB923F08A
:10335000100313F48062009200D00CB313F0200F1E
:1033600020460DF108094FF0000414BF4FF0370A52
:103370004FF0570AB0FBF1FC01FB1C0C5FFA8CF21A
:10338000BCF1090F94BF30325244D2B2884209F8DE
:10339000012BB0FBF1F204F1010401D3202C11D177
:1033A00013F0020201921ED103F001023DB132B1CD
:1033B000BEF1000F02D113F00C0F00D0013D4FF011
:1033C000300C05E01046D5E702A800F804C001342F
:1033D0001798A04201D9202CF6D130201AB1A5426D
:1033E00001D91F2C42D9DA0620D5009A002A44D1EF
:1033F000002C42D0179AA24201D0AC423DD1621EAD
:103400003AD0102943D1023C980642D41F2C18D838
:103410000AAA2244782102F8201C01341F2C10D85B
:103420000AAA2244302102F8201C01341F2C08D89B
:10343000BEF1000F33D00AAA22442D2102F8201C2D
:1034400001349B07324642D004EB020A5046AAEBF5
:103450000402002C3ED1019B2BB1AAEB060A554574
:1034600006EB0A003DD80BB0BDE8F08F0DF1080C5B
:103470000CF804000134B1E714461029C4D0022925
:10348000CCD11F2CDDD80AAA22446221C3E71446FE
:10349000F5E71F2CD5D80AAA22445821BBE75907C3
:1034A00003D50AAA22442B21C8E71A07C9D50AAABC
:1034B00022442021C2E702F1010943463946202077
:1034C000D8474A460AEB0203AB42F4D3BCE7A4EB6D
:1034D000060AF7E7013C02A843463946005DD84793
:1034E000B4E70246434639462020D8470AF1010A8C
:1034F000B5E708B1FFF7BCBE704700002DE9F04FFB
:103500008BB01F46B44B149EB1F10009904614BF16
:1035100083469B460025387860B945452CBF08F1A5
:10352000FF322A46434649460020D84728460BB07A
:10353000BDE8F08F252807F1010706D02A466C1C4C
:1035400043464946D8472546E5E7002306E02D2AAD
:1035500015D0302A0CD143F001030F46394611F83B
:10356000012B2B2A0ED0F2D8202A0ED0232A0FD0DE
:10357000A2F1300009282AD80022069212E043F076
:103580000203EAE743F00403E7E743F00803E4E754
:1035900043F01003E1E706980A2404FB0022303AC6
:1035A00006920F46394611F8012BA2F13000092886
:1035B000F1D93A782E2A41D17978A1F13000092841
:1035C00007F1010243F4806330D8002413E02A2A73
:1035D00009D156F8042B002ABCBF524243F0020323
:1035E00006920F46E5E700220692E2E70A2202FB76
:1035F0000414303C0246104610F8011BA1F13007BC
:10360000092FF3D9174617F8011B6A2930D018D8AB
:10361000682924D0174617F8010B69283CD062D8D6
:10362000622828D1022123F00C033DE02A2906D18B
:1036300056F8044BBA1C24EAE474E3E73A46002443
:10364000E0E76C2904D07A29E4D143F48073E2E7FF
:1036500051786C29F9D143F44073971CDBE751781A
:10366000682902D043F08003D5E743F0C003F4E7B4
:1036700043F40073CFE709D825283FF45FAF5828FB
:103680007FF45CAF43F020031021CCE7632800F007
:10369000838064287FF452AF692823F010034FF031
:1036A0000A0101D06428BED15A0548BF23F00103A6
:1036B000692803F4007201D0642844D1002A7FF401
:1036C0002AAFDA0506F1040A33D532680593069B62
:1036D0000493002A4FEAD273039402910193B8BF76
:1036E000524200923EE0732800F089801BD86F2878
:1036F00001D1082197E770287FF420AF43F0210320
:103700000593082304931023029300230394019349
:1037100056F8043B00932A46434649465846FFF76D
:1037200008FE0546F7E67528B6D078287FF406AF80
:10373000AAE713F0400F326801D0D2B2C6E71E06E6
:1037400048BF12B2C2E7002A7FF4E5AED80506F101
:10375000040A10D50593069B0493039402910192E9
:10376000336800932A46434649465846FFF7E1FD31
:1037700005465646CFE613F0400F326808D0D2B265
:103780000593069B04930023039402910193A8E7F9
:10379000180648BF92B2F3E713F002042DD00123BC
:1037A0002A46079356F8040B43464946C0B2551CB7
:1037B000D847002C3FF4AFAE069B079A93427FF6A2
:1037C000AAAE43462A4649462020D847079B6C1C90
:1037D000013307932546EFE7313300084346494656
:1037E0002020D8470AF102030793069B05EB0A0243
:1037F0000AF1010A9A45F1D3D4E7A246F2E7B246AC
:10380000002C5AF8046B14BF21464FF0FF313144AD
:103810003246107808B1914210D113F48061A2EBC6
:103820000602089102D0A24228BF224613F00203EA
:10383000099312D007922A46951B15E00132E8E75A
:10384000434649462020D847079B591C07910699B3
:10385000994205EB0302F3D8EEE71346AD1AF4E7FD
:103860001C4643464946D847AA1916F8010B28B109
:10387000089B002BF5D0631E002CF1D1099B154647
:10388000002B3FF476AF079B9C1A06E02A4643467E
:1038900049462020D8476E1C3546069A6319934244
:1038A000F4D366E70FB41FB506AA02A952F8043B89
:1038B0000392009204484FF0FF32FFF71FFE05B05D
:1038C0005DF804EB04B07047F3340008000000001A
:1038D000453807EE900AF8EEE77AB2EE087AC7EEBE
:1038E000877A08B517EE900AFCF76CFE9FED080B7F
:1038F00041EC110B07F0D8FD002251EC100B064BE8
:10390000FCF7B8FEFDF766F900EE100A08BD00BF2F
:10391000000000000000004000807B4008B545F634
:103920001D43984205D18B7873B300F039FA00201B
:1039300008BD45F61E43984204D18B7823B300F0AE
:1039400045FAF4E745F61F43984206D18B78DBB180
:1039500000F030F80028F2D1E7E745F62A43984214
:1039600009D18B7883B100F07DFC00220421074847
:1039700000F092F8DBE745F62B43984204D18B78B0
:1039800013B100F075FCF0E70120D1E79C0C00209A
:1039900008B5FFF79DFFBDE8084000F0FDB908B588
:1039A000FFF796FFBDE8084000F016B900F00AB82E
:1039B00070477047024B187800F00100704700BF55
:1039C000BC30002038B50D4D2C78B4B90C4B1C70B0
:1039D00000F0FAFB0B4B0C491C700C4B1C700C4B91
:1039E0001C800C4B22460134082C1A8059601A8125
:1039F00003F10C03F7D101232B7038BDBC0C002060
:103A0000731300207D130020000080BF7E13002070
:103A10007A1300205C3000200B4B1B7883420FD9B7
:103A2000013B1B1A09485BB20C2202FB030393ED16
:103A3000010AB5EEC00AF1EE10FA01D900F01EBC81
:103A40009FED030A704700BF731300205C30002015
:103A5000000000000D4B07EE900A1B78F8EE676A35
:103A6000DFED0B7A9B0166EEA76A07EE903AB8EE9F
:103A7000E77AC6EE877A9FED077A67EE877AFCEEE3
:103A8000E77A17EE903A98B2704700BFE00C00203A
:103A90000000704200007A44F8B5224B1B78DB0727
:103AA00004460F46154603D4BDE8F840FFF78ABF29
:103AB0001D4B1B780BB900F061F81C4B1B780BB148
:103AC000FFF780FF1A4BD4ED017A1A4E01221A70CB
:103AD000194A346000231370184A1780184AFCEE04
:103AE000E77A1570174D2B8017EE903A98B2FFF7D2
:103AF000B1FF94ED000A00F0CBF804F063F8124B2C
:103B00002A881880336803EBC203D3ED017AFCEEF8
:103B1000E77A17EE903A98B2FFF79CFF0B4B1880AC
:103B2000F8BD00BFBC300020741300207E130020BD
:103B30007D130020583000207C13002044300020EA
:103B4000BD30002076130020781300207A13002067
:103B500008B5074B1B78DB0704D500220421054874
:103B6000FFF79AFF04F02EF8034B188008BD00BF42
:103B7000BC300020E40C00207813002010B5124C5B
:103B8000237803BBFFF74EF808B9FFF7D5F8FFF726
:103B900071F80E4B002218700D4B0E481146013281
:103BA000082A19805860198103F10C03F7D1237892
:103BB0001BB900F0C3FA01232370FFF703FFBDE830
:103BC0001040FFF7C5BF10BD74130020BC300020AB
:103BD0005C300020000080BFF8B5264DB5EEC00A6D
:103BE0002B78F1EE10FA2DED028BB0EE408A48BF33
:103BF000B1EE408A002B3AD01F4B1B780BB9FFF770
:103C0000BDFF1E4B07241846D3ED167AF4EE487A12
:103C1000F1EE10FA26D10C216143002243184252E2
:103C2000174959601A810F461646072C0ED1154BBD
:103C300001261E70144B1C78013CE4B21C70B4B910
:103C400000F0C2FA114B2C701E7010E003F10C0C46
:103C50009CE80700013483E807009E811F619E8273
:103C60006346E2E7013C621CA3F10C03CCD1BDEC3E
:103C7000028BF8BD7E130020741300205C300020FE
:103C8000000080BF7F13002073130020BC0C0020B5
:103C90002DE9F041384B1B780746D8072DED028BF4
:103CA000B0EE408A50D5354B1B780BB9FFF766FF55
:103CB000334DDFF8D0802B78B5EEC08AF1EE10FAE4
:103CC00048BFB1EE488A5E1E0C22711C2FD1013311
:103CD000DBB2082B4DD908232B702A4B002603F1A9
:103CE0000C0494E807000136072E83E807002346FA
:103CF000F5D1254A01231370244A13702B785C1EDA
:103D000003F060FF0C23634308EB030228F8030071
:103D100082ED018A178103F055FF1D4C1D4B188061
:103D200023788BB100F07AFA002323700CE002FBB9
:103D30000684D4ED017AF4EE487AF1EE10FA16D149
:103D40002B78013B9E4203DBBDEC028BBDE8F0818A
:103D500004F10C0898E8070084E8070003F032FF3C
:103D60000136A08184ED048AA7824446E8E7013E3B
:103D7000ABE72B70BDE700BFBC3000207413002000
:103D8000731300205C3000207F1300207E1300207E
:103D9000BC0C00208C1300204FF6FF70FFF778BF9B
:103DA00008B5084B187840F001001870FEF765FF61
:103DB000FFF7FEFD002202210348BDE80840FFF79F
:103DC0006BBE00BFBC300020D00C002008B5002224
:103DD00002210A48FFF760FEFFF7EBFD4FF47A700F
:103DE00005F09DFAFFF7EEFD054B18786FF3000024
:103DF0001870C0B2BDE80840FEF73FBFC00C0020FD
:103E0000BC300020624B1A782DE9F0479846614C8F
:103E100012B92578002D70D003F0D4FE27788146A2
:103E2000F7B9002798F80030002B00F0AF805A4B0C
:103E30001D7825B9594B1D78002D08BF3D46584CBB
:103E4000584F00264FF6FD783B78B34200F38C8044
:103E5000554A1378002B50D0002111701D464CE0BC
:103E6000524D534E288803F0B2FE33888342D8D88F
:103E7000288803F0ACFEA5F800904E4D3488B5F8C4
:103E800000A00AF10103041B2B8003F09BFE4A4BA8
:103E900018804A4B19882B888B42A4B2A94605D3B7
:103EA000474B1D783DB30023A9F80030454B4648E9
:103EB0001A680578B9F800308646DB0005BB02EBCE
:103EC000CA0CD5189CED007AD5ED007AB4EE677A6D
:103ED000F1EE10FA14D1012303700220FFF7BAFDAE
:103EE0009FED3A0AFFF7D4FE0220A9F800A0FFF7E1
:103EF000B1FD308096E7FFF765FD2846BDE8F08705
:103F00001344D3ED017AFCEEE77A002017EE903AE5
:103F10008EF8000098B2FFF79DFD01398442B9F890
:103F2000003001D999420DDC84423ABF001B84B2B3
:103F3000012402EBC303204693ED000AFFF7A8FE1D
:103F400034806FE701339BB2A9F8003002EBC30362
:103F5000D3ED017AFCEEE77A201A17EE903A84B29C
:103F600098B2FFF777FDD9E72389013B9BB2434520
:103F700009D8208803F02BFE2389834203D894EDCF
:103F8000010AFFF729FE01360C345DE73D465FE785
:103F90007E1300207D130020891300208813002049
:103FA0005C300020731300207F1300207813002062
:103FB0007A130020761300208C1300204430002058
:103FC000BD300020583000207C130020000000008D
:103FD00010B5084C0849204605F0B3FC20460221E4
:103FE00005F0C1FC032210214FF09040BDE81040C5
:103FF00006F08DBB38340020040D002008B50748BA
:1040000005F0BFFC012210214FF0904006F07FFB2D
:104010004FF0904310221A8308BD00BF38340020AF
:1040200008B5114B2DED028BB0EE408A83ED000AEE
:10403000FFF7E4FFB5EEC08AF1EE10FA10D938EEC2
:10404000088A9FED0A0A0A4B28EE008ABCEEC88A4D
:1040500083ED008ABDEC028BBDE80840FFF7B8BFD6
:10406000BDEC028B08BD00BF801300200000804320
:10407000040D002010B5084C0849204605F061FCED
:104080002046022105F06FFC032220214FF09040D2
:10409000BDE8104006F03BBB58340020140D002052
:1040A00008B5074805F06DFC012220214FF0904033
:1040B00006F02DFB4FF0904320221A8308BD00BF6D
:1040C0005834002008B5114B2DED028BB0EE408A1C
:1040D00083ED000AFFF7E4FFB5EEC08AF1EE10FAB7
:1040E00010D938EE088A9FED0A0A0A4B28EE008A9A
:1040F000BCEEC88A83ED008ABDEC028BBDE80840A7
:10410000FFF7B8BFBDEC028B08BD00BF84130020D1
:1041100000008043140D002008B5FFF773FE58B16E
:104120000020FFF779FCFFF77BFF0020FFF774FC0E
:10413000BDE80840FFF7C6BF08BD000038B5184D00
:10414000184C032210214FF0904006F0E0FA284668
:10415000154905F0B8FB1549154805F0F2FB032297
:1041600020214FF0904006F0D2FA2046114905F088
:10417000AAFB1149114805F0E4FBAB6A10491A6823
:104180001048136823F002031360A36A1A681368C7
:1041900023F400331360BDE8384005F0D2BB00BF04
:1041A000A4330020D43300203CCD0008040D0020AF
:1041B0003834002044CD0008140D0020583400206D
:1041C000240D00204834002010B50F4C0F4805F096
:1041D000D8FB204605F096FB40F2FF7200212046F6
:1041E0000B4C05F07EFB0B4805F0CBFB204605F0A1
:1041F00089FB204640F2FF72002105F072FB064861
:10420000BDE8104005F0BDBBA433002038340020C9
:10421000D4330020583400204834002008B50A4A1E
:104220000A490B484FF4807305F05DFB4FF480732F
:1042300008490948094A05F056FB02210848BDE82B
:10424000084005F090BB00BF3AC900084CCD0008FB
:10425000A43300205CCD0008D43300203ACB000802
:1042600048340020014B00221A7070478A13002046
:10427000014B00221A7070478A130020024B1B78F2
:104280000BB9024A137070478A130020881300206C
:104290000E4A138803F4004343F4FE4343F004033F
:1042A0001380802393700A4A4823FF20002102F8DC
:1042B000010B013B13F0FF0382F84710F7D1054AC9
:1042C0001370054A1370054A13807047C0300020F0
:1042D000921300208E1300208F13002090130020D3
:1042E000064B1B78C3F3030243F3031302EB4202B2
:1042F0002F3B03EB82031844C0B27047C03000204C
:104300002DE9F84345F6AE43984202460C4600F2CA
:10431000858045F69F43984280F0CE8145F68F43D5
:10432000984229D845F68343984280F05881B0F5E9
:10433000B94F0BD845F67743984280F02E8145F669
:104340002F43984280F0DC80012523E145F681432C
:10435000984200F0358145F682439842F4D18B783B
:10436000002B00F0F880AF4A137803F00F01082902
:1043700000F2F18001312CE145F69C43984231D89E
:1043800045F69243984280F0618145F69043984209
:1043900000F0378145F691439842D5D18B78002BB8
:1043A00000F0D9809F4B197841F3031250B20528D1
:1043B00000F3D180013242F3030262F307110028B7
:1043C000197005DD002ABEBFCAB260F307121A7069
:1043D000954A1278D60740F1BE80197841F303114F
:1043E00049B20CE145F69D43984200F0428145F602
:1043F0009E439842A8D18B78002B00F0AC80894B6B
:10440000597801F07F027F2A00F0A5801146722AB8
:104410009ABF0D3101F07F017F2120E145F6B543C0
:10442000984200F0A48131D845F6B143984200F09B
:10443000648110D845F6AF43984200F0508145F6AC
:10444000B043984280D18B78002B00F08480754A6D
:104450009378591C4BE145F6B3439842714A8B78E7
:10446000714D00F0728140F25E8191786F48002BAF
:1044700014BF7F230023422201F00F0104F000FA51
:104480002B78DF0767D5A178694896E045F6B843F1
:10449000984200F0968112D845F6B643984200F053
:1044A0007B8145F6B74398427FF44EAF8B78002B63
:1044B000604B14BF01224FF0FF321A704BE045F6FB
:1044C000BA43984200F0B081C0F0968145F6BB43F4
:1044D00098427FF439AF534C8D78A178524E01F059
:1044E0000F01002D00F0B78141F6FF724F4804F034
:1044F000F4F93378DA072ED5A17841F6FF72A4E1FA
:10450000484B8D789F7893F801804B4EA0F12F0295
:1045100007F00F0708F07F08D4B2F5B1FFF7E0FE0F
:104520004346024605463946404804F0B8F93E4B3A
:104530001B78DA0705D543462A4639463F48FFF738
:10454000B1F9321992F84830013382F84830335DBE
:10455000FF2B08BF355500251CE0321916F80490D2
:1045600092F84830013BDBB282F84830002BF2D1A0
:1045700043464A4639462D4804F0A0F92A4B1B7899
:10458000DB0705D543464A4639462D48FFF78AF9E9
:10459000FF2333552846BDE8F8838B78002BDAD00B
:1045A000204BA0F177011A78C9B261F303021A70A7
:1045B0001D4B1B78D807CED52248FFF773F9CAE701
:1045C0008B78002BC7D0174A13781907C3D003F193
:1045D0000F0101F00F0161F303031370E8E78B781B
:1045E000002BB8D00F4B00F177011A7841F303018B
:1045F00061F307121A700C4B1B78DF07ABD512481A
:10460000DBE78B78002BA6D0064A137843F303111F
:1046100048B205309FDB0F3141F3030161F307130B
:104620001370E8E7C030002072130020043100202E
:1046300058CE00088F1300209213002080CD000870
:10464000ACCD0008D9CD0008E9CD00088B78002B4F
:1046500081D06E3202EB42029100874BC9B25A7888
:1046600061F306025A70854B1B78DC077FF573AF48
:1046700018E08B78002B3FF46EAF7F4A537813F02D
:104680007F003FF468AF7F280ED1A0F10A0161F3EB
:1046900006035370794B1B78DD077FF55CAF5178CB
:1046A00001F07F01764888E70C2802D9A0F10D01BE
:1046B000EDE76FF30603ECE78B78002B3FF44BAF8D
:1046C0006D4B00F161019A78C9B261F303029A70EF
:1046D0006A4B1B78D8077FF53EAF6A486DE78B7849
:1046E000002B3FF438AF644A937803F10F0101F0D7
:1046F0000F0161F303039370EAE78B78002B3FF41B
:104700002AAF5D4B604899787B22002301F00F01AE
:1047100004F0B6F8594B1B78D9077FF51CAF5B48FE
:10472000FFF7C0F817E791785748002B14BF7F2395
:104730000023402201F00F0104F0A2F82B78DA07E1
:104740007FF509AFA178524837E791784E48002BA2
:1047500014BF7F230023412201F00F0104F090F8E1
:104760002B78DB077FF5F7AEA1784A4825E7424B67
:1047700045489978A378002B14BF7F230023432258
:1047800001F00F0104F07CF83C4B1B78DE077FF54D
:10479000E2AEA178404810E7374B3B489978A378C0
:1047A000002B14BF7F230023432201F00F0104F0EC
:1047B00067F8324B1B78DD077FF5CDAEA17837481F
:1047C000FBE68B78002B3FF4C6AE2B4A9378190991
:1047D000481C60F307139370DBB213F0F00F04BFB3
:1047E00061F307139370254B1B78DC077FF5B3AE9D
:1047F000917809092A48E0E68B78002B3FF4ABAEAC
:104800001D4A937813F0F00F3FF4A5AEC3F30311E4
:104810000F3101F00F0161F307139370174B1B78F1
:10482000D8077FF598AEE5E7134C8D78A178134E45
:1048300001F00F017DB11B4A134804F04EF83378A4
:10484000D9077FF588AEA178164A174801F00F0105
:10485000FFF728F87FE62A460B4804F03EF8337845
:10486000DB077FF578AEA1780F48002201F00F0139
:10487000FFF718F88EE600BFC0300020721300204A
:10488000FCCD00080ECE0008043100201FCE000829
:1048900033CE000844CE00086BCE000879CE000865
:1048A00089CE000800E0FFFFA6CE000870B51C4CC2
:1048B0001C481D4E04F08FF9208803F088F9B27867
:1048C000B0EB121F23D3194D03F07CF995F900309A
:1048D0002080E3B1164B174C1B7813F0010F03D067
:1048E00021781548FEF7DEFFB17823780D480122C4
:1048F00001F00F0103F0C4FF95F90020002A07DA48
:1049000021785342994203DA002323702B7070BD43
:1049100023781344DBB21A0648BF7F232370F6E7DF
:104920009013002004310020C03000208F1300209D
:10493000721300208E1300206CCD0008024B1B78F0
:104940000BB1FFF733B8704723140020FE288CBF4B
:1049500000200120704708B5FFF7F8FF08BD0000F0
:1049600008B5FFF7EBFF044B044800221A7008213A
:10497000BDE80840FFF790B823140020580E00202F
:10498000034B0448002208211A70FFF785B800BFC6
:1049900022140020340D002010B5FFF7CFFF084A85
:1049A00008481378013303F003031370282404FB31
:1049B000030000220521BDE81040FFF76DB800BFDD
:1049C000B40D0020B80D0020F8B5174B1B788BB143
:1049D000164C208840B903F0F5F82080144C154D92
:1049E000227842B1531E08E003F0F1F8124B1B8805
:1049F0008342F0D3F8BD2B78013B104E317849B19A
:104A00000F49C85C8F5CFEF7CAFF337813B1384694
:104A1000FEF7BEFF237829780133B3FBF1F201FBE7
:104A200012332370E6E700BF351400203A1400204B
:104A30003614002034140020DC0E00202314002043
:104A4000241400207047000008B5054B05480122DA
:104A50001A7008210022FFF71FF8FFF7F3FF08BDC7
:104A6000231400209C0E00207047000008B5054B61
:104A7000054801221A7008210022FFF70DF8FFF700
:104A8000F3FF08BD22140020740D00202DE9F04131
:104A900045F6264398428AB0054606D18B78002B0E
:104AA0003ED0FFF7D1FF002053E045F62743984260
:104AB00005D18B78002B33D0FFF752FFF3E745F693
:104AC0002843984206D15F4B8A781B7842B3002B6B
:104AD000F2D1E6E745F62C43984204D18B78FBB13E
:104AE000FFF7C4FFDFE745F62D43984204D18B78EA
:104AF000B3B1FFF745FFD6E745F62E43984206D1FE
:104B00008B786BB1504B1B78002BF2D1E8E745F660
:104B10002943984204D18B7813B1FFF73DFFC2E7D8
:104B2000484B1E7826B9484B1B78002B00F0878035
:104B30008F78002F3DD0E02D0ED1FFF7FFFE434BC5
:104B400001221A70424B00201870424B1870424BE1
:104B500018700AB0BDE8F081E22D0BD1FFF7EEFE30
:104B60003A4B1A7812B13A4A01211170002018709C
:104B7000384BEDE7E32D0FD1354B1B78CBB1FFF769
:104B8000DDFE324B00201870324B01221A70334B7D
:104B90001870334B1880DCE7522D04D1314A13884A
:104BA0000A3B13807FE7512D03D12E4A13880A3325
:104BB000F7E74B780A782C49062000FB031313F81B
:104BC00002802A4B1C782A4B1B6824341C44294B36
:104BD0001B78E4B2B3B94444E4B257B316B12046EB
:104BE000FEF7D6FE194B1B782BB11B4A22491378CE
:104BF000CC54013313702846FFF7ADFE80F001005E
:104C0000C0B2A6E723221D4901A807F0A7FC07238D
:104C1000B8FBF3F303EB4302C3EBC30304EB8204DF
:104C2000A8EB03030AAA52FA83F313F8243C1C44AA
:104C3000D2E7002EDFD02046FEF7B1FEDBE70120F1
:104C400087E700BF2314002022140020381400201E
:104C500037140020351400203414002036140020AE
:104C60003A140020DC0E0020F6C50008DE0E0020FD
:104C7000980E0020B40D002024140020ABC50008BD
:104C8000164B1B78D90707D5154B187840007F289D
:104C900020D808B3C0B270479A0703D5104B1878D4
:104CA0008000F4E75B0703D50D4B1878C000EEE7F2
:104CB0000C4B1B7863B10C4A09491278087893426F
:104CC000F4D210FB03F0C000B0FBF2F080B2DEE7DC
:104CD0000820DFE77F20704701207047461400203E
:104CE000E10E002047140020E20E0020154B1B7837
:104CF000D90705D5144B1878800800B3C0B27047A7
:104D00009A0703D5104B18784008F6E75B0705D5DE
:104D10000D4B18787F28F0D97F2070470B4B1B78FC
:104D20005BB10B4A084912780878934236BF10FBF2
:104D300003F080B2B0FBF2F0ECE70120DEE70120E7
:104D4000704700BF46140020E50E002048140020E4
:104D5000E60E0020ED2808B505D1FFF791FF40428F
:104D6000294BD87008BDEE2802D1FFF789FFF7E77D
:104D7000EF2805D1FFF784FF4042234B9870F1E7FD
:104D8000F02802D1FFF77CFFF7E7F92804D1FFF7FD
:104D9000ADFF1D4B1871E5E7FA2803D1FFF7A6FF19
:104DA0004042F6E7FB2805D1FFF7A0FF4042164B33
:104DB0005871D7E7FC2802D1FFF798FFF7E700F119
:104DC0000F03DBB2072B08D80F4A0123F13803FA8F
:104DD00000F0537818435070C4E7FD2805D10B4A02
:104DE000137843F001031370BCE7FE2804D1074A8F
:104DF000137843F00203F6E7FF28B3D1034A137890
:104E000043F00403EFE700BF4014002046140020E5
:104E1000364BED2893F902200AD193F903100029AB
:104E20000CDA0021D97052B9314A0021117006E024
:104E3000EE280DD193F903100029F2DC72B11A7932
:104E40005B7913435BB2002B4FD12A4A1370704732
:104E5000EF2806D1002AF1DA00229A7093F9032094
:104E6000E1E7F02802D1002AF6DCE7E7F92893F918
:104E7000041004D10029E1DD00211971DEE7FA28D0
:104E800002D10029DADAF7E7FB2893F9051004D1FB
:104E90000029D3DA00215971D0E7FC2802D100297A
:104EA000F8DCCBE700F10F01C9B2072907D8F138C8
:104EB00001218140587820EA01005870BEE7FD28A2
:104EC00005D10D48017821F001010170B6E7FE28F7
:104ED00004D10948017821F00201F6E7FF28ADD19D
:104EE0000548017821F00401EFE7704740140020E5
:104EF0004714002048140020461400202A4B1B7839
:104F000013F0080F10B5294C39D02948FEF7CAFC18
:104F100061782848FEF7C6FC2748FEF7C3FC94F9E1
:104F200002102648FEF7BEFC2548FEF7BBFC94F9AC
:104F300003102248FEF7B6FC2148FEF7B3FC94F9B3
:104F400004101E48FEF7AEFC1D48FEF7ABFC94F9BA
:104F500005101A48FEF7A6FC1A48FEF7A3FC1A4BE8
:104F60001A481978FEF79EFC1948FEF79BFC194B6E
:104F700016481978FEF796FC1748FEF793FC02F0E6
:104F800021FEE378A278134318BF144B227918BF8F
:104F900018806379134318BF114BBDE8104018BF48
:104FA0001880024802F09CBC7213002040140020BC
:104FB000CBCE0008BEC80008EECE0008F0CE000838
:104FC000A0D70008F3CE000847140020F6CE000852
:104FD000F9CE000846140020FBCE00083C14002047
:104FE0003E1400202DE9F047564C94F9028094F9C4
:104FF000037094F9046094F9055094F800A094F8B3
:1050000001900023A370E3702371637158EA0703D2
:105010000AD04D4B188802F0DAFD4C490B783BB3AF
:105020004B4A127890422DDC56EA05030BD0494BCF
:10503000188802F0CCFD48490B78002B4ED0474A27
:105040001278904254DCE278A37813432279134318
:105050006279134301D0FFF751FF84F800A084F870
:10506000019084F80280E77026716571BDE8F087D1
:105070003B4A127802EB8202B0EB420FD4DD0133DF
:105080000B7001E0FF2BFAD1B8F1000F08D0FFF749
:10509000F7FDB8F1000FCCBF0123FF235843A070E8
:1050A0003FB1FFF7EDFD002FCCBF0123FF23584395
:1050B000E07094F90220002AB6D094F90310002978
:1050C000B2D0B5235A43121203FB01F308BF0122E9
:1050D0001B1208BF0123A270E370A5E7214A1278D2
:1050E00002EB8202B0EB420FADDD01330B7001E049
:1050F000FF2BFAD13EB1FFF7F9FD002ECCBF012303
:10510000FF23584320713DB1FFF7F0FD002DCCBFC8
:105110000123FF235843607194F90420002A92D0A0
:1051200094F9051000298ED0B5235A43121203FBBF
:1051300001F308BF01221B1208BF01232271637112
:1051400081E700BF401400203C14002047140020D9
:10515000E00E00203E14002048140020E40E002041
:10516000DF0E0020E30E002008B5062200210548CE
:1051700007F002FA044A00231370044A1370044A29
:10518000137008BD4014002047140020481400206C
:105190004614002007B50023014601220DF1070047
:1051A0008DF8073000F00AFA9DF8070003B05DF8AB
:1051B00004FB07B50023014602220DF10600ADF8FD
:1051C000063000F0FBF9BDF8060003B05DF804FB03
:1051D00007B50422002301460DEB0200019300F005
:1051E000EDF9019803B05DF804FB07B501228DF8D5
:1051F000071001460DF1070000F014FA03B05DF846
:1052000004FB07B50222ADF8061001460DF10600B9
:1052100000F008FA03B05DF804FB07B50422019121
:1052200001460DEB020000F0FDF903B05DF804FB50
:1052300038B50C460546FFF7ADFFA04205D0214624
:105240002846BDE83840FFF7D0BF38BD38B50C461A
:105250000546FFF7AEFFA04205D021462846BDE82F
:105260003840FFF7CEBF38BD38B50C460546FFF7CE
:10527000AFFFA04205D021462846BDE83840FFF7E1
:10528000CCBF38BD10B500F085FA094C094800F0D4
:1052900039FA094800F036FA204600F033FA074898
:1052A00000F030FA00F084FA054B1C6010BD00BF1E
:1052B00000F0030800E0030800E8030800F8030812
:1052C0004C24002038B54FF6FE73034003F100650F
:1052D00005F578354FF6FF712A888A4210D10A49C0
:1052E0005C5AE443A4B294420CD000F053FA214635
:1052F000284600F029FA044600F05AFA204638BD44
:105300000024FBE70524F9E74A140020F8B5FFF76D
:10531000B9FF00F03FFA0B4E0B4C0C4F052536F849
:10532000021B39B1C94389B2204600F00DFA0528A5
:1053300018BF05460234BC42F1D100F039FA2846C4
:10534000F8BD00BF4A14002000E0030800F0030885
:10535000F8B51C4B1C4FC65A3A68012E9ABF1B4D1C
:1053600002230423C3F1006394BF45EA4635803825
:1053700003F5802392BFADB280B24FF460459A42EC
:1053800003D9BDE8F840FFF7C1BF45EA500400F07B
:1053900001FA38682146831C3B6000F0D5F9B5F569
:1053A000604F044609D13868F143831C89B23B60E1
:1053B00000F0CAF9052818BF044600F0F9F92046A4
:1053C000F8BD00BF4A1400204C2400200080FFFFDD
:1053D00038B50D4C0D4B22689A42054603D9BDE8FD
:1053E0003840FFF793BF00F0D5F9094B2068E95C1E
:1053F00041EA0521831C89B2236000F0A5F9044627
:1054000000F0D6F9204638BD4C240020FFFF0308E9
:105410004A1400201F4B204A2048F0B51D4632F8A0
:10542000021BC943824223F8021BF8D11C4C4FF6E1
:10543000FF7743F6FE761388BB4206D0180409D4E2
:10544000190A6B540232A242F5D9164B4FF4805020
:105450001A60F0BD03F4C041B1F5C04F0FD1901CEC
:10546000A04215D85188C94389B279B106EA4303ED
:1054700080330246B3F5805FE4D2E952E2E7590493
:10548000E0D4C3F3403106EA4303F3E70246D9E729
:105490000246DAE74A14002000E0030800F003089F
:1054A000FFFF03084C24002008B5FFF7EBFEBDE822
:1054B0000840FFF7AFBF0000B0F5805F10B50446AD
:1054C00014D20C4BC25C8A4212D0C154FFF7FAFED0
:1054D00068B97F2C04D82046BDE81040FFF778BF9C
:1054E00024F00100BDE81040FFF732BF072010BDD7
:1054F0000020FCE74A140020B0F5805FF8B50446B0
:105500000E4634D210F001050DD0C9B2FFF7D4FF1A
:105510000546601C310A80B2FFF7CEFF052818BF90
:1055200005462846F8BD134BC75AB942F9D0E15297
:10553000FFF7C8FE05460028F3D17F2C12D8FBB236
:10554000F2B293420CD02046FFF742FF0546360ADE
:10555000B6EB172FE5D0601C80B2FFF739FFDDE70F
:105560000525F4E72046BDE8F840FFF7F1BE072522
:10557000D7E700BF4A140020B0F5805F3ABF024B66
:10558000C05CFF20704700BF4A14002040F6FE7345
:1055900098420AD8064BC20741BF5A1C825CC05CC5
:1055A00040EA022058BFC05A70474FF6FF7070475C
:1055B0004A140020FFF72EBFFFF776BF2DE9F8430E
:1055C000044615464AB1CB0707D588B24A1CFFF7F7
:1055D000D3FF04F8010B013D11466F0804F00109E7
:1055E000A61C01EB470841450BD16FF0010202FBFD
:1055F000075222B188B2FFF7BFFF04F81700BDE8D9
:10560000F88388B2FFF7C2FFB9F1000F04D126F882
:10561000020C02310236E6E706F8020C000A06F830
:10562000010CF6E72DE9F04705460C4616464AB14F
:10563000CB0707D54F1CA0B215F8011BFFF73CFFA5
:10564000013E3C464FEA560805F0010AAF1C04EB48
:1056500048094C450BD16FF0010202FB0862C2B150
:1056600015F81810A0B2BDE8F047FFF725BFBAF152
:10567000000F07D137F8021CA0B2FFF73DFF02343C
:105680000237E6E717F8013C17F8021C41EA03214C
:10569000F2E7BDE8F08700000B4BDA68D2070CD4C4
:1056A000DA6851070BD4DA68D2060AD4DB6813F043
:1056B000010F0CBF05200420704701207047022015
:1056C00070470320704700BF0020024073B50446B6
:1056D000FFF7E2FF0025FF2601280FD114B90620AD
:1056E00002B070BD01950196019B1BB9FFF7D4FF75
:1056F000013CF1E7019B013B0193F5E7002C08BF5A
:105700000620EDE738B5054640F6FF70FFF7DEFFEF
:10571000052815D10B4C236943F002032361656111
:10572000236943F04003236140F6FF70FFF7CEFF8B
:1057300006281EBF236923F0020323613423E3609C
:1057400038BD00BF00200240104B00F178429A4261
:1057500070B505460E4616D81F20FFF7B7FF05287F
:1057600010D10B4C236943F0010323611F202E80CD
:10577000FFF7ACFF06281EBF236923F00103236156
:105780003423E36070BD0720FCE700BFFEFF070085
:1057900000200240044B1A69120641BF034A5A60B6
:1057A00002F188325A6070470020024023016745A9
:1057B000024A136943F080031361704700200240DE
:1057C00030B585B0C0F307220190C0F30740BAB9E5
:1057D00009B1314B185C8DF80C008DF80D008DF877
:1057E0000E009DF80C30002063F307009DF80D308B
:1057F00063F30F209DF80E3063F3174005B030BD02
:105800009DF8043071B32449085C03EB4304FF2185
:105810006400B4FBF1F46FF05401614301EB430108
:1058200001EB4101C9B212FB01F3C1F1FF01C2F169
:10583000FF054A431B121212C3F1FF03C2F1FF021C
:10584000454343434243C5F30725C3F30723C2F34C
:105850000722C0B2062C19D8DFE804F00608110FA1
:105860001418060080B2D0E7034610468DF80C00ED
:105870008DF80D308DF80E50B3E7024618462B46D2
:105880001546F3E7134602462846F9E7024628463E
:105890001D461346EAE700BF5CD3000884B001212F
:1058A00004B0FFF78DBF704784B004B0FFF7F6BFB8
:1058B00013B58DF802208DF800008DF801100098C6
:1058C0001C46FFF7F1FFC0F30743C0F307226270E5
:1058D0002070A37002B010BD064A137813F0FE0FBB
:1058E00004D1012161F3470313707047492BFCD9A0
:1058F0002421F7E7C43000200820FFF769BC08B571
:10590000FFF7EAFFBDE8084001460820FFF7ACBCFE
:10591000034B0448186000221A71FFF7F0BF00BF64
:10592000C43000200300FFFF38B51C4C2378D90792
:1059300032D51B48FDF7B6FF2378DA072CD5194D71
:105940001948297801F00101FDF7ACFF2378DB0746
:1059500022D5297815484908FDF7A4FF2378D807F0
:105960001AD569781248FDF79DFF2378D90713D51A
:10597000A9781048FDF796FF2378DA070CD5E97867
:105980000D48FDF78FFF2378DB0705D529790B48F4
:10599000BDE83840FDF786BF38BD00BF7213002058
:1059A00015CF0008C43000202ECF00084BCF0008D0
:1059B00066CF000880CF00089ACF0008B4CF000857
:1059C000034B1B7813F0010018BF5808704700BF45
:1059D000C4300020054B1A79022A9CBF01321A718B
:1059E00010B11868FFF78BBF704700BFC4300020AC
:1059F0000120FFF7EFBF0000044B1A790AB1013A0A
:105A00001A7110B11868FFF77ABF7047C4300020D0
:105A10000120FFF7F1BF00F07FBE0000104B1148DE
:105A20001B7870B5104D13F00103697806D02B7800
:105A300003EB43031844FFF7EEFF70BDAA78EE783E
:105A400002EB42040444964204F10304EFD901320C
:105A500004F8023C04F8033C04F8013CD2B2F2E73B
:105A6000C4300020CC300020EA0E00200E4B1B7802
:105A7000DB0770B416D50D4C0D4EA378E57803EB1B
:105A800043043444AB4204F1030402D370BCFFF777
:105A9000C5BF013304F8020C04F8031C04F8012C00
:105AA000DBB2EFE770BC7047C4300020EA0E002084
:105AB000CC300020094B1B78DB0707B50AD501ABBA
:105AC000FFF7F6FE9DF806209DF804109DF80500EE
:105AD000FFF7CCFF03B05DF804FB00BFC43000202B
