:020000040800F2
:1000000000040020C1020008C3020008C302000867
:10001000C3020008C3020008C3020008C3020008AC
:10002000C3020008C3020008C30200088586000856
:10003000C3020008C3020008C3020008C30200088C
:10004000C3020008C3020008C3020008C30200087C
:10005000C3020008C3020008C3020008C30200086C
:10006000C3020008C3020008C30200082998000860
:100070003D98000851980008659800087998000894
:100080008D980008A1980008C3020008C302000868
:10009000C3020008C3020008C3020008C30200082C
:1000A000CD920008D1920008D5920008D99200089C
:1000B000E19E0008A19C0008C3020008699A00089C
:1000C000759B0008C3020008C3020008C3020008B1
:1000D000C3020008C3020008C3020008C3020008EC
:1000E000C3020008C3020008C3020008C3020008DC
:1000F000559E0008C3020008C3020008C30200089E
:10010000C3020008C3020008C3020008C3020008BB
:10011000C3020008C30200082D9E0008419E00088B
:10012000B5980008C9980008DD980008F198000803
:1001300005990008C3020008C3020008C3020008B2
:10014000C3020008C3020008C3020008C30200087B
:10015000C3020008C3020008C3020008C30200086B
:10016000C3020008C3020008C3020008359F00084C
:10017000C3020008C3020008C3020008C30200084B
:10018000C3020008C3020008C3020008C30200083B
:10019000C3020008C3020008C3020008C30200082B
:1001A00072B6394880F30888384880F3098838489F
:1001B0004EF60851CEF20001086040F20000CCF289
:1001C00000004EF63471CEF200010860BFF34F8F8D
:1001D000BFF36F8F40F20000C0F2F0004EF688517E
:1001E000CEF200010860BFF34F8FBFF36F8F4FF067
:1001F0000000E1EE100A4EF63C71CEF200010860FC
:10020000062080F31488BFF36F8F07F071FF07F0AB
:10021000F5F94FF055301F491B4A91423CBF41F858
:10022000040BFAE71C49194A91423CBF41F8040B00
:10023000FAE71A491A4A1B4B9A423EBF51F8040B7F
:1002400042F8040BF8E700201749184A91423CBFD6
:1002500041F8040BFAE707F04FFF07F04AFF144C90
:10026000144DAC4203DA54F8041B8847F9E703F055
:100270001FFA114C114DAC4203DA54F8041B8847A5
:10028000F9E707F037BF000000040020000C002051
:1002900000000008000000200004002048C60008FC
:1002A000000C0020A4120020A8120020542E0020D0
:1002B000A0010008A0010008A0010008A00100089A
:1002C0006EE700F000F8FEE72DE9F04F2DED108A03
:1002D000C1F80CD0C3689D46BDEC108ABDE8F08F14
:1002E000002383F311882846A047002008F042F934
:1002F000FEE708F0FAF800DFFEE7000081F00041B9
:1003000002E000BF83F0004330B54FEA41044FEAFA
:10031000430594EA050F08BF90EA020F1FBF54EA95
:10032000000C55EA020C7FEA645C7FEA655C00F031
:10033000E2804FEA5454D4EB5555B8BF6D420CDD02
:100340002C4480EA020281EA030382EA000083EA85
:10035000010180EA020281EA0303362D88BF30BD25
:1003600011F0004F4FEA01314FF4801C4CEA11317B
:1003700002D0404261EB410113F0004F4FEA0333DA
:100380004CEA133302D0524263EB430394EA050F65
:1003900000F0A780A4F10104D5F1200E0DDB02FAD4
:1003A0000EFC22FA05F2801841F1000103FA0EF268
:1003B000801843FA05F359410EE0A5F120050EF12E
:1003C000200E012A03FA0EFC28BF4CF0020C43FA5F
:1003D00005F3C01851EBE37101F0004507D54FF06C
:1003E000000EDCF1000C7EEB00006EEB0101B1F5BC
:1003F000801F1BD3B1F5001F0CD349085FEA300002
:100400004FEA3C0C04F101044FEA445212F5800F0C
:1004100080F09A80BCF1004F08BF5FEA500C50F1A9
:10042000000041EB045141EA050130BD5FEA4C0C8C
:10043000404141EB010111F4801FA4F10104E9D115
:1004400091F0000F04BF01460020B1FA81F308BF0C
:100450002033A3F10B03B3F120020CDA0C3208DDD8
:1004600002F1140CC2F10C0201FA0CF021FA02F1B3
:100470000CE002F11402D8BFC2F1200C01FA02F123
:1004800020FA0CFCDCBF41EA0C019040E41AA2BF48
:1004900001EB0451294330BD6FEA04041F3C1CDA10
:1004A0000C340EDC04F11404C4F1200220FA04F030
:1004B00001FA02F340EA030021FA04F345EA0301DA
:1004C00030BDC4F10C04C4F1200220FA02F001FA9C
:1004D00004F340EA0300294630BD21FA04F029461E
:1004E00030BD94F0000F83F4801306BF81F48011B7
:1004F0000134013D4EE77FEA645C18BF7FEA655C2A
:1005000029D094EA050F08BF90EA020F05D054EAFB
:10051000000C04BF1946104630BD91EA030F1EBF00
:100520000021002030BD5FEA545C05D14000494104
:1005300028BF41F0004130BD14F580043CBF01F5F7
:10054000801130BD01F0004545F0FE4141F47001DD
:100550004FF0000030BD7FEA645C1ABF19461046B8
:100560007FEA655C1CBF0B46024650EA013406BFB9
:1005700052EA033591EA030F41F4002130BD00BF78
:1005800090F0000F04BF0021704730B54FF4806435
:1005900004F132044FF000054FF0000150E700BFB6
:1005A00090F0000F04BF0021704730B54FF4806415
:1005B00004F1320410F0004548BF40424FF0000102
:1005C0003EE700BF42004FEAE2014FEA31014FEA45
:1005D00002701FBF12F07F4393F07F4F81F0605194
:1005E000704732F07F4208BF704793F07F4F04BFDF
:1005F00041F40021704730B54FF4607401F00045BC
:1006000021F000411CE700BF50EA010208BF70471B
:1006100030B54FF000050AE050EA010208BF70470C
:1006200030B511F0004502D5404261EB41014FF475
:10063000806404F132045FEA915C3FF4D8AE4FF07D
:1006400003025FEADC0C18BF03325FEADC0C18BF60
:10065000033202EBDC02C2F1200300FA03FC20FAB1
:1006600002F001FA03FE40EA0E0021FA02F11444FE
:10067000BDE600BF70B54FF0FF0C4CF4E06C1CEA17
:1006800011541DBF1CEA135594EA0C0F95EA0C0F88
:1006900000F0DEF82C4481EA030621EA4C5123EAFB
:1006A0004C5350EA013518BF52EA033541F480112A
:1006B00043F4801338D0A0FB02CE4FF00005E1FBDD
:1006C00002E506F00042E0FB03E54FF00006E1FB27
:1006D00003569CF0000F18BF4EF0010EA4F1FF046A
:1006E000B6F5007F64F5407404D25FEA4E0E6D41AA
:1006F00046EB060642EAC62141EA55514FEAC520BB
:1007000040EA5E504FEACE2EB4F1FD0C88BFBCF536
:10071000E06F1ED8BEF1004F08BF5FEA500E50F1E7
:10072000000041EB045170BD06F0004646EA0101AD
:1007300040EA020081EA0301B4EB5C04C2BFD4EBDF
:100740000C0541EA045170BD41F480114FF0000ED8
:10075000013C00F3AB8014F1360FDEBF002001F046
:10076000004170BDC4F10004203C35DA0C341BDCC0
:1007700004F11404C4F1200500FA05F320FA04F092
:1007800001FA05F240EA020001F0004221F00041C6
:1007900010EBD37021FA04F642EB06015EEA430E39
:1007A00008BF20EAD37070BDC4F10C04C4F1200569
:1007B00000FA04F320FA05F001FA04F240EA02001C
:1007C00001F0004110EBD37041F100015EEA430EED
:1007D00008BF20EAD37070BDC4F1200500FA05F20D
:1007E0004EEA020E20FA04F301FA05F243EA02038C
:1007F00021FA04F001F0004121FA04F220EA02009B
:1008000000EBD3705EEA430E08BF20EAD37070BDE0
:1008100094F0000F0FD101F00046400041EB0101C0
:1008200011F4801F08BF013CF7D041EA060195F0A2
:10083000000F18BF704703F00046520043EB03035C
:1008400013F4801F08BF013DF7D043EA0603704749
:1008500094EA0C0F0CEA135518BF95EA0C0F0CD054
:1008600050EA410618BF52EA4306D1D181EA03019A
:1008700001F000414FF0000070BD50EA410606BF94
:100880001046194652EA430619D094EA0C0F02D1D9
:1008900050EA013613D195EA0C0F05D152EA03361E
:1008A0001CBF104619460AD181EA030101F000413C
:1008B00041F0FE4141F470014FF0000070BD41F085
:1008C000FE4141F4780170BD70B54FF0FF0C4CF45F
:1008D000E06C1CEA11541DBF1CEA135594EA0C0F7E
:1008E00095EA0C0F00F0A7F8A4EB050481EA030ECB
:1008F00052EA03354FEA013100F088804FEA0333B2
:100900004FF0805545EA131343EA12634FEA02227F
:1009100045EA111545EA10654FEA00260EF0004140
:100920009D4208BF964244F1FD0404F5407402D292
:100930005B084FEA3202B61A65EB03055B084FEA23
:1009400032024FF480104FF4002CB6EB020E75EB20
:10095000030E22BFB61A754640EA0C005B084FEA48
:100960003202B6EB020E75EB030E22BFB61A7546C5
:1009700040EA5C005B084FEA3202B6EB020E75EB10
:10098000030E22BFB61A754640EA9C005B084FEA88
:100990003202B6EB020E75EB030E22BFB61A754695
:1009A00040EADC0055EA060E18D04FEA051545EA84
:1009B00016754FEA06164FEAC30343EA52734FEA2D
:1009C000C2025FEA1C1CC0D111F4801F0BD141EAA6
:1009D00000014FF000004FF0004CB6E711F4801F0B
:1009E00004BF01430020B4F1FD0C88BFBCF5E06FEB
:1009F0003FF6AFAEB5EB030C04BFB6EB020C5FEAFB
:100A0000500C50F1000041EB045170BD0EF0004E4F
:100A10004EEA113114EB5C04C2BFD4EB0C0541EA81
:100A2000045170BD41F480114FF0000E013C90E67E
:100A300045EA060E8DE60CEA135594EA0C0F08BF42
:100A400095EA0C0F3FF43BAF94EA0C0F0AD150EA41
:100A500001347FF434AF95EA0C0F7FF425AF1046D4
:100A600019462CE795EA0C0F06D152EA03353FF4FC
:100A7000FDAE1046194622E750EA410618BF52EA79
:100A800043067FF4C5AE50EA41047FF40DAF52EA4D
:100A900043057FF4EBAE12E74FF0FF3C06E000BFEA
:100AA0004FF0010C02E000BF4FF0010C4DF804CDF7
:100AB0004FEA410C7FEA6C5C4FEA430C18BF7FEAB7
:100AC0006C5C1BD001B050EA410C0CBF52EA430CE5
:100AD00091EA030F02BF90EA020F0020704710F165
:100AE000000F91EA030F58BF994208BF90422CBFF4
:100AF000D8176FEAE37040F0010070474FEA410CED
:100B00007FEA6C5C02D150EA013C07D14FEA430C0A
:100B10007FEA6C5CD6D152EA033CD3D05DF8040B7B
:100B2000704700BF8446104662468C4619466346AD
:100B300000E000BF01B5FFF7B7FF002848BF10F184
:100B4000000F01BD4DF808EDFFF7F4FF0CBF0120C9
:100B500000205DF808FB00BF4DF808EDFFF7EAFF45
:100B600034BF012000205DF808FB00BF4DF808ED00
:100B7000FFF7E0FF94BF012000205DF808FB00BFF5
:100B80004DF808EDFFF7CEFF94BF012000205DF87F
:100B900008FB00BF4DF808EDFFF7C4FF34BF01208C
:100BA00000205DF808FB00BF4FEA410C7FEA6C5C57
:100BB00002D150EA013C0AD14FEA430C7FEA6C5C57
:100BC00002D152EA033C02D14FF0000070474FF0CF
:100BD000010070474FEA4102B2F1E04324BFB3F590
:100BE000001CDCF1FE5C0DD901F0004C4FEAC002A4
:100BF0004CEA5070B2F1004F40EB830008BF20F088
:100C00000100704711F0804F21D113F13872BCBF41
:100C100001F00040704741F480114FEA5252C2F196
:100C20001802C2F1200C10FA0CF320FA02F018BFDF
:100C300040F001004FEAC1234FEAD32303FA0CFC32
:100C400040EA0C0023FA02F34FEA4303CCE77FEAC1
:100C5000625307D150EA01331EBF4FF0FE4040F40B
:100C60004000704701F0004040F0FE4040F40000BA
:100C7000704700BF53B94AB9002908BF00281CBFFC
:100C80004FF0FF314FF0FF3000F074B9ADF1080CB8
:100C90006DE904CE00F006F8DDF804E0DDE902239A
:100CA00004B070472DE9F047089E04468846002BA3
:100CB00040F085808A42154648D9B2FA82F24AB19C
:100CC000C2F1200701FA02F320FA07F7954047EA3C
:100CD000030894404FEA154E230CB8FBFEF71FFAA9
:100CE00085FC0EFB178843EA084307FB0CF1994289
:100CF00009D9EB1807F1FF3080F0E380994240F208
:100D0000E080023F2B445B1AA4B2B3FBFEF00EFB63
:100D1000103344EA034400FB0CFCA44509D92C1908
:100D200000F1FF3380F0CB80A44540F2C880023848
:100D30002C4440EA0740A4EB0C0400271EB1D44029
:100D40000023C6E900433946BDE8F087002A53D0A6
:100D5000B2FA82F2002A40F0B680491B4FEA154EE3
:100D60001FFA85F80127B1FBFEFC230C0EFB1C11BA
:100D700043EA014308FB0CF1994207D9EB180CF147
:100D8000FF3002D2994200F2EC808446591AA3B295
:100D9000B1FBFEF00EFB101443EA044408FB00F81C
:100DA000A04507D92C1900F1FF3302D2A04500F26B
:100DB000DC801846A4EB080440EA0C40BEE78B42F6
:100DC00008D9002E78D00027C6E9000138463946F8
:100DD000BDE8F087B3FA83F77FB98B4202D3824232
:100DE00000F2BD80841A61EB030301209846002EB7
:100DF000A9D0C6E90048A6E7FFDEC7F12005BB4041
:100E000022FA05FC4CEA030C01FA07F420FA05F873
:100E100021FA05F34FEA1C4E48EA0404B3FBFEF93D
:100E2000210C0EFB19331FFA8CF841EA034309FB2E
:100E300008FA9A4502FA07F200FA07F10BD91CEBFF
:100E4000030309F1FF3080F088809A4540F28580E5
:100E5000A9F102096344A3EB0A03A4B2B3FBFEF0B9
:100E60000EFB103344EA034400FB08F8A04508D900
:100E70001CEB040400F1FF336BD2A04569D90238A2
:100E8000644440EA0940A4EB0804A0FB02894C45F5
:100E9000C6464B4654D351D0002E69D0B1EB0E025A
:100EA00064EB030404FA05F522FA07F3FC401D4342
:100EB000C6E90054002746E73746304643E7184660
:100EC00037E707461FE7C2F1200320FA03F79540F2
:100ED00001FA02F021FA03F34FEA154E3843010CF0
:100EE000B3FBFEF71FFA85F80EFB173341EA034107
:100EF00007FB08F38B4204FA02F407D9691807F1DB
:100F0000FF3C28D28B4226D9023F2944CB1A81B21A
:100F1000B3FBFEF00EFB103341EA034100FB08F384
:100F20008B4207D9691800F1FF3C10D28B420ED9D1
:100F300002382944C91A40EA074714E74145ABD2B1
:100F4000B8EB020E69EB0C0201381346A4E76046C9
:100F5000F0E7184695E76746D8E781467BE73846CD
:100F600045E7ACF1020C2B4410E702382C4421E792
:100F70003746E8E6704700BF704708B5FFF7FCFF4B
:100F800008BD08B500F0A2FB08BD000008B53A4B4B
:100F90001B78DB0702D5394802F052FE01224FF4DC
:100FA0000061374808F0B9FC01224FF480613448F1
:100FB00008F0B3FC01220421314808F0AEFC012204
:100FC00002212F4808F0A9FC012280214FF0904017
:100FD00008F0A3FC01221146294808F09EFC40229B
:100FE0004FF480614FF0904008F097FC40224FF49E
:100FF00000714FF0904008F090FC40224FF4807157
:101000004FF0904008F089FC40224FF400411C480A
:1010100008F083FC40224FF400511A4808F07DFC90
:1010200040224FF48041174808F077FC40224FF4EB
:101030000041144808F071FC402204214FF0904018
:1010400008F06BFC402208214FF0904008F065FC4E
:10105000402211464FF0904008F05FFC0A22002128
:1010600009480AF001FB0C22002108480AF0FCFAAA
:10107000BDE8084000F070BCC6130020C0B60008F0
:101080000004004800080048AC120020B6120020FE
:101090002DE9F04F634F644C87B0B84600264FF0FF
:1010A000010A254606F1FF39B9F1040F04D8DFE83B
:1010B00009F05D60626469004FF4006323830120DE
:1010C00007F05DFA4FF090435848D3F810E0D3F89A
:1010D00010B01969226901920269029202690392B1
:1010E000026904921A6905924FEA1B2B8909019A39
:1010F000D3F810C018690BF0020B01F00401CEF315
:10110000802E120B4BEA010141EA0E0102F0080E9B
:10111000029A41EA0E014FEA522E039A0EF0100E87
:1011200041EA0E0E510A049A01F020014EEA010E26
:10113000510A059A01F040014EEA010E510101F0F9
:1011400080014FEA4C1C4EEA010E0CF4807CC0007A
:101150004EEA0C0C00F400704CEA0000B9F1040FE8
:1011600013D8DFE809F0515456585B004FF4806300
:10117000A4E70423A2E70223A0E74FF090438022D4
:101180001A839CE7A4F818A099E74FF400636B83D7
:10119000B8F80030834208D0254BA8F8000083F847
:1011A00000A005F00BFE234B18800136062E08F137
:1011B00002087FF477AF1E4C2378FBB11D4B1888D3
:1011C00005F001FE052819D900211B4D8C4600228F
:1011D00005F801CB3E46104636F8023B0B4103F0C2
:1011E0000103834001301A430628D2B2F4D1013101
:1011F0000A2905F8012CEAD10023237000F0AEFB88
:10120000012007B0BDE8F08F4FF48063BFE70423EF
:10121000BDE70223BBE780225A83B9E7A5F81AA0ED
:10122000B6E700BFB61200200004004800080048DE
:10123000A8120020AA120020AC120020014B185C5A
:10124000704700BFAC1200202DE9F84F1A4C2378EC
:10125000D80702D5194802F0F3FC194FDFF868A04F
:10126000DFF86880DFF8689000252378D90703D578
:101270002946504602F0E4FC17F801BB002623780B
:101280004BFA06F2D20703F0010311D513B1484619
:1012900002F0D6FC0136062EF1D12378DB0702D509
:1012A000084802F0CDFC01350A2DDED1BDE8F88FEB
:1012B000002BEFD04046EBE7C6130020CDB6000868
:1012C000AC12002074C00008DCB60008E4B60008C8
:1012D000E2B60008082823D8DFE800F02D05070A49
:1012E0000F14191E200001207047144B1878704706
:1012F000134B187800F001007047114B1878C0F3B9
:10130000400070470E4B1878C0F3800070470C4BBC
:101310001878C0F3C00070470A4BEAE7094BEDE7C5
:101320000123093803FA00F0074B1B68184214BF69
:101330000120002070470020704700BFC21200202B
:10134000CC120020C3120020C81200202A490A78BB
:10135000F8B5002A33D1294C2078FFF7BBFF0746A8
:101360006078FFF7B7FF0646A078FFF7B3FF0546A2
:10137000E078FFF7AFFF224B3B4403EB460303EB60
:101380008503204D13F830402B782BB91E4E307852
:10139000013000F00300307001330320B3FBF0F0A4
:1013A00000EB40001B1A19482B700378013303F03F
:1013B0000F030370164B186804EB40041C600132E5
:1013C00002F001020A7013490878FFF783FF024612
:1013D0004878FFF77FFF04468878FFF77BFF80009F
:1013E00000EB44000244C878D2B2FFF773FF02EB6F
:1013F000C000C0B2F8BD00BFC2120020040C002023
:10140000080C0020C4120020C3120020CC120020BF
:10141000C8120020000C002038B50D4600F028F955
:10142000044670B10C4B186800F04CFB58B10A210F
:1014300025B1A92000F0D1FC2C4602E0AA2000F042
:10144000CCFC204638BD1DB14E2000F0D6FCF3E7A1
:101450004B2000F0D2FCF4E7DC12002010B50B4C5E
:101460006278042A0BD0052A0DD0032A04D101F09A
:10147000C7FC202000F0D2FC0023637010BD2820A0
:1014800000F0F0F9F8E7E520FAE700BF280C0020AB
:1014900045F6AD53984270B570D025D845F6A753A0
:1014A00098424AD00BD844F22C13984200F0C980DD
:1014B00044F22C23984200F0B98001244DE045F617
:1014C000AB5398424BD053D845F6AA539842F4D127
:1014D0008C78002C41D0052000F0D2FF02F03EFCB9
:1014E000002204215A4835E045F6B053984252D0C4
:1014F0000CD845F6AE53984245D045F6AF539842C6
:10150000DBD18B7893B34FF4CF702CE045F6B25318
:1015100098426BD045D345F6B3539842CDD18C78E1
:10152000DCB14F2000F0B4F94FF48A6000F0B0F95C
:1015300040F24F4000F0ACF90EE08C786CB1052021
:1015400000F0A8FF002000F095FF02F007FC4148E2
:101550000022062102F06CFC0024204670BD8B782E
:1015600023B140F29F2005F035FAF5E70020FAE7B5
:101570008B78002BFAD040F22120F4E78B78002BF7
:10158000F4D0CF20EFE78B781BB19B2005F012FA47
:10159000E2E70020FAE78B78002BFAD04FF42870AE
:1015A000E1E72D4E8C7833782C4D44B113B90220ED
:1015B00000F070FF0120287000F062FFCDE7284C9A
:1015C0002BB101232370022000F064FF0BE022788E
:1015D0004AB10220237000F05DFF012000F05AFFA5
:1015E0003378002BEDD100232B7066E71B4E8C78EF
:1015F0003378194D3CB113B9012000F04BFF0123A2
:101600002B700220D8E7164C13B101202070DBE7C5
:101610002278002AE7D00120237000F03BFF02204F
:1016200000F038FF3378002BDDD0EEE78C780A4BE2
:1016300014B101221A7090E71C70022000F02AFFFA
:101640003BE78C78054B002CF3D11C700120F5E7AB
:101650005C0C00202C0C0020CF120020CE120020A9
:10166000CD12002046F22923C31A58425841704730
:10167000134B1B7810B50C46A3B1022000F0F2FE0C
:1016800040B1104A13781CB101331370012010BD12
:10169000013BFAE70C4A138814B101331380F5E7D4
:1016A000013BFBE731B14E2000F0B8FA4E2000F0CC
:1016B00037FBEBE74B2000F0B1FA4B20F7E700BF18
:1016C000D4120020240C0020260C002070B51B4AE8
:1016D0001B4C167823888AB0254646B3E3B92322EB
:1016E0001849194E01A809F0B1FFFFF72FFE0AAB08
:1016F0001844164B10F8244C1B7830781C44E4B284
:10170000A04209D002F0B0FA02F032FC204602F00A
:10171000ABFA02F00DFD34700D4A2B8811880133AD
:10172000B3FBF1F201FB12332B800AB070BD002B2A
:10173000FBD002F013FB2680F7E700BFD412002095
:10174000D212002078B60008D0120020240C00200D
:10175000260C00200378012B07D1837A6BB9C37A5A
:10176000002B0CBF022003207047022B07D1C37A45
:10177000002B14BF05200420704702207047012071
:101780007047000008B5FFF7E5FF0E4B58700238B0
:10179000032815D8DFE800F0020F070C2020BDE871
:1017A000084001F013BB2820BDE8084000F044B811
:1017B000282000F06DF8E520BDE8084000F02EBAC2
:1017C00008BD00BF280C0020A0F58073B3F5F85FBA
:1017D00010B526D210F4805F00F4007400F480731A
:1017E00000F4806100F400620DD0002B0CBF0020DB
:1017F00010200CB140F0200009B140F040000AB1C7
:1018000040F0800010BD181C18BF01200CB140F042
:10181000020009B140F00400002AF3D040F00800B3
:10182000F0E70020EEE710B50C46FFF7CDFF2346AA
:10183000BDE8104018470000A0F1E003072B10B5E9
:10184000044600D940B905492046FFF7ECFFE0B255
:10185000BDE8104000F0E2B90149F6E70B1E0008B0
:10186000E522000810B50446C0B200F059FAA4F110
:10187000E003072B00D92CB903492046BDE81040EE
:10188000FFF7D1BF0149F8E71D1E0008F722000845
:1018900010B50446FFF7D0FF392C03D14FF4487040
:1018A00006F06DFE2046FFF7DDFF10BD01207047FA
:1018B00008B5FFF7EDFD08BD704708B5FFF7FCFF61
:1018C00008BD000013B502AB03E903000F4B1B7802
:1018D000B3B99DF80230009873B16AB100F052FEBE
:1018E00004460146009800F005FE0099204602B02B
:1018F000BDE8104001F08CBD00F022FE0446F4E784
:10190000009800F03FFE0099F1E700BFD6120020DA
:101910000346008910B40A4640B95C881888998843
:1019200040EA04405DF8044BFFF7CCBF5DF8044B80
:10193000704710B501210446FFF7EAFF2146BDE8D4
:10194000104004F0DBBB10B500210446FFF7E0FFB8
:101950002146FFF7B2FF10BDFFF70FBBFFF711BB2A
:101960007047000010B500F0E7FC03F0B3F905F094
:1019700025FA002204460321094802F059FAFFF72C
:10198000EFFF204605F01FFAF92805D902F0E6F925
:10199000BDE8104005F01EBA0A2006F0F0FDF0E7A1
:1019A0009C0C002038B501210546FFF7B1FF294600
:1019B000044604F0F9FE29462046FFF779FF08B9EE
:1019C000002038BD2946204602F066FE0028F7D0E8
:1019D0002946204602F06EF90028F1D0294620461B
:1019E00003F020FA0028EBD02946204604F012FF2D
:1019F0000028E5D02946204604F04AFE0028DFD022
:101A00002946204604F0AEF80028D9D029462046C1
:101A100004F0BCFD0028D3D0AB785BB145F6DF43C2
:101A20009C422FD00AD8B4F5B84F16D045F60143E2
:101A30009C4215D02846FFF739FFC2E745F65C53B4
:101A40009C4225D045F65D539C421ED045F65B5323
:101A50009C42EFD101F0A6FAECE7FFF783FFAFE776
:101A60000D4A1078C0F3000383F0010363F3000014
:101A700010F00104107003D0084802F0E1F89FE76D
:101A80000748FAE701F028FB9AE701F07FFAD1E76F
:101A900001F08BFACEE700BFC6130020F8B90008AA
:101AA00009BA000808B505F0B8F800F039F8BDE843
:101AB000084002F053B908B500F037F8BDE8084017
:101AC00005F0B0B8030C002B16BF184600231023F6
:101AD000020A1CBF1046083302091EBF0433104619
:101AE000DBB282081EBF02331046DBB242081CBFC5
:101AF0000133DBB218467047704708B5FFF7FCFFAB
:101B000008BD0120704708B5FFF7FBFF08BD70470F
:101B100010B50446FFF7F1FF2046FFF7F4FF10BDB4
:101B200008B50020FFF7F4FF08BD08B504F0EEFE8D
:101B3000FFF7EEFF08BD000038B504F0E7FE104BDC
:101B40001A788242044619D00E4D18702B78580727
:101B500011D5D9070FD50C4802F072F82B78DA07A7
:101B600009D52146094802F06BF82B78DB0702D52E
:101B7000074802F065F82046FFF7CAFF38BD00BFEE
:101B8000D5120020C61300201BBA000826BA000890
:101B900074C0000810B586B06C4684E803009DF858
:101BA00002300BB101F0E2F80023ADF81230ADF8CD
:101BB0001430174B94E803005B7803905B07ADF893
:101BC00010100AD401F07EF810B1022001F09EF945
:101BD00001F058F808B101F013F9BDF81030BDF864
:101BE0000C20ADF8082003AC2BB994E8070000F0F6
:101BF000B7FF06B010BDBDF808204FF6FF739A423C
:101C0000F3D02046FFF795FE0028EED1F1E700BFA4
:101C1000AC290020008800F0D7BC000010B50446B5
:101C2000002876D0822813D104F070FE810770D48A
:101C3000392001F00BF801F0F3F84FF47A7006F058
:101C40009EFC392001F00AF8BDE8104001F0E8B828
:101C500083280ED104F05AFEC2075AD4532000F054
:101C6000F5FF01F0DDF84FF47A7006F088FC5320A0
:101C7000E8E784280ED104F049FE430749D4472001
:101C800000F0E4FF01F0CCF84FF47A7006F077FC36
:101C90004720D7E7031FDBB2A02B0ED81D4B014610
:101CA000186804F0C5FE20B1204600F0D7FF01F00F
:101CB000B7F8204600F0CAFFC6E700F12003DBB208
:101CC000072B07D800F007040120A040C0B201F0A4
:101CD00021F8B9E700F15B03DBB2022B05D80E4A0D
:101CE000BDE81040D05C04F065BE00F15803DBB2E3
:101CF000162B06D8094ABDE8104032F8130004F04C
:101D000069BEEC2805D903F0F7F9BDE8104003F0EF
:101D1000C7BA10BDB80C00202BBA00082EBA0008B4
:101D200008B5002858D082280FD104F0EFFD8107B4
:101D300052D5392000F08AFF01F072F8392000F006
:101D40008DFFBDE8084001F06BB883280AD104F08C
:101D5000DDFDC20740D5532000F078FF01F060F8A8
:101D60005320ECE784280AD104F0D0FD430733D593
:101D7000472000F06BFF01F053F84720DFE7021F18
:101D8000D2B2A02ADBD900F12002D2B2072A07D8AA
:101D900000F0070301209840C0B200F0C3FFD0E775
:101DA00000F15B02D2B2022A04D80020BDE808404C
:101DB00004F000BE00F15802D2B2162A04D8002066
:101DC000BDE8084004F006BEEC2805D903F0F2F99E
:101DD000BDE8084003F064BA08BD38B505460C46B6
:101DE000FFF71CFF1CB92846FFF79AFF38BD0A20F1
:101DF000013C06F0C4FBA4B2F4E708B539280CBFD7
:101E000050210021FFF7E9FF08BD08B528B100F017
:101E100081FFBDE8084001F003B808BD08B528B14E
:101E200000F080FFBDE8084000F0FABF08BD0000E8
:101E30002DE9F04790F80690857880460C4600F032
:101E400059FF4FEA19190746C0B12F46B5B1C4F37F
:101E5000072303F0F003402B04D004F12003DBB28E
:101E6000072B1DD9B44B5B78580719D4022001F019
:101E70004DF800F03FFF80F00100C7B2C4F3033318
:101E80000B2B43D8DFE813F00E000E006300630055
:101E9000E000F6004200420000015A016B016B01B4
:101EA0000027EBE7C4F30723C4F3032613F0F00F76
:101EB00018BF36015FFA84F9A5B166B109F12003B4
:101EC000DBB2072B304602D9B9F1000F07D100F081
:101ED00021FF00F0A5FF4846FFF7A0FE16E000F046
:101EE00035FFF6E74846FFF71BFF7EB109F12003F7
:101EF000DBB2072B304602D9B9F1000F02D100F056
:101F000011FF01E000F02AFF00F08AFFC4F3033460
:101F1000083C032C03D804F0F9FCFFF7F9FD002F6F
:101F200000F09A8100F0C6FE10F0010040F09481AC
:101F300088F8020000F0B6FE00F0A2FA404600F079
:101F4000A5F900F0AFFEBDE8F04700F0A3BAC4F376
:101F5000072303F0F003C4F30326202B5FFA84FA6F
:101F600018BF3601BAF1000F09D0BAF1010F51D0F4
:101F7000002D5AD0B9F1000F32D05046ACE76E4B6D
:101F80005B7859070FD53DB126B1304600F0C2FE4F
:101F900000F046FF00209FE72846FFF7C1FE002E15
:101FA000B4D03046ABE7EDB1B9F1000F06D100F087
:101FB000E3FE3043C0B2FFF728FFA7E7B9F1010FF6
:101FC00006D100F0D9FE3043C0B200F0FFFE9DE71D
:101FD000B9F1030FEBD100F013FF304600F0D8FE4B
:101FE0003046E8E7B9F1000F05D100F009FF3046AF
:101FF000FFF714FF8AE7B9F1010F06D100F084FE64
:10200000304283D000F0D0FEEFE7B9F1030F3FF488
:102010007DAFEAE725B1B9F1050F3FF677AFDFE70E
:10202000B9F1040F3FF672AFE1E7B9F1000FDED06E
:10203000BAF1390F0CBF4FF44870012006F09FFA37
:102040005046FFF76DFE61E7C4F3812343B1012BD6
:102050007FF45CAF65B1C4F3090004F0BBFC55E745
:1020600025B1C4F3090004F0A5FC4FE72846FAE7C0
:102070002846F2E7E0B225B103F03EF803F010F98C
:1020800044E703F097F8F9E714F4407F25D1002DD9
:102090007FF43CAFE206C4F3421048BF0F254FEA7D
:1020A000800048BF854004F00F03C4F3812248BF7D
:1020B000ED438340022A45EA030008D00AD8012AEA
:1020C00002D000F0A1F921E700F096F91EE700F038
:1020D000A3F91BE700F08DF918E7C4F30122D3B28E
:1020E000F5B102F00103002B3FF410AFC4F342102E
:1020F000830004F00F0000FA03F214F010001CBF7C
:102100000F209840C4F3812318BFC043022B40EA3C
:1021100002000AD00CD8012B04D000F0D9F9F5E662
:102120005B08E0E700F0CCF9F0E600F0D9F9EDE665
:1021300000F080F9EAE600BFAC2900205FFA84F9DC
:10214000C4F3032625B1304600F09AF9484632E739
:102150004846FFF763FE304600F09CF9D6E6E6B24B
:10216000A6F1F003042B5FD8DFE803F00325101776
:10217000200045B1B9F1040F3FF6C8AEC4F3042006
:1021800000F094F9C2E6B9F1050FF5E7C4F30420B5
:10219000002DE1D100F074F9B8E625B1C4F30420B4
:1021A00000F068F9B2E600F051F9AFE62B4B5E782B
:1021B00016F0040604D0C4F30420002DCCD0E9E7C7
:1021C000E5B100F059FD00F0ADFD00F073FD04280D
:1021D00007D100F08DFEC4F3042000F05BF9374610
:1021E00094E6B9F1020FFAD8C4F30425284600F0AA
:1021F00047F90321284600F05BFEF0E700F03CFDC4
:1022000000F088FDB9F1020F0AD900F071FE00F06C
:10221000CBFD0421C4F3042000F04AFE2F4675E6EE
:10222000012000F073FEF9E73DB1B9F1000F01D0D4
:10223000304651E6C4F30420ACE7B9F1000F08D0F2
:10224000392E0CBF4FF44870012006F098F9304643
:10225000F7E6C4F304207FE7BDE8F087AC2900204F
:1022600038B50446008960B101F01CF8054600F05D
:102270003FF900F0BDF829462046BDE83840FFF799
:10228000D7BD2188A07800F0ABF9EFE737B5858896
:1022900004460146022201A809F0D8F9F5B1BDF8BB
:1022A00004204FF6FF739A4218D02046FFF77AFBBE
:1022B00070B900F01FFD88B1A3787BB1084B5B7843
:1022C0005B070BD4022003B0BDE8304000F01EBE17
:1022D0002046FFF7C5FF2046FFF735FB03B030BDB2
:1022E000AC29002008B528B100F030FDBDE8084059
:1022F00000F096BD08BD08B528B100F02FFDBDE87F
:10230000084000F08DBD08BD08B5002004F052FB68
:10231000002004F05FFB00F029FD00F081FD03F0D8
:10232000F5F8BDE8084002F0BBBF08B500F09EFC20
:10233000BDE80840FFF7E8BF08B500F0FBFCBDE8CA
:102340000840FFF7F2BFC0F303320E3202F00F0273
:10235000092A10B5C4B21BD8012101FA02F340F2D8
:102360000332134203D113F010000DD110BDF02C35
:1023700010D004D8E72C8CBF00200120F6E7F42C05
:1023800014BF00200120F1E7E72C03D9F12CF7E777
:102390000020EBE70846E9E708B50346008928B1C5
:1023A00000F080FFBDE80840FFF7CDBF188800F0BF
:1023B0000BF9F7E782B002AB03E9030002B0704704
:1023C00084B004AB03E9070004B07047704708B558
:1023D000FFF7FCFF08BD000008B5FFF7F8FF034B4F
:1023E0001860BDE80840FFF78FBF00BFD81200207B
:1023F0007047FFF7F1BF0000024B1B681843FFF75F
:10240000EBBF00BFD8120020024B1B681840FFF73B
:10241000E3BF00BFD8120020024B1B685840FFF7F3
:10242000DBBF00BFD8120020704708B5FFF7FCFFE4
:1024300008BD000008B5FFF7F8FF034B1860BDE8C2
:102440000840FFF761BF00BFDC1200200020FFF74B
:10245000F1BF18B9B1FA81F040097047C84000F0E7
:1024600001007047024B01461868FFF7F2BF00BF3A
:10247000DC120020012303FA00F0FFF7DBBF0000AD
:10248000012303FA00F0024B1B681843FFF7D2BF89
:10249000DC120020012303FA00F0034B1B6823EA3F
:1024A0000000FFF7C7BF00BFDC120020012303FAC2
:1024B00000F0024B1B685840FFF7BCBFDC12002045
:1024C000024B1B681843FFF7B5BF00BFDC120020AA
:1024D000024B1B681840FFF7ADBF00BFDC120020A5
:1024E000024B1B685840FFF7A5BF00BFDC1200205D
:1024F00070470000C0F3072303EB430337B500EB3D
:10250000430000F0FF0000F0070301229A40C008DA
:102510000A4B00EB8000D2B218440024057821FA5F
:1025200004F343F300036B40134001346B40052C6C
:1025300000F8013BF2D103B030BD00BFE012002033
:10254000C0F3072303EB430313B500EB430000F094
:10255000FF0000F007040A49C00800EB80000022D9
:102560000144104611F8013BE34003F0010393409E
:1025700001321843052AC0B2F4D102B010BD00BF29
:10258000E01200200E4B73B51E680E4BADF8040030
:102590001B681F241E4326FA04F3DB07E5B206D4AA
:1025A00014F1FF34F7D20025284602B070BD01991E
:1025B000284600F03FFF80B20128F1D0F4E700BFC9
:1025C000DC120020D812002007B5ADF804000198F5
:1025D000FFF7D8FF019903B05DF804EB00F02ABFC4
:1025E00013B5104BADF804101B782BB1019802B055
:1025F000BDE81040FFF7E8BF70B10198FFF7C2FFD8
:10260000044601460198FFF775FF0199204602B084
:10261000BDE8104000F00EBF0198FFF791FF04469F
:10262000F3E700BFD6120020F8B50E4B0E4E1C7813
:102630000E4D0A273378A34200D1F8BD07FB04F200
:10264000AB18A85AB3F802C09A88D98840EA0C405F
:1026500042EA014101341A89FFF7B2FE04F007048F
:10266000E8E700BF6313002062130020121300206C
:10267000074B10B49A885C881888D98840EA0440CF
:1026800042EA01415DF8044B1A89FFF799BE00BF89
:1026900008130020F0B50F4B0F4C1B7827780F4C18
:1026A0004FF00A0CBB4201D10020F0BD0CFB03F639
:1026B000A51995F801E08E4505D1A65D864202D1A7
:1026C000AD78954203D1013303F00703EAE7012017
:1026D000EBE700BF631300206213002012130020F9
:1026E000264B9A7912F0F00F2DE9F3470ED19A7824
:1026F00062B1234A234F1278234CDFF890804FF6C3
:10270000FF7C4FF00A0E3978914202D102B0BDE849
:10271000F0879D8875B3187893F801908DF80400C0
:102720008DF80590BDF80410614523D00EFB02F62C
:10273000A11991F801A0CA451CD1A65D864219D104
:102740008878B8B98888401BB8F8005080B28542B4
:1027500010D99879012262F3071098718B79074894
:1027600062F307138B71FFF791FD02B0BDE8F047EC
:10277000FFF75ABF013202F00702C4E70813002036
:10278000631300206213002012130020B40C0020F9
:102790002DE9F04FAA4D93B00446014606220AA83F
:1027A00008F054FF0021284694F800A094F8019006
:1027B000A778B4F804B0FFF7ABF8B5F804E02988BF
:1027C0000190ADF8081028786978A846BEF1000F8E
:1027D00000F03A81BDF808604FF6FF7C664500F0D6
:1027E0003381AE78002E00F02F81AA7902F0F00339
:1027F0000093ABEB0E03DFF84CE2BEF800E09BB2B7
:102800009E45009B40F2D280002B40F08A808DF8DC
:102810000C008DF80D10BDF80C30634519D02988D7
:102820002388994215D129892389994211D187B9E1
:102830001346012262F30713AB71FFF719FF284615
:10284000FFF724FDAB79A3710026304613B0BDE835
:10285000F08FBBF1000F25D08DF820A08DF82190CE
:10286000BDF820204FF6FF739A4211D087B93A463F
:1028700049465046FFF70EFF50B17148FFF706FD7D
:102880006F480A22002108F0EFFEFFF7F1FEDBE7B8
:102890008DF824A08DF82590BDF824204FF6FF7305
:1028A0009A420ED1002FCFD098F806306449019893
:1028B00043F0010388F80630FEF7D4FE0028C3D0A9
:1028C000DBE7002FF0D13A4649465046FFF7E2FEDB
:1028D00005460028B8D18DF828A08DF829900A98CF
:1028E000FFF772FEC0F30332C3B2032A0BD8DFE84E
:1028F00002F002020F0F10F4706F00D07BB1203392
:10290000DBB2072B0BD92046FFF7C0FC354606E0AB
:1029100010F4706FF3D0A27912F0F00FEFD12E46C1
:1029200093E78DF810008DF81110BDF81030634555
:1029300014D029882388994210D129892389994262
:102940000CD15FB9A2712046FFF7A0FC0A222146F4
:10295000284608F07BFEFFF78BFE76E72046FFF760
:102960001BFDF8B1F7B1364B99791F290FD918889B
:10297000ADF830001B89ADF834B000208DF832007E
:102980008DF83610ADF838300CA8FFF77FFC0A221E
:1029900021462B4808F05AFEFFF7A2FEFFF768FE1B
:1029A000012652E72046FFF771FCF9E79BB90AAB15
:1029B0008DF82A70ADF82CB08DF828A08DF82990EC
:1029C00093E80300FFF7F6FC2846FFF75FFC0A22B6
:1029D0000099284657E78DF814008DF81510BDF8BA
:1029E0001430634512D02988238899420ED1298951
:1029F000238999420AD14FB9A2712046FFF746FCBC
:102A00000A223946284608F02FFE1EE72046FFF727
:102A1000C3FC0028C6D0002FC4D0094B99791F29C8
:102A2000B5D91888ADF83C001B89ADF840B000203E
:102A30008DF83E008DF84210ADF844300FA8A4E7A1
:102A400008130020B40C0020BEF1000F6ED08DF8EA
:102A500018008DF81910BDF818604FF6FF75AE42DA
:102A600064D098F80260002E60D13B4AABEB0E03B5
:102A7000B2F800C09BB29C4545D93E46002F91D08C
:102A80008DF81C008DF81D10BDF81C30AB422AD00B
:102A9000B8F8002023889A4225D1B8F80820238965
:102AA0009A4220D198F80630DA0716D413F0F00FC6
:102AB00013D003F0F002F02A1CBFC3F3031201325B
:102AC000A37118BF62F30713204618BFA371FFF765
:102AD000DDFB0A22214621483BE70A2221461F4806
:102AE00008F0B4FDB1E62046FFF756FC00287FF45D
:102AF0004EAF98F80630204643F0010388F80630C0
:102B0000FFF7C4FBA1E68DF82A70ADF82CB08DF864
:102B100028A08DF829900AAB93E80300FFF74AFC40
:102B20000A2231460D4808F09FFD14E7002F3FF4BC
:102B300039AF2046FFF730FC064600283FF432AF9D
:102B40000A222146054808F081FD0448FFF762F893
:102B5000FFF7C6FDFFE600BFB40C002008130020FD
:102B6000F0B589B001AC84E807002046FFF710FEFD
:102B7000324E334D074690B1BDF80830BDF8042001
:102B8000ADF8142043B192B24FF6FF739A4203D0CE
:102B900094E80700FFF714FC2A4F0A2448E094E861
:102BA000070005AB03C31A80BDF80830BDF8142038
:102BB000ADF81020002BEFD092B24FF6FF739A427F
:102BC000EAD033782A785C1C04F0070494420AD0D7
:102BD0001C480A2205A902FB030008F037FD3470E7
:102BE000FFF722FDD8E7FFF7A7FB0A223946164870
:102BF00037702F7008F038FDCEE700EB800007EB50
:102C00004000FFF7C5FDB8B12A786243BB18B85A37
:102C1000B3F802C09A88D98840EA0C4042EA0141E0
:102C20001A89FFF7CDFB2B78013303F007032B70D4
:102C3000287833788342E0D109B0F0BD62130020D8
:102C4000631300201213002008130020024B0146DA
:102C5000186803F06DBF00BFB80C0020024B01469E
:102C6000186803F07FBF00BFB80C0020014B186844
:102C700003F092BFB80C0020014B1878704700BFDA
:102C8000A813002008B504F099F8054B1B88C01A5A
:102C900080B240F2ED23984294BF0020012008BD8D
:102CA000AA130020024B93F90000C0F3C70070473D
:102CB000A4130020024B187800F00700704700BFF3
:102CC000A413002008B504F079F8084B1B88C01A3B
:102CD00080B240F2ED23984281BF054B187880F016
:102CE0000400C0F3800098BF002008BDA613002098
:102CF000A4130020034B187810F0070018BF012020
:102D0000704700BFA4130020014B1878704700BF24
:102D1000AC130020024A137818431070704700BFAC
:102D2000AC130020024A137823EA000010707047A9
:102D3000AC130020014B00221A707047AC13002026
:102D4000014B1878704700BFAD130020024A13787A
:102D500018431070704700BFAD130020024A13786B
:102D600023EA000010707047AD130020014B0022D1
:102D70001A707047AD130020014B1878704700BFE0
:102D8000A9130020704708B5FFF7FCFF08BD00003D
:102D900008B5044B1978814202D01870FFF7F3FF91
:102DA00008BD00BFA813002008B5044B1A781AB15B
:102DB00000201870FFF7E7FF08BD00BFA813002030
:102DC000704708B5FFF7FCFF08BD000038B5094B98
:102DD0005B785B0704460BD4074D2B78834207D002
:102DE00003F0ECFF054B2C7018802046FFF7E9FF3D
:102DF00038BD00BFAC290020A9130020AA13002071
:102E000008B5054B1A782AB100201870034B1880BA
:102E1000FFF7D7FF08BD00BFA9130020AA130020A9
:102E200038B51949194B1A4C1B7809782268194D85
:102E30000B4313702A78AAB1FFF724FF40B1164B59
:102E40001B78DB0702D5154800F0FAFEFFF7D8FF24
:102E500020682A7803781343037003F0CBFD08B190
:102E6000FFF7CEFF24680E492022204608F0E0FB41
:102E700048B1214620220A4808F0E8FB2046BDE878
:102E8000384003F04BBD38BDAD130020AC1300201B
:102E9000B80C0020A9130020C613002071BA000846
:102EA00084130020704708B5FFF7FCFF08BD000041
:102EB0000C4A5278520710B510D40B4C41EAC001AD
:102EC0002170FFF7DDFA03F079FF084B188094F9C1
:102ED0000000C0F3C700FFF7E6FF10BDBDE81040DB
:102EE000FFF7CEBAAC290020A4130020A6130020BF
:102EF00008B5044B00201870034B1880FFF7D3FF70
:102F000008BD00BFA4130020A613002008B50C4A7A
:102F100092F9003023EA000040B2107042070ED14F
:102F2000DBB283420BD0074B5B785B0707D4C0F35F
:102F3000C700FFF7AFFABDE80840FFF7D9BF08BDEB
:102F4000A4130020AC2900200D4A5378C3F380015C
:102F5000814210B5044612D060F38203537010888A
:102F600000F04CF80220FFF7D1FF064B1B78DB077F
:102F700005D521460448BDE8104000F061BE10BDF3
:102F8000AC290020C61300205CBA0008044B587816
:102F9000C0F3800080F0010000F00100FFF7D4BF13
:102FA000AC2900200120FFF7CFBF0020FFF7CCBFE6
:102FB00008B502F0D3FC4FF6FF710020BDE80840D1
:102FC00002F016BB08B5002002F0C5FA4FF6E9631F
:102FD000C31A5842584108BD022002F0ADBA03207E
:102FE00002F0AABA10B5042002F0A6FA0446222084
:102FF00002F0A2FA44EA002080B210BD10B5C1B2BE
:103000000446042002F0E6FA210A2220BDE810401E
:1030100002F0E0BA072002F08FBA0146072002F062
:10302000D9BA01460F2002F0F1BA0146132002F08E
:10303000EDBA0020FFF7F9BF08B50020FFF7F1FF58
:10304000FFF7F7FF08BD000010B502F087FC4FF650
:10305000E961002002F0CCFA0021022002F0BAFA65
:1030600000210320002402F0B5FA1A4B2146042067
:103070001C6002F0AFFA2146222002F0ABFA214692
:10308000052002F0A7FA2146062002F0A3FAFF214C
:10309000072002F09FFA2146082002F0B7FA2146E5
:1030A0000D2002F097FA2146182002F0AFFA2146CF
:1030B000172002F08FFA21461C2002F0A7FA2146C1
:1030C000202002F095FA2146182002F09FFAFFF71F
:1030D000B3FF10BDD8120020FFF7B6BF01460E2087
:1030E00002F078BA08B503F035FE024B1860024BC7
:1030F000186008BDB4130020B813002008B503F011
:1031000029FE024B1860024B186008BDB413002062
:10311000B01300207047704708B5FFF7FCFF08BDEB
:10312000704708B5FFF7FCFF08BD000008B505486B
:1031300000F066FA02F010FCFFF7ECFFFFF7ECFF7F
:1031400008BD00BF2D7500080120704708B5FFF7C6
:10315000FBFF08BD7047704708B5FFF7FBFFFFF79F
:10316000FAFF08BD08B500F071FAFEF7D0FCBDE823
:10317000084000F0CFBE08B503F0D0FDFDF706FF14
:10318000FFF7F0FF03F09AF903F07AF9FFF7C9FFB0
:1031900008BD00002DE9F04F87B0FDF779FF074625
:1031A00008B1FFF79FFFDFF8BCB00025D8465FFAF3
:1031B00085F94846FEF742F81BF8016B86428246C5
:1031C00037D0274B1B789B0701D5FEF73DF800232E
:1031D000012486EA0A063442D9B225D00191FFF7CC
:1031E000B5FF0199A8B11AEA040F14BF0123002307
:1031F0008DF808108DF80A308DF8099003F0DEFD87
:1032000040F00100ADF80C0002AB93E80300FEF7BC
:10321000C1FC18F805305C4008F80540381C18BFA0
:10322000012007B0BDE8F08F01336400062BE4B243
:10323000D1D101350A2DBAD14FF6FF73ADF8103058
:1032400000238DF8123003F0B9FD40F00100ADF815
:10325000140006AB13E90300FEF79CFCDEE700BF99
:10326000C6130020BC13002008B501F079FD03F05F
:1032700015FB02F0F5FE0020BDE8084003F0C4B8DD
:1032800008B5FFF787FFFFF7EFFF03F037F908B145
:10329000FFF734FF02F078F801F0D4FCBDE80840F5
:1032A000FEF74ABC10B500F0D1F8B0F5A24F0446C5
:1032B0002BD2B0F5A04F71D2E72812D8E0280AD25D
:1032C000A7280AD8A5285AD2012804D003B233B1BE
:1032D000032898BF0024204610BDBE2856D90024DC
:1032E000F9E7B0F5005F08D2B0F5807F03D2ED2892
:1032F000F5D340F4A044A4B2EDE7B0F5804FEED38F
:10330000C0F30B0444F42044E5E7B0F5AA4F11D212
:10331000B0F5A84FC3B261D2B0F5A64F54D2B0F504
:10332000A44F4CD39A08012403F003039C4044EAC1
:10333000421441E0B0F5B24F0ED2B0F5B04F52D2C8
:10334000B0F5AC4FCBD2C0B200F002F9040204F4E5
:10335000F85444F40054BEE7B0F5B44F48D3A0F598
:10336000C0439BB2B3F5005FB9D2C0F3042000F0B4
:10337000EFF8000200F4F850E4B20443E9E75B34EC
:10338000E4B2214B1C5D44F48044A4E75834E4B219
:103390001E4B33F8144044F488449CE7C2B2C2F395
:1033A00081035B01C0F3011443EA042402F0030229
:1033B000012303FA02F2144344F40C449BE74AF25B
:1033C000F10040EA032486E79A08012403F003038E
:1033D0009C4044EA421444F40A448CE74AF2F40460
:1033E00044EA032477E74AF2F00040EA042482E743
:1033F00000F00F0000F0ACF8C4F3031440EA04241A
:1034000044F4104477E700BF83BA000886BA000886
:103410003C225043C1F30723062202FB030353FA65
:1034200081F3034A32F8130082B002B0704700BF44
:1034300028B7000807B5ADF804100199FFF7E8FFB9
:1034400003B05DF804EBFFF72DBF0000822825D004
:103450000CD8312863D004D8292859D02A2865D01F
:10346000704735284DD0392818D07047E32830D020
:1034700004D8E02819D0E22826D07047E62832D0B8
:10348000E72835D0E42832D1304B5A7891072ED531
:103490001B7813F0100F08BFE72012E02B4B1B78AE
:1034A00013F0030F18BFE0207047284A1378D9079C
:1034B00043D4527812F0010F19D013F0100F08BF47
:1034C000E32018BF00207047204B1B7813F0040F37
:1034D000F2E71E4A1378590731D45278D20730D414
:1034E00013F0100FEDE7194B1B781A07D1D4704772
:1034F000164A1378190726D452789207F0D5E4209B
:10350000F5E7124B1B7813F0200F18BF29207047E6
:103510000E4B1B7813F0200F18BF352070470B4B54
:103520001B7813F0400F18BF2A207047074B1B78F9
:1035300013F0400F18BF3120704739207047E22048
:103540007047E0207047E620704700BFAC2900209C
:10355000294B1A78510707D500F01801082927D1FF
:1035600000F0F70040F00400110707D500F0180143
:10357000182926D100F0E70040F014005B78D90745
:1035800007D500F01801082924D100F0F70040F019
:103590000100990707D500F01803182B23D100F07C
:1035A000E70040F01100D30648BF00F0E700704785
:1035B00000F01401042904BF00F0FB0040F00800F3
:1035C000D2E700F01401142904BF00F0EB0040F032
:1035D0001800D3E700F01101012904BF00F0FE003C
:1035E00040F00800D5E700F01103112B04BF00F0F4
:1035F000EE0040F01800D6E7AC290020002070470C
:10360000014B1860704700BFBC0C0020014B1B68C9
:10361000184700BFBC0C0020FFF7CABC08B5FDF777
:1036200037FD642004F0ABFFFDF732FD0020FDF70D
:1036300005FEC30705D5FFF7EFFFBDE8084003F01F
:10364000C9BB08BD08B5FFF7E9FF08BD08B5FFF71E
:10365000B9FC08B9FFF740FDFFF7BEFC084B187036
:10366000FFF7C0FC074B1880FFF7ECFFFFF7B7FC34
:10367000FEF7BFFE044B1868BDE80840FEF7D5BE54
:10368000C6130020AC290020DC12002008B503F08E
:10369000C5FFFFF770FDBDE8084003F0DBBF08B5CC
:1036A00003F0DEFFFFF7ECFDBDE8084003F0FEBFCE
:1036B00008B503F0CDFA03F0AFFFFFF737FDFFF7D2
:1036C000E5FFFFF7ECFFFFF747FDFAE770472DE94D
:1036D000F04F8BB00F46149C9DF854E01699189D3E
:1036E000984683461646199B0CB923F0100313F431
:1036F0008062009200D00CB313F0200F20460DF131
:1037000008094FF0000414BF4FF0370A4FF0570A72
:10371000B0FBF1FC01FB1C0C5FFA8CF2BCF1090F51
:1037200094BF30325244D2B2884209F8012BB0FB28
:10373000F1F204F1010401D3202C11D113F00202A3
:1037400001921ED103F001023DB132B1BEF1000F72
:1037500002D113F00C0F00D0013D4FF0300C05E00A
:103760001046D5E702A800F804C001341798A0421B
:1037700001D9202CF6D130201AB1A54201D91F2C35
:1037800042D9DA0620D5009A002A44D1002C42D032
:10379000179AA24201D0AC423DD1621E3AD0102904
:1037A00043D1023C980642D41F2C18D80AAA2244BE
:1037B000782102F8201C01341F2C10D80AAA2244B8
:1037C000302102F8201C01341F2C08D8BEF1000F54
:1037D00033D00AAA22442D2102F8201C01349B0771
:1037E000324642D004EB020A5046AAEB0402002CF7
:1037F0003ED1019B2BB1AAEB060A554506EB0A0008
:103800003DD80BB0BDE8F08F0DF1080C0CF80400AA
:103810000134B1E714461029C4D00229CCD11F2CA1
:10382000DDD80AAA22446221C3E71446F5E71F2C1B
:10383000D5D80AAA22445821BBE7590703D50AAABA
:1038400022442B21C8E71A07C9D50AAA22442021FD
:10385000C2E702F10109434639462020D8474A46CB
:103860000AEB0203AB42F4D3BCE7A4EB060AF7E78A
:10387000013C02A843463946005DD847B4E70246FA
:10388000434639462020D8470AF1010AB5E708B176
:10389000FFF7BCBE704700002DE9F04F8BB01F460C
:1038A000B44B149EB1F10009904614BF83469B4669
:1038B0000025387860B945452CBF08F1FF322A460B
:1038C000434649460020D84728460BB0BDE8F08F54
:1038D000252807F1010706D02A466C1C43464946B5
:1038E000D8472546E5E7002306E02D2A15D0302AE3
:1038F0000CD143F001030F46394611F8012B2B2A56
:103900000ED0F2D8202A0ED0232A0FD0A2F13000F8
:1039100009282AD80022069212E043F00203EAE7BF
:1039200043F00403E7E743F00803E4E743F0100340
:10393000E1E706980A2404FB0022303A06920F467B
:10394000394611F8012BA2F130000928F1D93A7853
:103950002E2A41D17978A1F13000092807F101021E
:1039600043F4806330D8002413E02A2A09D156F8A2
:10397000042B002ABCBF524243F0020306920F46BA
:10398000E5E700220692E2E70A2202FB0414303C3B
:103990000246104610F8011BA1F13007092FF3D998
:1039A000174617F8011B6A2930D018D8682924D087
:1039B000174617F8010B69283CD062D8622828D135
:1039C000022123F00C033DE02A2906D156F8044BCE
:1039D000BA1C24EAE474E3E73A460024E0E76C29E1
:1039E00004D07A29E4D143F48073E2E751786C295A
:1039F000F9D143F44073971CDBE75178682902D072
:103A000043F08003D5E743F0C003F4E743F40073C9
:103A1000CFE709D825283FF45FAF58287FF45CAF83
:103A200043F020031021CCE7632800F08380642852
:103A30007FF452AF692823F010034FF00A0101D040
:103A40006428BED15A0548BF23F00103692803F456
:103A5000007201D0642844D1002A7FF42AAFDA052D
:103A600006F1040A33D532680593069B0493002AB5
:103A70004FEAD273039402910193B8BF524200926D
:103A80003EE0732800F089801BD86F2801D10821FF
:103A900097E770287FF420AF43F0210305930823B4
:103AA00004931023029300230394019356F8043BDC
:103AB00000932A46434649465846FFF708FE054606
:103AC000F7E67528B6D078287FF406AFAAE713F09A
:103AD000400F326801D0D2B2C6E71E0648BF12B20C
:103AE000C2E7002A7FF4E5AED80506F1040A10D536
:103AF0000593069B0493039402910192336800930B
:103B00002A46434649465846FFF7E1FD05465646D4
:103B1000CFE613F0400F326808D0D2B20593069B6F
:103B200004930023039402910193A8E7180648BF69
:103B300092B2F3E713F002042DD001232A46079333
:103B400056F8040B43464946C0B2551CD847002CD2
:103B50003FF4AFAE069B079A93427FF6AAAE434668
:103B60002A4649462020D847079B6C1C01330793FF
:103B70002546EFE7CD360008434649462020D84782
:103B80000AF102030793069B05EB0A020AF1010AF8
:103B90009A45F1D3D4E7A246F2E7B246002C5AF890
:103BA000046B14BF21464FF0FF3131443246107888
:103BB00008B1914210D113F48061A2EB0602089182
:103BC00002D0A24228BF224613F00203099312D06A
:103BD00007922A46951B15E00132E8E7434649461D
:103BE0002020D847079B591C07910699994205EB5D
:103BF0000302F3D8EEE71346AD1AF4E71C4643463A
:103C00004946D847AA1916F8010B28B1089B002B82
:103C1000F5D0631E002CF1D1099B1546002B3FF413
:103C200076AF079B9C1A06E02A4643464946202069
:103C3000D8476E1C3546069A63199342F4D366E75B
:103C40000FB41FB506AA02A952F8043B03920092D2
:103C500004484FF0FF32FFF71FFE05B05DF804EB9C
:103C600004B070478F380008453807EE900AF8EE28
:103C7000E77AB2EE087AC7EE877A08B517EE900AAF
:103C8000FCF7A0FC9FED080B41EC110B06F084FC47
:103C9000002251EC100B064BFCF7ECFCFCF79AFFF2
:103CA00000EE100A08BD00BF000000000000004048
:103CB00000807B4008B545F61D43984205D18B78BE
:103CC00073B300F039FA002008BD45F61E43984250
:103CD00004D18B7823B300F045FAF4E745F61F438F
:103CE000984206D18B78DBB100F030F80028F2D191
:103CF000E7E745F62A43984209D18B7883B100F073
:103D00007DFC00220421074800F092F8DBE745F62D
:103D10002B43984204D18B7813B100F075FCF0E787
:103D20000120D1E7C00C002008B5FFF79DFFBDE8DA
:103D3000084000F0FDB908B5FFF796FFBDE8084060
:103D400000F016B900F00AB870477047024B1878B7
:103D500000F00100704700BF282A002038B50D4D43
:103D60002C78B4B90C4B1C7000F0FAFB0B4B0C49CF
:103D70001C700C4B1C700C4B1C800C4B22460134ED
:103D8000082C1A8059601A8103F10C03F7D1012322
:103D90002B7038BDE00C0020C7130020D113002089
:103DA000000080BFD2130020CE130020C8290020BD
:103DB0000B4B1B7883420FD9013B1B1A09485BB29E
:103DC0000C2202FB030393ED010AB5EEC00AF1EEEB
:103DD00010FA01D900F01EBC9FED030A704700BF26
:103DE000C7130020C8290020000000000D4B07EE7B
:103DF000900A1B78F8EE676ADFED0B7A9B0166EE9E
:103E0000A76A07EE903AB8EEE77AC6EE877A9FED9A
:103E1000077A67EE877AFCEEE77A17EE903A98B267
:103E2000704700BF040D00200000704200007A447B
:103E3000F8B5224B1B78DB0704460F46154603D422
:103E4000BDE8F840FFF78ABF1D4B1B780BB900F0A7
:103E500061F81C4B1B780BB1FFF780FF1A4BD4EDB8
:103E6000017A1A4E01221A70194A34600023137025
:103E7000184A1780184AFCEEE77A1570174D2B8008
:103E800017EE903A98B2FFF7B1FF94ED000A00F0F8
:103E9000CBF802F093FF124B2A881880336803EBAB
:103EA000C203D3ED017AFCEEE77A17EE903A98B2AE
:103EB000FFF79CFF0B4B1880F8BD00BF282A00209D
:103EC000C8130020D2130020D1130020C4290020E1
:103ED000D0130020B0290020292A0020CA13002076
:103EE000CC130020CE13002008B5074B1B78DB074E
:103EF00004D5002204210548FFF79AFF02F05EFF77
:103F0000034B188008BD00BF282A0020080D0020A0
:103F1000CC13002010B5124C237803BBFFF752F8E6
:103F200008B9FFF7D9F8FFF775F80E4B00221870A3
:103F30000D4B0E4811460132082A1980586019812C
:103F400003F10C03F7D123781BB900F0C3FA012366
:103F50002370FFF703FFBDE81040FFF7C5BF10BD9A
:103F6000C8130020282A0020C8290020000080BF94
:103F7000F8B5264DB5EEC00A2B78F1EE10FA2DED0E
:103F8000028BB0EE408A48BFB1EE408A002B3AD097
:103F90001F4B1B780BB9FFF7BDFF1E4B07241846BC
:103FA000D3ED167AF4EE487AF1EE10FA26D10C2110
:103FB0006143002243184252174959601A810F4643
:103FC0001646072C0ED1154B01261E70144B1C787B
:103FD000013CE4B21C70B4B900F0C2FA114B2C7071
:103FE0001E7010E003F10C0C9CE80700013483E81C
:103FF00007009E811F619E826346E2E7013C621CCE
:10400000A3F10C03CCD1BDEC028BF8BDD213002080
:10401000C8130020C8290020000080BFD31300204F
:10402000C7130020E00C00202DE9F041384B1B782D
:104030000746D8072DED028BB0EE408A50D5354BA0
:104040001B780BB9FFF766FF334DDFF8D0802B7874
:10405000B5EEC08AF1EE10FA48BFB1EE488A5E1E96
:104060000C22711C2FD10133DBB2082B4DD9082350
:104070002B702A4B002603F10C0494E8070001364C
:10408000072E83E807002346F5D1254A0123137044
:10409000244A13702B785C1E02F090FE0C236343BD
:1040A00008EB030228F8030082ED018A178102F071
:1040B00085FE1D4C1D4B188023788BB100F07AFAD9
:1040C000002323700CE002FB0684D4ED017AF4EEA9
:1040D000487AF1EE10FA16D12B78013B9E4203DBB1
:1040E000BDEC028BBDE8F08104F10C0898E80700F4
:1040F00084E8070002F062FE0136A08184ED048AA4
:10410000A7824446E8E7013EABE72B70BDE700BF5E
:10411000282A0020C8130020C7130020C829002027
:10412000D3130020D2130020E00C0020E013002065
:104130004FF6FF70FFF778BF08B5084B187840F0CE
:1041400001001870FEF769FFFFF7FEFD0022022153
:104150000348BDE80840FFF76BBE00BF282A0020D7
:10416000F40C002008B5002202210A48FFF760FE87
:10417000FFF7EBFD4FF47A7004F001FAFFF7EEFD64
:10418000054B18786FF300001870C0B2BDE8084006
:10419000FEF743BFE40C0020282A0020624B1A7867
:1041A0002DE9F0479846614C12B92578002D70D062
:1041B00002F004FE27788146F7B9002798F800300E
:1041C000002B00F0AF805A4B1D7825B9594B1D7854
:1041D000002D08BF3D46584C584F00264FF6FD783D
:1041E0003B78B34200F38C80554A1378002B50D0B3
:1041F000002111701D464CE0524D534E288802F0AC
:10420000E2FD33888342D8D8288802F0DCFDA5F887
:1042100000904E4D3488B5F800A00AF10103041B4C
:104220002B8002F0CBFD4A4B18804A4B19882B8813
:104230008B42A4B2A94605D3474B1D783DB300235A
:10424000A9F80030454B46481A680578B9F800309F
:104250008646DB0005BB02EBCA0CD5189CED007A44
:10426000D5ED007AB4EE677AF1EE10FA14D101239D
:1042700003700220FFF7BAFD9FED3A0AFFF7D4FE64
:104280000220A9F800A0FFF7B1FD308096E7FFF704
:1042900065FD2846BDE8F0871344D3ED017AFCEEB6
:1042A000E77A002017EE903A8EF8000098B2FFF7F8
:1042B0009DFD01398442B9F8003001D999420DDCE5
:1042C00084423ABF001B84B2012402EBC3032046A0
:1042D00093ED000AFFF7A8FE34806FE701339BB22D
:1042E000A9F8003002EBC303D3ED017AFCEEE77AC4
:1042F000201A17EE903A84B298B2FFF777FDD9E70B
:104300002389013B9BB2434509D8208802F05BFD1D
:104310002389834203D894ED010AFFF729FE013671
:104320000C345DE73D465FE7D2130020D113002037
:10433000DD130020DC130020C8290020C713002053
:10434000D3130020CC130020CE130020CA1300206A
:10435000E0130020B0290020292A0020C4290020D1
:10436000D01300200000000010B5084C084920467A
:1043700004F017FC2046022104F025FC0322102142
:104380004FF09040BDE8104005F0C7BA802D0020E6
:10439000280D002008B5074804F023FC0122102155
:1043A0004FF0904005F0B9FA4FF0904310221A8375
:1043B00008BD00BF802D002008B5114B2DED028BEC
:1043C000B0EE408A83ED000AFFF7E4FFB5EEC08A45
:1043D000F1EE10FA10D938EE088A9FED0A0A0A4B5E
:1043E00028EE008ABCEEC88A83ED008ABDEC028B01
:1043F000BDE80840FFF7B8BFBDEC028B08BD00BFA9
:10440000D413002000008043280D002010B5084C74
:104410000849204604F0C5FB2046022104F0D3FBE6
:10442000032220214FF09040BDE8104005F075BAFE
:10443000A02D0020380D002008B5074804F0D1FB5E
:10444000012220214FF0904005F067FA4FF0904391
:1044500020221A8308BD00BFA02D002008B5114BF3
:104460002DED028BB0EE408A83ED000AFFF7E4FFEA
:10447000B5EEC08AF1EE10FA10D938EE088A9FED39
:104480000A0A0A4B28EE008ABCEEC88A83ED008A2D
:10449000BDEC028BBDE80840FFF7B8BFBDEC028B56
:1044A00008BD00BFD813002000008043380D002055
:1044B00008B5FFF773FE58B10020FFF779FCFFF74E
:1044C0007BFF0020FFF774FCBDE80840FFF7C6BF84
:1044D00008BD000038B5184D184C032210214FF0CC
:1044E000904005F01AFA2846154904F01CFB1549BE
:1044F000154804F056FB032220214FF0904005F0B0
:104500000CFA2046114904F00EFB1149114804F041
:1045100048FBAB6A10491A681048136823F002037D
:104520001360A36A1A68136823F400331360BDE8AC
:10453000384004F036BB00BFEC2C00201C2D0020BE
:10454000B4BE0008280D0020802D0020BCBE00084D
:10455000380D0020A02D0020480D0020902D0020B7
:1045600010B50F4C0F4804F03CFB204604F0FAFA5B
:1045700040F2FF72002120460B4C04F0E2FA0B4897
:1045800004F02FFB204604F0EDFA204640F2FF72C3
:10459000002104F0D6FA0648BDE8104004F021BB23
:1045A000EC2C0020802D00201C2D0020A02D0020B0
:1045B000902D002008B50A4A0A490B484FF4807331
:1045C00004F0C1FA4FF4807308490948094A04F01D
:1045D000BAFA02210848BDE8084004F0F4BA00BF66
:1045E000B4BA0008C4BE0008EC2C0020D4BE0008F9
:1045F0001C2D0020B4BC0008902D0020014B00228F
:104600001A707047DE130020014B00221A707047A9
:10461000DE130020024B1B780BB9024A137070475F
:10462000DE130020DC1300200E4A138803F400433D
:1046300043F4FE4343F004031380802393700A4A3B
:104640004823FF20002102F8010B013B13F0FF0378
:1046500082F84710F7D1054A1370054A1370054ACE
:10466000138070472C2A0020E6130020E21300205C
:10467000E3130020E4130020064B1B78C3F303026E
:1046800043F3031302EB42022F3B03EB8203184474
:10469000C0B270472C2A00202DE9F84345F6AE43FE
:1046A000984202460C4600F2858045F69F439842A8
:1046B00080F0CE8145F68F43984229D845F6834352
:1046C000984280F05881B0F5B94F0BD845F6774342
:1046D000984280F02E8145F62F43984280F0DC808E
:1046E000012523E145F68143984200F0358145F6E6
:1046F00082439842F4D18B78002B00F0F880AF4AC7
:10470000137803F00F01082900F2F18001312CE148
:1047100045F69C43984231D845F69243984280F042
:10472000618145F69043984200F0378145F6914308
:104730009842D5D18B78002B00F0D9809F4B197807
:1047400041F3031250B2052800F3D180013242F345
:10475000030262F307110028197005DD002ABEBFAD
:10476000CAB260F307121A70954A1278D60740F160
:10477000BE80197841F3031149B20CE145F69D431F
:10478000984200F0428145F69E439842A8D18B782A
:10479000002B00F0AC80894B597801F07F027F2A12
:1047A00000F0A5801146722A9ABF0D3101F07F01F9
:1047B0007F2120E145F6B543984200F0A48131D82D
:1047C00045F6B143984200F0648110D845F6AF43F6
:1047D000984200F0508145F6B043984280D18B78E2
:1047E000002B00F08480754A9378591C4BE145F604
:1047F000B3439842714A8B78714D00F0728140F258
:104800005E8191786F48002B14BF7F2300234222E2
:1048100001F00F0103F062F92B78DF0767D5A1786B
:10482000694896E045F6B843984200F0968112D860
:1048300045F6B643984200F07B8145F6B74398426F
:104840007FF44EAF8B78002B604B14BF01224FF0EA
:10485000FF321A704BE045F6BA43984200F0B0813F
:10486000C0F0968145F6BB4398427FF439AF534C74
:104870008D78A178524E01F00F01002D00F0B78124
:1048800041F6FF724F4803F056F93378DA072ED518
:10489000A17841F6FF72A4E1484B8D789F7893F898
:1048A00001804B4EA0F12F0207F00F0708F07F08A0
:1048B000D4B2F5B1FFF7E0FE43460246054639465D
:1048C000404803F01AF93E4B1B78DA0705D54346FA
:1048D0002A4639463F48FFF7B3F9321992F8483073
:1048E000013382F84830335DFF2B08BF3555002572
:1048F0001CE0321916F8049092F84830013BDBB204
:1049000082F84830002BF2D143464A4639462D48BA
:1049100003F002F92A4B1B78DB0705D543464A46CC
:1049200039462D48FFF78CF9FF2333552846BDE85B
:10493000F8838B78002BDAD0204BA0F177011A781E
:10494000C9B261F303021A701D4B1B78D807CED58C
:104950002248FFF775F9CAE78B78002BC7D0174AB2
:1049600013781907C3D003F10F0101F00F0161F3B0
:1049700003031370E8E78B78002BB8D00F4B00F1DE
:1049800077011A7841F3030161F307121A700C4B97
:104990001B78DF07ABD51248DBE78B78002BA6D05E
:1049A000064A137843F3031148B205309FDB0F31F9
:1049B00041F3030161F307131370E8E72C2A002089
:1049C000C61300204C2A0020D0BF0008E3130020AB
:1049D000E6130020F8BE000824BF000851BF0008FD
:1049E00061BF00088B78002B81D06E3202EB42024F
:1049F0009100874BC9B25A7861F306025A70854B11
:104A00001B78DC077FF573AF18E08B78002B3FF441
:104A10006EAF7F4A537813F07F003FF468AF7F2872
:104A20000ED1A0F10A0161F306035370794B1B7894
:104A3000DD077FF55CAF517801F07F01764888E7AC
:104A40000C2802D9A0F10D01EDE76FF30603ECE7A6
:104A50008B78002B3FF44BAF6D4B00F161019A78DE
:104A6000C9B261F303029A706A4B1B78D8077FF5CD
:104A70003EAF6A486DE78B78002B3FF438AF644A4D
:104A8000937803F10F0101F00F0161F303039370B9
:104A9000EAE78B78002B3FF42AAF5D4B60489978AA
:104AA0007B22002301F00F0103F018F8594B1B780B
:104AB000D9077FF51CAF5B48FFF7C2F817E791787D
:104AC0005748002B14BF7F230023402201F00F0121
:104AD00003F004F82B78DA077FF509AFA178524884
:104AE00037E791784E48002B14BF7F2300234122E3
:104AF00001F00F0102F0F2FF2B78DB077FF5F7AE34
:104B0000A1784A4825E7424B45489978A378002B7D
:104B100014BF7F230023432201F00F0102F0DEFFC8
:104B20003C4B1B78DE077FF5E2AEA178404810E7EA
:104B3000374B3B489978A378002B14BF7F23002381
:104B4000432201F00F0102F0C9FF324B1B78DD0751
:104B50007FF5CDAEA1783748FBE68B78002B3FF48C
:104B6000C6AE2B4A93781909481C60F3071393705B
:104B7000DBB213F0F00F04BF61F307139370254B02
:104B80001B78DC077FF5B3AE917809092A48E0E687
:104B90008B78002B3FF4ABAE1D4A937813F0F00FE7
:104BA0003FF4A5AEC3F303110F3101F00F0161F320
:104BB00007139370174B1B78D8077FF598AEE5E77E
:104BC000134C8D78A178134E01F00F017DB11B4A73
:104BD000134802F0B0FF3378D9077FF588AEA1788B
:104BE000164A174801F00F01FFF72AF87FE62A4618
:104BF0000B4802F0A0FF3378DB077FF578AEA17891
:104C00000F48002201F00F01FFF71AF88EE600BFEF
:104C10002C2A0020C613002074BF000886BF00089D
:104C20004C2A002097BF0008ABBF0008BCBF00089B
:104C3000E3BF0008F1BF000801C0000800E0FFFF6B
:104C40001EC0000870B51C4C1C481D4E03F0F1F846
:104C5000208802F0B8F8B278B0EB121F23D3194DB8
:104C600002F0ACF895F900302080E3B1164B174CF8
:104C70001B7813F0010F03D021781548FEF7E0FFF1
:104C8000B17823780D48012201F00F0102F026FFD0
:104C900095F90020002A07DA21785342994203DA75
:104CA000002323702B7070BD23781344DBB21A06E7
:104CB00048BF7F232370F6E7E41300204C2A00202E
:104CC0002C2A0020E3130020C6130020E21300204A
:104CD000E4BE0008024B1B780BB1FFF733B87047F6
:104CE00077140020FE288CBF00200120704708B5F3
:104CF000FFF7F8FF08BD000008B5FFF7EBFF044B16
:104D0000044800221A700821BDE80840FFF790B857
:104D1000771400207C0E0020034B04480022082159
:104D20001A70FFF785B800BF76140020580D0020D8
:104D300010B5FFF7CFFF084A08481378013303F096
:104D400003031370282404FB030000220521BDE89F
:104D50001040FFF76DB800BFD80D0020DC0D00201B
:104D6000F8B5174B1B788BB1164C208840B902F070
:104D700025F82080144C154D227842B1531E08E0CE
:104D800002F021F8124B1B888342F0D3F8BD2B7838
:104D9000013B104E317849B10F49C85C8F5CFEF77A
:104DA000CAFF337813B13846FEF7BEFF237829785F
:104DB0000133B3FBF1F201FB12332370E6E700BFCE
:104DC000891400208E1400208A14002088140020EA
:104DD000000F002077140020781400207047000096
:104DE00008B5054B054801221A7008210022FFF77B
:104DF0001FF8FFF7F3FF08BD77140020C00E002056
:104E00007047000008B5054B054801221A700821BB
:104E10000022FFF70DF8FFF7F3FF08BD761400201E
:104E2000980D00202DE9F04145F6264398428AB0BE
:104E3000054606D18B78002B3ED0FFF7D1FF00202E
:104E400053E045F62743984205D18B78002B33D0A9
:104E5000FFF752FFF3E745F62843984206D15F4B30
:104E60008A781B7842B3002BF2D1E6E745F62C4353
:104E7000984204D18B78FBB1FFF7C4FFDFE745F61A
:104E80002D43984204D18B78B3B1FFF745FFD6E7A5
:104E900045F62E43984206D18B786BB1504B1B7868
:104EA000002BF2D1E8E745F62943984204D18B78EC
:104EB00013B1FFF73DFFC2E7484B1E7826B9484BB8
:104EC0001B78002B00F087808F78002F3DD0E02DDD
:104ED0000ED1FFF7FFFE434B01221A70424B002018
:104EE0001870424B1870424B18700AB0BDE8F08140
:104EF000E22D0BD1FFF7EEFE3A4B1A7812B13A4A87
:104F00000121117000201870384BEDE7E32D0FD10F
:104F1000354B1B78CBB1FFF7DDFE324B002018700C
:104F2000324B01221A70334B1870334B1880DCE778
:104F3000522D04D1314A13880A3B13807FE7512D4B
:104F400003D12E4A13880A33F7E74B780A782C49A5
:104F5000062000FB031313F802802A4B1C782A4B0F
:104F60001B6824341C44294B1B78E4B2B3B9444475
:104F7000E4B257B316B12046FEF7D6FE194B1B78A4
:104F80002BB11B4A22491378CC54013313702846A5
:104F9000FFF7ADFE80F00100C0B2A6E723221D4955
:104FA00001A806F053FB0723B8FBF3F303EB43021E
:104FB000C3EBC30304EB8204A8EB03030AAA52FA6F
:104FC00083F313F8243C1C44D2E7002EDFD02046A4
:104FD000FEF7B1FEDBE7012087E700BF7714002072
:104FE000761400208C1400208B14002089140020DB
:104FF000881400208A1400208E140020000F002046
:10500000E6B60008020F0020BC0E0020D80D0020DC
:10501000781400209BB60008194B1B78D90709D5D6
:10502000184B187800EB400080087F2824D828B35C
:10503000C0B270479A0705D5124B187800EB4000B4
:105040004008F2E75B0704D50E4B187800EB4000F0
:10505000EBE70D4B1B786BB10C4A0A4912780878C4
:105060009342F3D210FB03F000EB4000B0FBF2F0F0
:1050700080B2DAE70320DBE77F207047012070472A
:105080009A140020050F00209B140020060F00201A
:10509000154B1B78D90705D5144B1878800800B339
:1050A000C0B270479A0703D5104B18784008F6E74E
:1050B0005B0705D50D4B18787F28F0D97F20704706
:1050C0000B4B1B785BB10B4A084912780878934266
:1050D00036BF10FB03F080B2B0FBF2F0ECE701202A
:1050E000DEE70120704700BF9A140020090F00205E
:1050F0009C1400200A0F0020ED2808B505D1FFF709
:105100008BFF4042294BD87008BDEE2802D1FFF733
:1051100083FFF7E7EF2805D1FFF77EFF4042234BDF
:105120009870F1E7F02802D1FFF776FFF7E7F9284A
:1051300004D1FFF7ADFF1D4B1871E5E7FA2803D145
:10514000FFF7A6FF4042F6E7FB2805D1FFF7A0FFD7
:105150004042164B5871D7E7FC2802D1FFF798FF61
:10516000F7E700F10F03DBB2072B08D80F4A012342
:10517000F13803FA00F0537818435070C4E7FD2863
:1051800005D10B4A137843F001031370BCE7FE28E6
:1051900004D1074A137843F00203F6E7FF28B3D19E
:1051A000034A137843F00403EFE700BF9414002090
:1051B0009A140020364BED2893F902200AD193F976
:1051C000031000290CDA0021D97052B9314A0021AC
:1051D000117006E0EE280DD193F903100029F2DCDE
:1051E00072B11A795B7913435BB2002B4FD12A4A13
:1051F00013707047EF2806D1002AF1DA00229A7066
:1052000093F90320E1E7F02802D1002AF6DCE7E772
:10521000F92893F9041004D10029E1DD0021197166
:10522000DEE7FA2802D10029DADAF7E7FB2893F95A
:10523000051004D10029D3DA00215971D0E7FC28E8
:1052400002D10029F8DCCBE700F10F01C9B2072930
:1052500007D8F13801218140587820EA01005870C0
:10526000BEE7FD2805D10D48017821F0010101704C
:10527000B6E7FE2804D10948017821F00201F6E7DB
:10528000FF28ADD10548017821F00401EFE7704710
:10529000941400209B1400209C1400209A140020D9
:1052A0002A4B1B7813F0080F10B5294C39D0294828
:1052B000FEF7C6FC61782848FEF7C2FC2748FEF7D7
:1052C000BFFC94F902102648FEF7BAFC2548FEF709
:1052D000B7FC94F903102248FEF7B2FC2148FEF710
:1052E000AFFC94F904101E48FEF7AAFC1D48FEF717
:1052F000A7FC94F905101A48FEF7A2FC1A48FEF71D
:105300009FFC1A4B1A481978FEF79AFC1948FEF7C9
:1053100097FC194B16481978FEF792FC1748FEF7D0
:105320008FFC01F04BFDE378A278134318BF144BB8
:10533000227918BF18806379134318BF114BBDE859
:10534000104018BF1880024801F02ABBC613002085
:105350009414002043C0000826BA000866C0000864
:1053600068C00008E0B600086BC000089B1400206D
:105370006EC0000871C000089A14002073C00008B5
:1053800090140020921400202DE9F047564C94F917
:10539000028094F9037094F9046094F9055094F82C
:1053A00000A094F801900023A370E370237163714F
:1053B00058EA07030AD04D4B188801F004FD4C4908
:1053C0000B783BB34B4A127890422DDC56EA05032A
:1053D0000BD0494B188801F0F6FC48490B78002B9C
:1053E0004ED0474A1278904254DCE278A3781343B7
:1053F000227913436279134301D0FFF751FF84F8F8
:1054000000A084F8019084F80280E770267165712D
:10541000BDE8F0873B4A127802EB8202B0EB420F04
:10542000D4DD01330B7001E0FF2BFAD1B8F1000F8E
:1054300008D0FFF7F1FDB8F1000FCCBF0123FF2327
:105440005843A0703FB1FFF7E7FD002FCCBF012309
:10545000FF235843E07094F90220002AB6D094F953
:1054600003100029B2D0B5235A43121203FB01F3F3
:1054700008BF01221B1208BF0123A270E370A5E739
:10548000214A127802EB8202B0EB420FADDD01330C
:105490000B7001E0FF2BFAD13EB1FFF7F9FD002EB2
:1054A000CCBF0123FF23584320713DB1FFF7F0FD2E
:1054B000002DCCBF0123FF235843607194F90420D1
:1054C000002A92D094F9051000298ED0B5235A43B2
:1054D000121203FB01F308BF01221B1208BF0123B4
:1054E0002271637181E700BF9414002090140020A2
:1054F0009B140020040F0020921400209C14002014
:10550000080F0020030F0020070F002008B5062217
:105510000021054806F0A8F8044A00231370044A45
:105520001370044A137008BD941400209B140020CB
:105530009C1400209A14002007B500230146012284
:105540000DF107008DF8073000F00AFA9DF807000A
:1055500003B05DF804FB07B50023014602220DF1FC
:105560000600ADF8063000F0FBF9BDF8060003B008
:105570005DF804FB07B50422002301460DEB020091
:10558000019300F0EDF9019803B05DF804FB07B555
:1055900001228DF8071001460DF1070000F014FA02
:1055A00003B05DF804FB07B50222ADF80610014612
:1055B0000DF1060000F008FA03B05DF804FB07B532
:1055C0000422019101460DEB020000F0FDF903B049
:1055D0005DF804FB38B50C460546FFF7ADFFA04269
:1055E00005D021462846BDE83840FFF7D0BF38BD7A
:1055F00038B50C460546FFF7AEFFA04205D0214660
:105600002846BDE83840FFF7CEBF38BD38B50C4658
:105610000546FFF7AFFFA04205D021462846BDE86A
:105620003840FFF7CCBF38BD10B500F085FA094C03
:10563000094800F039FA094800F036FA204600F02F
:1056400033FA074800F030FA00F084FA054B1C608A
:1056500010BD00BF00F0030800E0030800E80308E5
:1056600000F80308A024002038B54FF6FE7303406D
:1056700003F1006505F578354FF6FF712A888A42F7
:1056800010D10A495C5AE443A4B294420CD000F011
:1056900053FA2146284600F029FA044600F05AFA47
:1056A000204638BD0024FBE70524F9E79E140020BE
:1056B000F8B5FFF7B9FF00F03FFA0B4E0B4C0C4F5B
:1056C000052536F8021B39B1C94389B2204600F0DE
:1056D0000DFA052818BF05460234BC42F1D100F08E
:1056E00039FA2846F8BD00BF9E14002000E00308E8
:1056F00000F00308F8B51C4B1C4FC65A3A68012E3F
:105700009ABF1B4D02230423C3F1006394BF45EAF3
:105710004635803803F5802392BFADB280B24FF496
:1057200060459A4203D9BDE8F840FFF7C1BF45EA9A
:10573000500400F001FA38682146831C3B6000F0F9
:10574000D5F9B5F5604F044609D13868F143831C9B
:1057500089B23B6000F0CAF9052818BF044600F082
:10576000F9F92046F8BD00BF9E140020A0240020B7
:105770000080FFFF38B50D4C0D4B22689A4205465C
:1057800003D9BDE83840FFF793BF00F0D5F9094BC6
:105790002068E95C41EA0521831C89B2236000F09E
:1057A000A5F9044600F0D6F9204638BDA024002013
:1057B000FFFF03089E1400201F4B204A2048F0B52D
:1057C0001D4632F8021BC943824223F8021BF8D15E
:1057D0001C4C4FF6FF7743F6FE761388BB4206D08B
:1057E000180409D4190A6B540232A242F5D9164B97
:1057F0004FF480501A60F0BD03F4C041B1F5C04FC2
:105800000FD1901CA04215D85188C94389B279B1F3
:1058100006EA430380330246B3F5805FE4D2E952DF
:10582000E2E75904E0D4C3F3403106EA4303F3E767
:105830000246D9E70246DAE79E14002000E003089A
:1058400000F00308FFFF0308A024002008B5FFF7BD
:10585000EBFEBDE80840FFF7AFBF0000B0F5805F8A
:1058600010B5044614D20C4BC25C8A4212D0C1540B
:10587000FFF7FAFE68B97F2C04D82046BDE8104037
:10588000FFF778BF24F00100BDE81040FFF732BFFA
:10589000072010BD0020FCE79E140020B0F5805FBB
:1058A000F8B504460E4634D210F001050DD0C9B249
:1058B000FFF7D4FF0546601C310A80B2FFF7CEFF28
:1058C000052818BF05462846F8BD134BC75AB942EC
:1058D000F9D0E152FFF7C8FE05460028F3D17F2C2E
:1058E00012D8FBB2F2B293420CD02046FFF742FF2F
:1058F0000546360AB6EB172FE5D0601C80B2FFF7DD
:1059000039FFDDE70525F4E72046BDE8F840FFF75D
:10591000F1BE0725D7E700BF9E140020B0F5805FD9
:105920003ABF024BC05CFF20704700BF9E140020AE
:1059300040F6FE7398420AD8064BC20741BF5A1C74
:10594000825CC05C40EA022058BFC05A70474FF6E4
:10595000FF7070479E140020FFF72EBFFFF776BF41
:105960002DE9F843044615464AB1CB0707D588B25E
:105970004A1CFFF7D3FF04F8010B013D11466F08E5
:1059800004F00109A61C01EB470841450BD16FF05B
:10599000010202FB075222B188B2FFF7BFFF04F8F1
:1059A0001700BDE8F88388B2FFF7C2FFB9F1000F16
:1059B00004D126F8020C02310236E6E706F8020CA2
:1059C000000A06F8010CF6E72DE9F04705460C46FB
:1059D00016464AB1CB0707D54F1CA0B215F8011BDC
:1059E000FFF73CFF013E3C464FEA560805F0010A2E
:1059F000AF1C04EB48094C450BD16FF0010202FBD0
:105A00000862C2B115F81810A0B2BDE8F047FFF760
:105A100025BFBAF1000F07D137F8021CA0B2FFF77B
:105A20003DFF02340237E6E717F8013C17F8021C85
:105A300041EA0321F2E7BDE8F08700000B4BDA688A
:105A4000D2070CD4DA6851070BD4DA68D2060AD42C
:105A5000DB6813F0010F0CBF052004207047012004
:105A60007047022070470320704700BF00200240AB
:105A700073B50446FFF7E2FF0025FF2601280FD18A
:105A800014B9062002B070BD01950196019B1BB9A7
:105A9000FFF7D4FF013CF1E7019B013B0193F5E7E0
:105AA000002C08BF0620EDE738B5054640F6FF702C
:105AB000FFF7DEFF052815D10B4C236943F00203E5
:105AC00023616561236943F04003236140F6FF7061
:105AD000FFF7CEFF06281EBF236923F002032361D0
