:020000040800F2
:1000000000040020C1020008C3020008C302000867
:10001000C3020008C3020008C3020008C3020008AC
:10002000C3020008C3020008C302000801850008DB
:10003000C3020008C3020008C3020008C30200088C
:10004000C3020008C3020008C3020008C30200087C
:10005000C3020008C3020008C3020008C30200086C
:10006000C3020008C3020008C3020008F996000892
:100070000D97000821970008359700084997000858
:100080005D97000871970008C3020008C3020008CA
:10009000C3020008C3020008C3020008C30200082C
:1000A000899100088D9100089191000895910008B0
:1000B000CD9E0008719B0008C30200083999000812
:1000C000459A0008C3020008C3020008C3020008E2
:1000D000C3020008C3020008C3020008C3020008EC
:1000E000C3020008C3020008C3020008C3020008DC
:1000F000259D0008C3020008C3020008C3020008CF
:10010000C3020008C3020008C3020008C3020008BB
:10011000C3020008C3020008FD9C0008119D0008EE
:100120008597000899970008AD970008C1970008C7
:10013000D5970008C3020008C3020008C3020008E4
:10014000C3020008C3020008C3020008C30200087B
:10015000C3020008C3020008C3020008C30200086B
:10016000C3020008C3020008C3020008219F000860
:10017000C3020008C3020008C3020008C30200084B
:10018000C3020008C3020008C3020008C30200083B
:10019000C3020008C3020008C3020008C30200082B
:1001A00072B6394880F30888384880F3098838489F
:1001B0004EF60851CEF20001086040F20000CCF289
:1001C00000004EF63471CEF200010860BFF34F8F8D
:1001D000BFF36F8F40F20000C0F2F0004EF688517E
:1001E000CEF200010860BFF34F8FBFF36F8F4FF067
:1001F0000000E1EE100A4EF63C71CEF200010860FC
:10020000062080F31488BFF36F8F07F0AFFE07F06E
:1002100081FC4FF055301F491B4A91423CBF41F8C9
:10022000040BFAE71C49194A91423CBF41F8040B00
:10023000FAE71A491A4A1B4B9A423EBF51F8040B7F
:1002400042F8040BF8E700201749184A91423CBFD6
:1002500041F8040BFAE707F08DFE07F088FE144C16
:10026000144DAC4203DA54F8041B8847F9E703F055
:10027000CDF8114C114DAC4203DA54F8041B8847F9
:10028000F9E707F075BE000000040020000C002014
:10029000000000080000002000040020E0D000085A
:1002A000000C00205C12002060120020D4300020DE
:1002B000A0010008A0010008A0010008A00100089A
:1002C0006EE700F000F8FEE72DE9F04F2DED108A03
:1002D000C1F80CD0C3689D46BDEC108ABDE8F08F14
:1002E000002383F311882846A047002008F080F8F7
:1002F000FEE708F038F800DFFEE7000081F000417B
:1003000002E000BF83F0004330B54FEA41044FEAFA
:10031000430594EA050F08BF90EA020F1FBF54EA95
:10032000000C55EA020C7FEA645C7FEA655C00F031
:10033000E2804FEA5454D4EB5555B8BF6D420CDD02
:100340002C4480EA020281EA030382EA000083EA85
:10035000010180EA020281EA0303362D88BF30BD25
:1003600011F0004F4FEA01314FF4801C4CEA11317B
:1003700002D0404261EB410113F0004F4FEA0333DA
:100380004CEA133302D0524263EB430394EA050F65
:1003900000F0A780A4F10104D5F1200E0DDB02FAD4
:1003A0000EFC22FA05F2801841F1000103FA0EF268
:1003B000801843FA05F359410EE0A5F120050EF12E
:1003C000200E012A03FA0EFC28BF4CF0020C43FA5F
:1003D00005F3C01851EBE37101F0004507D54FF06C
:1003E000000EDCF1000C7EEB00006EEB0101B1F5BC
:1003F000801F1BD3B1F5001F0CD349085FEA300002
:100400004FEA3C0C04F101044FEA445212F5800F0C
:1004100080F09A80BCF1004F08BF5FEA500C50F1A9
:10042000000041EB045141EA050130BD5FEA4C0C8C
:10043000404141EB010111F4801FA4F10104E9D115
:1004400091F0000F04BF01460020B1FA81F308BF0C
:100450002033A3F10B03B3F120020CDA0C3208DDD8
:1004600002F1140CC2F10C0201FA0CF021FA02F1B3
:100470000CE002F11402D8BFC2F1200C01FA02F123
:1004800020FA0CFCDCBF41EA0C019040E41AA2BF48
:1004900001EB0451294330BD6FEA04041F3C1CDA10
:1004A0000C340EDC04F11404C4F1200220FA04F030
:1004B00001FA02F340EA030021FA04F345EA0301DA
:1004C00030BDC4F10C04C4F1200220FA02F001FA9C
:1004D00004F340EA0300294630BD21FA04F029461E
:1004E00030BD94F0000F83F4801306BF81F48011B7
:1004F0000134013D4EE77FEA645C18BF7FEA655C2A
:1005000029D094EA050F08BF90EA020F05D054EAFB
:10051000000C04BF1946104630BD91EA030F1EBF00
:100520000021002030BD5FEA545C05D14000494104
:1005300028BF41F0004130BD14F580043CBF01F5F7
:10054000801130BD01F0004545F0FE4141F47001DD
:100550004FF0000030BD7FEA645C1ABF19461046B8
:100560007FEA655C1CBF0B46024650EA013406BFB9
:1005700052EA033591EA030F41F4002130BD00BF78
:1005800090F0000F04BF0021704730B54FF4806435
:1005900004F132044FF000054FF0000150E700BFB6
:1005A00090F0000F04BF0021704730B54FF4806415
:1005B00004F1320410F0004548BF40424FF0000102
:1005C0003EE700BF42004FEAE2014FEA31014FEA45
:1005D00002701FBF12F07F4393F07F4F81F0605194
:1005E000704732F07F4208BF704793F07F4F04BFDF
:1005F00041F40021704730B54FF4607401F00045BC
:1006000021F000411CE700BF50EA010208BF70471B
:1006100030B54FF000050AE050EA010208BF70470C
:1006200030B511F0004502D5404261EB41014FF475
:10063000806404F132045FEA915C3FF4D8AE4FF07D
:1006400003025FEADC0C18BF03325FEADC0C18BF60
:10065000033202EBDC02C2F1200300FA03FC20FAB1
:1006600002F001FA03FE40EA0E0021FA02F11444FE
:10067000BDE600BF70B54FF0FF0C4CF4E06C1CEA17
:1006800011541DBF1CEA135594EA0C0F95EA0C0F88
:1006900000F0DEF82C4481EA030621EA4C5123EAFB
:1006A0004C5350EA013518BF52EA033541F480112A
:1006B00043F4801338D0A0FB02CE4FF00005E1FBDD
:1006C00002E506F00042E0FB03E54FF00006E1FB27
:1006D00003569CF0000F18BF4EF0010EA4F1FF046A
:1006E000B6F5007F64F5407404D25FEA4E0E6D41AA
:1006F00046EB060642EAC62141EA55514FEAC520BB
:1007000040EA5E504FEACE2EB4F1FD0C88BFBCF536
:10071000E06F1ED8BEF1004F08BF5FEA500E50F1E7
:10072000000041EB045170BD06F0004646EA0101AD
:1007300040EA020081EA0301B4EB5C04C2BFD4EBDF
:100740000C0541EA045170BD41F480114FF0000ED8
:10075000013C00F3AB8014F1360FDEBF002001F046
:10076000004170BDC4F10004203C35DA0C341BDCC0
:1007700004F11404C4F1200500FA05F320FA04F092
:1007800001FA05F240EA020001F0004221F00041C6
:1007900010EBD37021FA04F642EB06015EEA430E39
:1007A00008BF20EAD37070BDC4F10C04C4F1200569
:1007B00000FA04F320FA05F001FA04F240EA02001C
:1007C00001F0004110EBD37041F100015EEA430EED
:1007D00008BF20EAD37070BDC4F1200500FA05F20D
:1007E0004EEA020E20FA04F301FA05F243EA02038C
:1007F00021FA04F001F0004121FA04F220EA02009B
:1008000000EBD3705EEA430E08BF20EAD37070BDE0
:1008100094F0000F0FD101F00046400041EB0101C0
:1008200011F4801F08BF013CF7D041EA060195F0A2
:10083000000F18BF704703F00046520043EB03035C
:1008400013F4801F08BF013DF7D043EA0603704749
:1008500094EA0C0F0CEA135518BF95EA0C0F0CD054
:1008600050EA410618BF52EA4306D1D181EA03019A
:1008700001F000414FF0000070BD50EA410606BF94
:100880001046194652EA430619D094EA0C0F02D1D9
:1008900050EA013613D195EA0C0F05D152EA03361E
:1008A0001CBF104619460AD181EA030101F000413C
:1008B00041F0FE4141F470014FF0000070BD41F085
:1008C000FE4141F4780170BD70B54FF0FF0C4CF45F
:1008D000E06C1CEA11541DBF1CEA135594EA0C0F7E
:1008E00095EA0C0F00F0A7F8A4EB050481EA030ECB
:1008F00052EA03354FEA013100F088804FEA0333B2
:100900004FF0805545EA131343EA12634FEA02227F
:1009100045EA111545EA10654FEA00260EF0004140
:100920009D4208BF964244F1FD0404F5407402D292
:100930005B084FEA3202B61A65EB03055B084FEA23
:1009400032024FF480104FF4002CB6EB020E75EB20
:10095000030E22BFB61A754640EA0C005B084FEA48
:100960003202B6EB020E75EB030E22BFB61A7546C5
:1009700040EA5C005B084FEA3202B6EB020E75EB10
:10098000030E22BFB61A754640EA9C005B084FEA88
:100990003202B6EB020E75EB030E22BFB61A754695
:1009A00040EADC0055EA060E18D04FEA051545EA84
:1009B00016754FEA06164FEAC30343EA52734FEA2D
:1009C000C2025FEA1C1CC0D111F4801F0BD141EAA6
:1009D00000014FF000004FF0004CB6E711F4801F0B
:1009E00004BF01430020B4F1FD0C88BFBCF5E06FEB
:1009F0003FF6AFAEB5EB030C04BFB6EB020C5FEAFB
:100A0000500C50F1000041EB045170BD0EF0004E4F
:100A10004EEA113114EB5C04C2BFD4EB0C0541EA81
:100A2000045170BD41F480114FF0000E013C90E67E
:100A300045EA060E8DE60CEA135594EA0C0F08BF42
:100A400095EA0C0F3FF43BAF94EA0C0F0AD150EA41
:100A500001347FF434AF95EA0C0F7FF425AF1046D4
:100A600019462CE795EA0C0F06D152EA03353FF4FC
:100A7000FDAE1046194622E750EA410618BF52EA79
:100A800043067FF4C5AE50EA41047FF40DAF52EA4D
:100A900043057FF4EBAE12E74FF0FF3C06E000BFEA
:100AA0004FF0010C02E000BF4FF0010C4DF804CDF7
:100AB0004FEA410C7FEA6C5C4FEA430C18BF7FEAB7
:100AC0006C5C1BD001B050EA410C0CBF52EA430CE5
:100AD00091EA030F02BF90EA020F0020704710F165
:100AE000000F91EA030F58BF994208BF90422CBFF4
:100AF000D8176FEAE37040F0010070474FEA410CED
:100B00007FEA6C5C02D150EA013C07D14FEA430C0A
:100B10007FEA6C5CD6D152EA033CD3D05DF8040B7B
:100B2000704700BF8446104662468C4619466346AD
:100B300000E000BF01B5FFF7B7FF002848BF10F184
:100B4000000F01BD4DF808EDFFF7F4FF0CBF0120C9
:100B500000205DF808FB00BF4DF808EDFFF7EAFF45
:100B600034BF012000205DF808FB00BF4DF808ED00
:100B7000FFF7E0FF94BF012000205DF808FB00BFF5
:100B80004DF808EDFFF7CEFF94BF012000205DF87F
:100B900008FB00BF4DF808EDFFF7C4FF34BF01208C
:100BA00000205DF808FB00BF4FEA410C7FEA6C5C57
:100BB00002D150EA013C0AD14FEA430C7FEA6C5C57
:100BC00002D152EA033C02D14FF0000070474FF0CF
:100BD000010070474FEA4102B2F1E04324BFB3F590
:100BE000001CDCF1FE5C0DD901F0004C4FEAC002A4
:100BF0004CEA5070B2F1004F40EB830008BF20F088
:100C00000100704711F0804F21D113F13872BCBF41
:100C100001F00040704741F480114FEA5252C2F196
:100C20001802C2F1200C10FA0CF320FA02F018BFDF
:100C300040F001004FEAC1234FEAD32303FA0CFC32
:100C400040EA0C0023FA02F34FEA4303CCE77FEAC1
:100C5000625307D150EA01331EBF4FF0FE4040F40B
:100C60004000704701F0004040F0FE4040F40000BA
:100C7000704700BF53B94AB9002908BF00281CBFFC
:100C80004FF0FF314FF0FF3000F074B9ADF1080CB8
:100C90006DE904CE00F006F8DDF804E0DDE902239A
:100CA00004B070472DE9F047089E04468846002BA3
:100CB00040F085808A42154648D9B2FA82F24AB19C
:100CC000C2F1200701FA02F320FA07F7954047EA3C
:100CD000030894404FEA154E230CB8FBFEF71FFAA9
:100CE00085FC0EFB178843EA084307FB0CF1994289
:100CF00009D9EB1807F1FF3080F0E380994240F208
:100D0000E080023F2B445B1AA4B2B3FBFEF00EFB63
:100D1000103344EA034400FB0CFCA44509D92C1908
:100D200000F1FF3380F0CB80A44540F2C880023848
:100D30002C4440EA0740A4EB0C0400271EB1D44029
:100D40000023C6E900433946BDE8F087002A53D0A6
:100D5000B2FA82F2002A40F0B680491B4FEA154EE3
:100D60001FFA85F80127B1FBFEFC230C0EFB1C11BA
:100D700043EA014308FB0CF1994207D9EB180CF147
:100D8000FF3002D2994200F2EC808446591AA3B295
:100D9000B1FBFEF00EFB101443EA044408FB00F81C
:100DA000A04507D92C1900F1FF3302D2A04500F26B
:100DB000DC801846A4EB080440EA0C40BEE78B42F6
:100DC00008D9002E78D00027C6E9000138463946F8
:100DD000BDE8F087B3FA83F77FB98B4202D3824232
:100DE00000F2BD80841A61EB030301209846002EB7
:100DF000A9D0C6E90048A6E7FFDEC7F12005BB4041
:100E000022FA05FC4CEA030C01FA07F420FA05F873
:100E100021FA05F34FEA1C4E48EA0404B3FBFEF93D
:100E2000210C0EFB19331FFA8CF841EA034309FB2E
:100E300008FA9A4502FA07F200FA07F10BD91CEBFF
:100E4000030309F1FF3080F088809A4540F28580E5
:100E5000A9F102096344A3EB0A03A4B2B3FBFEF0B9
:100E60000EFB103344EA034400FB08F8A04508D900
:100E70001CEB040400F1FF336BD2A04569D90238A2
:100E8000644440EA0940A4EB0804A0FB02894C45F5
:100E9000C6464B4654D351D0002E69D0B1EB0E025A
:100EA00064EB030404FA05F522FA07F3FC401D4342
:100EB000C6E90054002746E73746304643E7184660
:100EC00037E707461FE7C2F1200320FA03F79540F2
:100ED00001FA02F021FA03F34FEA154E3843010CF0
:100EE000B3FBFEF71FFA85F80EFB173341EA034107
:100EF00007FB08F38B4204FA02F407D9691807F1DB
:100F0000FF3C28D28B4226D9023F2944CB1A81B21A
:100F1000B3FBFEF00EFB103341EA034100FB08F384
:100F20008B4207D9691800F1FF3C10D28B420ED9D1
:100F300002382944C91A40EA074714E74145ABD2B1
:100F4000B8EB020E69EB0C0201381346A4E76046C9
:100F5000F0E7184695E76746D8E781467BE73846CD
:100F600045E7ACF1020C2B4410E702382C4421E792
:100F70003746E8E6704700BF0000000000000000B0
:100F800001F0FF01102A2BDB10F0070F08D010F83A
:100F9000013B013A8B422DD010F0070F42B3F6D13E
:100FA000F0B441EA012141EA014122F007047FF057
:100FB00000070023F0E80256083C85EA010586EAAE
:100FC000010685FA47F5A3FA87F586FA47F6A5FAEA
:100FD00087F68EB9EED1F0BC01F0FF0102F00702F6
:100FE00032B110F8013B013A83EA010313B1F8D1A1
:100FF0000020704701387047002D06BF3546033882
:10100000073815F0010F07D1013015F4807F02BFBA
:10101000013015F4C03F0130F0BC0138704700BF0B
:10102000704708B5FFF7FCFF08BD08B500F0E4FA0B
:1010300008BD000008B53A4B1B78DB0702D53948DC
:1010400002F0ACFC01224FF40061374808F0CDFB00
:1010500001224FF48061344808F0C7FB01220421CB
:10106000314808F0C2FB012202212F4808F0BDFBE5
:10107000012280214FF0904008F0B7FB0122114679
:10108000294808F0B2FB40224FF480614FF09040B5
:1010900008F0ABFB40224FF400714FF0904008F095
:1010A000A4FB40224FF480714FF0904008F09DFB6C
:1010B00040224FF400411C4808F097FB40224FF4B7
:1010C00000511A4808F091FB40224FF48041174824
:1010D00008F08BFB40224FF40041144808F085FBD8
:1010E000402204214FF0904008F07FFB402208216D
:1010F0004FF0904008F079FB402211464FF09040AD
:1011000008F073FB0A22002109480AF0A5FA0C2214
:10111000002108480AF0A0FABDE8084000F0A0BB92
:1011200062130020AEB60008000400480008004822
:10113000641200206E1200202DE9F04F634F644CC2
:1011400087B0B84600264FF0010A254606F1FF3960
:10115000B9F1040F04D8DFE809F05D60626469004A
:101160004FF400632383012007F047F94FF09043C9
:101170005848D3F810E0D3F810B0196922690192E9
:101180000269029202690392026904921A69059245
:101190004FEA1B2B8909019AD3F810C018690BF08C
:1011A000020B01F00401CEF3802E120B4BEA010179
:1011B00041EA0E0102F0080E029A41EA0E014FEADE
:1011C000522E039A0EF0100E41EA0E0E510A049AA6
:1011D00001F020014EEA010E510A059A01F040018A
:1011E0004EEA010E510101F080014FEA4C1C4EEA1B
:1011F000010E0CF4807CC0004EEA0C0C00F4007070
:101200004CEA0000B9F1040F13D8DFE809F051549B
:1012100056585B004FF48063A4E70423A2E702233F
:10122000A0E74FF0904380221A839CE7A4F818A00F
:1012300099E74FF400636B83B8F80030834208D01D
:10124000254BA8F8000083F800A006F0C7F8234B50
:1012500018800136062E08F102087FF477AF1E4C85
:101260002378FBB11D4B188806F0BDF8052819D965
:1012700000211B4D8C46002205F801CB3E4610464E
:1012800036F8023B0B4103F00103834001301A435F
:101290000628D2B2F4D101310A2905F8012CEAD18D
:1012A0000023237000F0DEFA012007B0BDE8F08FC4
:1012B0004FF48063BFE70423BDE70223BBE780222E
:1012C0005A83B9E7A5F81AA0B6E700BF6E1200204E
:1012D000000400480008004860120020621200204C
:1012E00064120020014B185C704700BF641200209C
:1012F0002DE9F84F1A4C2378D80702D5194802F087
:101300004DFB194FDFF868A0DFF86880DFF86890C0
:1013100000252378D90703D52946504602F03EFB25
:1013200017F801BB002623784BFA06F2D20703F028
:10133000010311D513B1484602F030FB0136062EE9
:10134000F1D12378DB0702D5084802F027FB0135ED
:101350000A2DDED1BDE8F88F002BEFD04046EBE739
:1013600062130020BBB600086412002041C10008CF
:10137000CAB60008D2B60008D0B60008082823D89C
:10138000DFE800F02D05070A0F14191E20000120C8
:101390007047144B18787047134B187800F0010011
:1013A0007047114B1878C0F3400070470E4B187807
:1013B000C0F3800070470C4B1878C0F3C000704732
:1013C0000A4BEAE7094BEDE70123093803FA00F07D
:1013D000074B1B68184214BF0120002070470020F3
:1013E000704700BF7A120020841200207B12002078
:1013F000801200202A490A78F8B5002A33D1294CF6
:101400002078FFF7BBFF07466078FFF7B7FF064677
:10141000A078FFF7B3FF0546E078FFF7AFFF224B58
:101420003B4403EB460303EB8503204D13F83040A8
:101430002B782BB91E4E3078013000F0030030704D
:1014400001330320B3FBF0F000EB40001B1A1948F6
:101450002B700378013303F00F030370164B1868E9
:1014600004EB40041C60013202F001020A701349CF
:101470000878FFF783FF02464878FFF77FFF0446AE
:101480008878FFF77BFF800000EB44000244C878B7
:10149000D2B2FFF773FF02EBC000C0B2F8BD00BFCD
:1014A0007A120020040C0020080C00207C1200207E
:1014B0007B1200208412002080120020000C0020EB
:1014C00038B50D4600F054F8044670B10C4B18685E
:1014D00000F0BAFA58B10A2125B1A92000F02BFC7E
:1014E0002C4602E0AA2000F026FC204638BD1DB1A3
:1014F0004E2000F030FCF3E74B2000F02CFCF4E72A
:1015000090120020A0F5BB40273810B503282CD836
:10151000DFE800F0020914208C78CCB1002000F044
:101520006BF9002414E08C78012054B100F00AFF1C
:1015300003220221012000F085F9F2E78C780220D5
:10154000F3E700F009FF03220221012000F07AF9FD
:10155000204610BD8C78E52024B100F009FB04F092
:1015600069FBDEE700F08AFBF2E70124F0E7000008
:10157000134B1B7810B50C46A3B1022000F0D4FE2B
:1015800040B1104A13781CB101331370012010BD13
:10159000013BFAE70C4A138814B101331380F5E7D5
:1015A000013BFBE731B14E2000F0E2FA4E2000F0A3
:1015B00065FBEBE74B2000F0DBFA4B20F7E700BFC1
:1015C00088120020180C00201A0C002008B518B151
:1015D000012809D0012008BD032011B100F0B2FE9E
:1015E000F8E700F0B9FEF5E70029024B18BF014605
:1015F0001970EFE78812002070B51B4A1B4C167853
:1016000023888AB0254646B3E3B923221849194EE8
:1016100001A80AF013F8FFF7EDFE0AAB1844164BC9
:1016200010F8244C1B7830781C44E4B2A04209D056
:1016300002F0CAF902F04CFB204602F0C5F902F0B4
:1016400027FC34700D4A2B8811880133B3FBF1F26B
:1016500001FB12332B800AB070BD002BFBD002F0CF
:101660002DFA2680F7E700BF88120020861200209E
:1016700068B6000885120020180C00201A0C002003
:10168000A0F58073B3F5F85F10B526D210F4805F33
:1016900000F4007400F4807300F4806100F40062D0
:1016A0000DD0002B0CBF002010200CB140F020000A
:1016B00009B140F040000AB140F0800010BD181C94
:1016C00018BF01200CB140F0020009B140F0040045
:1016D000002AF3D040F00800F0E70020EEE710B554
:1016E0000C46FFF7CDFF2346BDE810401847000029
:1016F000A0F1E003072B10B5044600D940B9054915
:101700002046FFF7ECFFE0B2BDE8104000F030BA31
:101710000149F6E7671D0008B521000810B5044629
:10172000C0B200F0ABFAA4F1E003072B00D92CB94A
:1017300003492046BDE81040FFF7D1BF0149F8E753
:10174000791D0008C721000810B50446FFF7D0FF37
:10175000392C03D14FF4487006F04FFE2046FFF7B6
:10176000DDFF10BD0120704708B5FFF7CBFE08BDB7
:10177000704708B5FFF7FCFF08BD000013B502ABCA
:1017800003E903000F4B1B78B3B99DF802300098B2
:1017900073B16AB100F058FE04460146009800F0AB
:1017A0000BFE0099204602B0BDE8104001F0DEBCFF
:1017B00000F028FE0446F4E7009800F045FE00998A
:1017C000F1E700BF8A120020034610B400885C884D
:1017D0000A4640EA044099885DF8044BFFF7CEBF03
:1017E0000120704710B500210446FFF7EDFF2146A8
:1017F000FFF7BFFF10BD000038B5054608480124BB
:1018000000EBC510AC400022102102F0C1F9E0B29B
:1018100001F092FA2046BDE8384000F04CBD00BF10
:101820001C0C002010B5012404FA02F204FA01F1A4
:10183000114304FA03F331EA00020CBF1843984342
:1018400010BD000008B513460A460146034800686B
:10185000FFF7E8FFBDE8084000F04EBD9012002001
:10186000FFF7DFBBFFF7E1BB7047000010B500F0EA
:10187000CBFC02F089FD05F0B1FD002204460321F6
:10188000094802F085F9FFF7EFFF204605F0ABFDB0
:10189000F92805D902F012F9BDE8104005F0AABDFB
:1018A0000A2006F0AAFDF0E79C0D002038B50121C2
:1018B0000546FFF789FF29460446FFF755FF08B99B
:1018C000002038BD2946204602F0A4F80028F7D0B1
:1018D0002946204602F0F6FD0028F1D02946204690
:1018E00004F03BFD0028EBD02946204605F0C4FA61
:1018F0000028E5D02946204604F046FD0028DFD028
:101900002946204605F036FA0028D9D02946204637
:1019100004F0F6FA0028D3D0AB785BB145F6DF438C
:101920009C422FD00AD8B4F5B84F16D045F60143E3
:101930009C4215D02846FFF715FFC2E745F65C53D9
:101940009C4225D045F65D539C421ED045F65B5324
:101950009C42EFD101F0D0F9ECE7FFF787FFAFE74A
:101960000D4A1078C0F3000383F0010363F3000015
:1019700010F00104107003D0084802F00FF89FE740
:101980000748FAE701F056FA9AE701F0A9F9D1E71A
:1019900001F0B5F9CEE700BF62130020F0B80008EF
:1019A00001B9000808B505F048FC00F07BF8BDE877
:1019B000084002F083B808B500F079F8BDE80840A7
:1019C00005F040BCF8B5174B17491F5C174BC20810
:1019D00000F007008D5C16499B5C8E5C034105415D
:1019E00013F0010446FA00F005F0010500F00106CD
:1019F00002D0E12000F0BCF815B1E62000F0B8F804
:101A0000384600F0A8F915B1E62000F037F914B116
:101A1000E12000F033F926B12C20BDE8F84000F0B9
:101A20009AB9F8BD33B9000813B90008B3B9000872
:101A300023B9000800F00F030A3B052B8CBF3030A0
:101A40005730C0B2FFF7BEBF030C002B16BF1846BD
:101A500000231023020A1CBF1046083302091EBFD0
:101A600004331046DBB282081EBF02331046DBB2DD
:101A700042081CBF0133DBB218467047704708B5F7
:101A8000FFF7FCFF08BD0120704708B5FFF7FBFF1B
:101A900008BD704710B50446FFF7F1FF2046FFF779
:101AA000F4FF10BD08B50020FFF7F4FF08BD08B52E
:101AB00005F038FAFFF7EEFF08BD000038B505F075
:101AC00031FA104B1A788242044619D00E4D187024
:101AD0002B78580711D5D9070FD50C4801F05EFFB8
:101AE0002B78DA0709D52146094801F057FF2B78F2
:101AF000DB0702D5074801F051FF2046FFF7CAFF78
:101B000038BD00BF8912002062130020C3B900084D
:101B1000CEB9000841C1000810B586B06C4684E813
:101B200003009DF802300BB101F010F80023ADF86E
:101B3000163094E80300ADF8141089B20490ADF8A3
:101B40000C0004AC29B994E8030000F02BFF06B0A8
:101B500010BDBDF80C204FF6FF739A42F3D020461B
:101B6000FFF73EFE0028EED1F1E7008800F08EBCC2
:101B700010B5044600287AD0822813D105F0D2F996
:101B8000810774D4392000F07FFF01F00FF84FF483
:101B90007A7006F032FC392000F07EFFBDE810407C
:101BA00001F004B883280ED105F0BCF9C2075ED459
:101BB000532000F069FF00F0F9FF4FF47A7006F04F
:101BC0001CFC5320E8E784280ED105F0ABF943074D
:101BD0004DD4472000F058FF00F0E8FF4FF47A7032
:101BE00006F00BFC4720D7E7031FDBB2A02B12D86F
:101BF00004F09CFF00283AD11D4B2146186805F0DF
:101C000027FA20B1204600F047FF00F0CFFF204622
:101C100000F03AFFC2E700F12003DBB2072B07D840
:101C200000F007040120A040C0B200F063FFB5E758
:101C300000F15B03DBB2022B05D80E4ABDE8104071
:101C4000D05C05F0C7B900F15803DBB2162B06D8FB
:101C5000094ABDE8104032F8130005F0CBB9EC2872
:101C600005D902F08FFDBDE8104002F05FBE10BD47
:101C7000B80D0020D3B90008D6B9000808B500286F
:101C800058D082280FD105F04DF9810752D539205F
:101C900000F0FAFE00F08AFF392000F0FDFEBDE8FA
:101CA000084000F083BF83280AD105F03BF9C20742
:101CB00040D5532000F0E8FE00F078FF5320ECE719
:101CC00084280AD105F02EF9430733D5472000F0C8
:101CD000DBFE00F06BFF4720DFE7021FD2B2A02A35
:101CE000DBD900F12002D2B2072A07D800F007039F
:101CF00001209840C0B200F005FFD0E700F15B0280
:101D0000D2B2022A04D80020BDE8084005F062B92A
:101D100000F15802D2B2162A04D80020BDE80840CB
:101D200005F068B9EC2805D902F08AFDBDE8084045
:101D300002F0FCBD08BD38B505460C46FFF718FF9C
:101D40001CB92846FFF79AFF38BD0A20013C06F06F
:101D500054FBA4B2F4E708B539280CBF5021002188
:101D6000FFF7E9FF08BD08B528B100F0C3FEBDE8E4
:101D7000084000F01BBF08BD08B528B100F0C2FE46
:101D8000BDE8084000F012BF08BD00002DE9F04793
:101D90008779857881460C4600F09CFE3F09804695
:101DA000C8B1A846BDB1C4F3072303F0F003402B2C
:101DB00004D004F12003DBB2072B1ED9AF4B5B78B4
:101DC0005E071AD4022000F04BFF00F083FE80F083
:101DD00001005FFA80F8C4F303330B2B3FD8DFE830
:101DE00013F00F000F0060006000C600DC003E0032
:101DF0003E00E6003D014F014F014FF00008EAE7C9
:101E0000C4F30723C4F3032613F0F00F18BF360101
:101E1000E7B295B156B107F12003DBB2072B30468C
:101E200000D93FB900F066FE00F0C0FE3846FFF76B
:101E30009FFE14E000F07AFEF6E73846FFF71EFF3B
:101E40006EB107F12003DBB2072B304600D917B97A
:101E500000F058FE01E000F071FE00F0A7FEC4F3B0
:101E60000334083C032C03D805F05CF8FFF712FE9E
:101E7000B8F1000F00F05B8100F024FE10F00100CB
:101E800040F0558189F8020000F014FE00F05AFA83
:101E9000484600F063F900F00DFEBDE8F04700F0A1
:101EA0005BBAC4F3072303F0F003C4F30326202B2B
:101EB0005FFA84FA18BF3601BAF1000F0FD0BAF1F9
:101EC000010F3CD0002D44D0002F3BD099F80630B4
:101ED000D9073CD56FF3071389F8063032E0674B1A
:101EE0005B7858070FD53DB126B1304600F002FEB1
:101EF00000F05CFE00209AE72846FFF7BFFE002EA8
:101F0000ADD03046A4E785B137B900F025FE3043A7
:101F1000C0B2FFF728FFA2E7012FF6D100F01CFEA8
:101F20003043C0B200F024FE99E72FB900F032FE32
:101F30003046FFF721FF92E7012F90D0F6E71DB161
:101F4000052F8CD83046E4E7042F88D8F0E75046B8
:101F50006DE7002FECD0BAF1390F0CBF4FF4487089
:101F6000012006F04AFA5046FFF788FE77E7C4F3EF
:101F7000812343B1012B7FF472AF65B1C4F3090033
:101F800005F038F86BE725B1C4F3090005F022F835
:101F900065E72846FAE72846F2E7E0B225B102F005
:101FA000F1FB02F0C3FC5AE702F04AFCF9E714F433
:101FB000407F25D1002D7FF452AFE206C4F34210DA
:101FC00048BF0F254FEA800048BF854004F00F034B
:101FD000C4F3812248BFED438340022A45EA03004F
:101FE00008D00AD8012A02D000F070F937E700F0D3
:101FF00065F934E700F072F931E700F05CF92EE79B
:10200000C4F30122D3B2F5B102F00103002B3FF477
:1020100026AFC4F34210830004F00F0000FA03F26D
:1020200014F010001CBF0F209840C4F3812318BF88
:10203000C043022B40EA02000AD00CD8012B04D086
:1020400000F0A8F90BE75B08E0E700F09BF906E772
:1020500000F0A8F903E700F04FF900E7E7B2C4F396
:10206000032625B1304600F06DF9384651E7384671
:10207000FFF782FE304600F06FF9F0E6142D0020E5
:10208000E6B2A6F1F003042B3DD8DFE803F003220B
:102090000E151E003DB1042F3FF6E1AEC4F304203F
:1020A00000F066F9DBE6052FF6E7C4F30420002D07
:1020B000E1D100F047F9D2E625B1C4F3042000F0E5
:1020C0003BF9CCE600F024F9C9E61A4B5B785B07D4
:1020D00004D5C4F30420002DCDD0EAE74DB1C4F3FC
:1020E0000425284600F02EF90321284600F094FD2F
:1020F000B5E6012000F0B4FD012F7FF6B0AE02205E
:1021000000F0AEFDABE62DB10FB130468FE6C4F363
:102110000420CEE747B1392E0CBF4FF448700120A0
:1021200006F06BF930461FE7C4F30420A3E7BDE8CF
:10213000F08700BF142D002038B501880446807850
:1021400000F0B0F9054600F035F900F0B3F8294683
:102150002046BDE83840FFF719BE000037B5858836
:1021600004460146022201A809F068FAF5B1BDF85B
:1021700004204FF6FF739A4218D02046FFF796FBD3
:1021800070B900F0A7FC88B1A3787BB1084B5B78ED
:102190005B070BD4022003B0BDE8304000F060BD07
:1021A0002046FFF7C9FF2046FFF71CFB03B030BDF8
:1021B000142D002008B528B100F0B8FCBDE8084097
:1021C00000F0F4BC08BD08B528B100F0B7FCBDE8CC
:1021D000084000F0EBBC08BD08B5002004F0FAFE92
:1021E000002004F007FF00F0B1FC00F0DFFC02F07B
:1021F000D3FCBDE8084002F099BB08B500F054FCE0
:10220000BDE80840FFF7E8BF08B500F089FCBDE86D
:102210000840FFF7F2BFC0F303320E3202F00F02A4
:10222000092A10B5C4B21BD8012101FA02F340F209
:102230000332134203D113F010000DD110BDF02C66
:1022400010D004D8E72C8CBF00200120F6E7F42C36
:1022500014BF00200120F1E7E72C03D9F12CF7E7A8
:102260000020EBE70846E9E708B5008800F00EF922
:10227000BDE80840FFF7CFBF82B002AB03E903001F
:1022800002B0704782B002AB03E9030002B07047AE
:10229000704708B5FFF7FCFF08BD000008B5FFF761
:1022A000F8FF034B1860BDE80840FFF795BF00BF7B
:1022B0008C1200207047FFF7F1BF0000024B1B6833
:1022C0001843FFF7EBBF00BF8C120020024B1B68C6
:1022D0001840FFF7E3BF00BF8C120020024B1B68C1
:1022E0005840FFF7DBBF00BF8C120020704708B5D5
:1022F000FFF7FCFF08BD000008B5FFF7F8FF034B30
:102300001860BDE80840FFF767BF00BF90120020CB
:102310000020FFF7F1BF18B9B1FA81F0400970470A
:10232000C84000F001007047024B01461868FFF7F3
:10233000F2BF00BF90120020012303FA00F0FFF764
:10234000DBBF0000012303FA00F0024B1B681843B7
:10235000FFF7D2BF90120020012303FA00F0034BD5
:102360001B6823EA0000FFF7C7BF00BF90120020E0
:10237000012303FA00F0024B1B685840FFF7BCBF73
:1023800090120020024B1B681843FFF7B5BF00BF37
:1023900090120020024B1B681840FFF7ADBF00BF32
:1023A00090120020024B1B685840FFF7A5BF00BFEA
:1023B0009012002070470000C0F3072303EB430393
:1023C00037B500EB430000F0FF0000F007030122E7
:1023D0009A40C0080A4B00EB8000D2B21844002497
:1023E000057821FA04F343F300036B4013400134F2
:1023F0006B40052C00F8013BF2D103B030BD00BFAB
:1024000094120020C0F3072303EB430313B500EB42
:10241000430000F0FF0000F007040A49C00800EB89
:10242000800000220144104611F8013BE34003F014
:102430000103934001321843052AC0B2F4D102B01F
:1024400010BD00BF941200200E4B73B51E680E4BDA
:10245000ADF804001B681F241E4326FA04F3DB07B3
:10246000E5B206D414F1FF34F7D20025284602B0B5
:1024700070BD0199284600F08BFE80B20128F1D092
:10248000F4E700BF901200208C12002007B5ADF8D1
:1024900004000198FFF7D8FF019903B05DF804EB41
:1024A00000F076BE13B5104BADF804101B782BB1BD
:1024B000019802B0BDE81040FFF7E8BF70B1019885
:1024C000FFF7C2FF044601460198FFF775FF019927
:1024D000204602B0BDE8104000F05ABE0198FFF758
:1024E00091FF0446F3E700BF8A120020F8B50C4BB9
:1024F0000C4E1C780C4D3378A34200D1F8BD05EB8F
:10250000C40335F834005F889A88D98840EA0740C8
:1025100042EA01410134FFF7B5FE04F00704EAE79F
:102520000513002004130020C4120020064B10B431
:1025300018885C889A88D98840EA044042EA0141B8
:102540005DF8044BFFF79EBEBC120020254B9A7924
:1025500012F0F00F2DE9F3410CD19A7852B1224AD2
:10256000224F1278224CDFF88CE04FF6FF7C39784E
:10257000914202D102B0BDE8F0819D886DB3187818
:102580005E788DF804008DF80560BDF80410614593
:1025900023D004EBC20191F80180B0451DD114F89D
:1025A0003260864219D18878B8B98888401BBEF855
:1025B000005080B2854210D99879012262F3071049
:1025C00098718B79074862F307138B71FFF7C6FD8B
:1025D00002B0BDE8F041FFF789BF013202F0070207
:1025E000C5E700BFBC120020051300200413002023
:1025F000C4120020B40D00202DE9F04FBF4E91B061
:102600000446014606220AA809F018F8B388328861
:1026100020786178A778B4F80490ADF80C2096F88B
:1026200000E096F801C0B046002B00F0FB8092B2AB
:102630004FF6FF7B5A4500F0F580B578002D00F08D
:10264000F180B279019202F0F00AAD4AA9EB0303DE
:1026500012889BB29A4240F29A80BAF1000F56D18A
:102660008DF810E08DF811C0BDF810305B45BA460A
:1026700019D0B6F800C023889C4514D1002F40F033
:1026800056819DF80420012363F30712B271FFF70E
:102690004DFF3046FFF762FDB379A3710025284650
:1026A00011B0BDE8F08FB9F1000F40F04481002F68
:1026B000F4D098F8063043F0010388F80630EDE7CF
:1026C00002EBC30696F801C08C4506D112F833C060
:1026D000844502D1B678002EE0D1013303F0070320
:1026E0003CE110F4706F00D07BB12033DBB2072BDC
:1026F0000BD92046FFF732FDAA4606E010F4706FB2
:10270000F3D0A27912F0F00FEFD15546C7E78DF85C
:1027100014E08DF815C0BDF814305B4511D0318838
:10272000238899420DD167B9019BA3712046FFF719
:1027300015FD08222146304608F080FFFFF7F6FE1F
:10274000ADE72046FFF790FDE8B1E7B198F8063015
:102750001F2B0DD9B8F80020ADF8302000228DF8DD
:102760003220ADF834908DF836300CA8FFF7F6FC27
:1027700008222146614808F061FFFFF7E7FEFFF7F6
:10278000D5FE01258BE72046FFF7E8FCF9E7BAF113
:10279000000F17D10AAB8DF82A70ADF82C908DF888
:1027A00028008DF8291093E80300FFF765FD3046F7
:1027B000FFF7D4FC08225146304608F04DFFFFF7E2
:1027C000B5FEA2E78DF818E08DF819C0BDF81830F5
:1027D0005B450FD03188238899420BD157B9019BB3
:1027E000A3712046FFF7BAFC08223946304608F0AC
:1027F00033FF54E72046FFF737FD0028C3D0002FF2
:10280000C1D098F806301F2BB2D9B8F80020ADF827
:10281000382000228DF83A20ADF83C908DF83E30FB
:102820000EA8A3E7002B6DD08DF81CE08DF81DC01D
:10283000BDF81C504FF6FF72954263D098F80250D5
:10284000002D5FD12E4EA9EB030336889BB29E422A
:1028500040D93D46002F96D08DF820E08DF821C05C
:10286000BDF82030934225D0B8F8002023889A4242
:1028700020D198F80630DA0716D413F0F00F13D0F1
:1028800003F0F002F02A1CBFC3F303120132A3715C
:1028900018BF62F30713204618BFA371FFF75EFC51
:1028A00008222146154847E708222146134808F028
:1028B000C5FEF4E62046FFF7D7FC00287FF458AFAA
:1028C00098F80630204643F0010388F80630FFF7F9
:1028D00045FCE4E68DF82A70ADF82C908DF82800C0
:1028E0008DF829100AAB93E80300FFF7C5FC082216
:1028F0002946024808F0B0FE20E700BFBC120020C5
:10290000B40D0020002F3FF43EAF2046FFF7ACFC93
:10291000054600283FF437AF082221461D4808F03D
:102920008DFE1C48FFF721F9FFF710FE06E7B9F10D
:10293000000F3FF4BEAE8DF824008DF82510BDF8D1
:1029400024204FF6FF739A423FF4B1AE002F7FF47C
:10295000B0AE114A114B17781B78114ABB427FF475
:10296000AFAE8DF828008DF829100A98FFF78EFD7C
:10297000C0F30332C3B2032A3FF6BBAE01A151F844
:1029800022F000BFE3260008E3260008FD26000829
:10299000FD260008BC1200200413002005130020AF
:1029A000C4120020F0B587B06C4684E803002046CE
:1029B000FFF722FE304E314D074688B1BDF8043096
:1029C000BDF80020ADF8102043B192B24FF6FF736E
:1029D0009A4203D094E80300FFF754FC284C45E0EA
:1029E00094E8030004AB83E80300BDF80420BDF8BD
:1029F0001010ADF80C10002AF0D089B24FF6FF721B
:102A00009142EBD030782A78441C04F007049442B9
:102A10000AD019461A4B082203EBC00008F00EFE3C
:102A20003470FFF763FDD9E7FFF7EEFB0822394664
:102A3000144837702F7008F00FFECFE704EBC0008A
:102A4000FFF7DAFDB0B12B7834F8330004EBC303A1
:102A50005F889A88D98840EA074042EA0141FFF737
:102A600011FC2B78013303F007032B70287833789F
:102A70008342E3D107B0F0BD04130020051300200A
:102A8000C4120020BC120020024B0146186804F05A
:102A90005FBB00BFB80D0020024B0146186804F070
:102AA00071BB00BFB80D0020014B186804F084BB57
:102AB000B80D0020024B93F90000C0F3C700704727
:102AC00046130020024B187800F00700704700BF43
:102AD00046130020034B187810F0070018BF0120A0
:102AE000704700BF46130020014B1878704700BFA5
:102AF00048130020024A137818431070704700BF33
:102B000048130020024A137823EA0000107070472F
:102B100048130020014B1870704700BF4813002075
:102B2000014B00221A70704748130020024A1378A4
:102B300018431070704700BF49130020024A1378F1
:102B400023EA00001070704749130020014B002257
:102B50001A70704749130020014B1878704700BF66
:102B600047130020704708B5FFF7FCFF08BD0000C1
:102B700008B5064B5B785B0706D4054B1978814294
:102B800002D01870FFF7EFFF08BD00BF142D002022
:102B90004713002008B5044B1A781AB100201870AA
:102BA000FFF7E1FF08BD00BF4713002010B5124B2F
:102BB00012491B780978124C0B4312492068097896
:102BC000037031B10B43037004F024FA08B1FFF72E
:102BD000E1FF24680C492022204608F021FD48B17D
:102BE00021462022084808F029FD2046BDE8104073
:102BF00004F0A4B910BD00BF481300204913002001
:102C0000B80D00204713002026130020704708B598
:102C1000FFF7FCFF08BD00000A4A5278520710B5C2
:102C20000CD4094C41EAC0012170FFF78BFB94F9E9
:102C30000000C0F3C700FFF7EAFF10BDBDE8104079
:102C4000FFF780BB142D00204613002008B5034B6E
:102C500000201870FFF7DBFF08BD00BF46130020FF
:102C600008B50C4A92F9003023EA000040B2107017
:102C700042070ED1DBB283420BD0074B5B785B0778
:102C800007D4C0F3C700FFF767FBBDE80840FFF7B4
:102C9000DDBF08BD46130020142D00200D4A5378D7
:102CA000C3F38001814210B5044612D060F3820361
:102CB0005370108800F050F80220FFF7D1FF064B48
:102CC0001B78DB0705D521460448BDE8104000F01D
:102CD00065BE10BD142D00206213002004BA000848
:102CE000044B5878C0F3800080F0010000F0010030
:102CF000FFF7D4BF142D00200120FFF7CFBF002025
:102D0000FFF7CCBF08B502F06FF94FF6FF71002056
:102D1000BDE8084001F0B2BF08B5002001F061FF36
:102D20004FF6E963C31A5842584108BD022001F02A
:102D300049BF032001F046BF0146032001F090BFC8
:102D400010B5042001F03EFF0446222001F03AFFB6
:102D500044EA002080B210BD10B5C1B20446042080
:102D600001F07EFF210A2220BDE8104001F078BF6B
:102D7000072001F027BF0146072001F071BF01467F
:102D80000F2001F089BF0146132001F085BF00200C
:102D9000FFF7F9BF08B50020FFF7F1FFFFF7F7FFD6
:102DA00008BD000010B502F01FF94FF6E9610020E0
:102DB00001F064FF0021022001F052FF00210320F6
:102DC000002401F04DFF1A4B214604201C6001F045
:102DD00047FF2146222001F043FF2146052001F054
:102DE0003FFF2146062001F03BFFFF21072001F0B5
:102DF00037FF2146082001F04FFF21460D2001F04A
:102E00002FFF2146182001F047FF2146172001F02F
:102E100027FF21461C2001F03FFF2146202001F022
:102E20002DFF2146182001F037FFFFF7B3FF10BD3B
:102E30008C120020FFF7B6BF01460E2001F010BF34
:102E400008B504F097FA024B1860024B186008BDF1
:102E5000501300205413002008B504F08BFA024BE5
:102E60001860024B186008BD501300204C1300205E
:102E70007047704708B5FFF7FCFF08BD704708B5FD
:102E8000FFF7FCFF08BD000008B5054800F066FA32
:102E900002F0A8F8FFF7ECFFFFF7ECFF08BD00BF5A
:102EA000B17A00080120704708B5FFF7FBFF08BDA5
:102EB0007047704708B5FFF7FBFFFFF7FAFF08BD43
:102EC00008B500F071FAFEF7E4FD00F0D3FEBDE8AE
:102ED000084003F07FB908B504F030FAFEF7AAF80D
:102EE000FFF7EEFF02F0DEFE03F0DCFE03F0BCFEB7
:102EF000FFF7C5FF08BD00002DE9F04F87B0FEF7D2
:102F00001BF9074608B1FFF79BFFDFF8BCB00025AF
:102F1000D8465FFA85F94846FEF7E4F91BF8016BDD
:102F20008642824637D0274B1B789B0701D5FEF798
:102F3000DFF90023012486EA0A063442D9B225D0FB
:102F40000191FFF7B1FF0199A8B11AEA040F14BF6C
:102F5000012300238DF808108DF80A308DF80990B0
:102F600004F03CFA40F00100ADF80C0002AB93E82D
:102F70000300FEF7D1FD18F805305C4008F8054065
:102F8000381C18BF012007B0BDE8F08F0133640082
:102F9000062BE4B2D1D101350A2DBAD14FF6FF7319
:102FA000ADF8103000238DF8123004F017FA40F01D
:102FB0000100ADF8140006AB13E90300FEF7ACFD09
:102FC000DEE700BF621300205813002008B501F0AF
:102FD00017FA0020BDE8084003F00ABE08B5FFF765
:102FE0008BFFFFF7F3FF02F0F3FE03F07BFE08B167
:102FF000FFF732FF01F00EFDBDE80840FEF75EBDB1
:1030000010B500F0D1F8B0F5A24F04462BD2B0F5C0
:10301000A04F71D2E72812D8E0280AD2A7280AD8F0
:10302000A5285AD2012804D003B233B1032898BF8F
:103030000024204610BDBE2856D90024F9E7B0F57B
:10304000005F08D2B0F5807F03D2ED28F5D340F4BD
:10305000A044A4B2EDE7B0F5804FEED3C0F30B046B
:1030600044F42044E5E7B0F5AA4F11D2B0F5A84FDB
:10307000C3B261D2B0F5A64F54D2B0F5A44F4CD331
:103080009A08012403F003039C4044EA421441E0FF
:10309000B0F5B24F0ED2B0F5B04F52D2B0F5AC4F42
:1030A000CBD2C0B200F002F9040204F4F85444F4A4
:1030B0000054BEE7B0F5B44F48D3A0F5C0439BB26F
:1030C000B3F5005FB9D2C0F3042000F0EFF80002BE
:1030D00000F4F850E4B20443E9E75B34E4B2214B76
:1030E0001C5D44F48044A4E75834E4B21E4B33F82A
:1030F000144044F488449CE7C2B2C2F381035B01EC
:10310000C0F3011443EA042402F00302012303FA8A
:1031100002F2144344F40C449BE74AF2F10040EA03
:10312000032486E79A08012403F003039C4044EA41
:10313000421444F40A448CE74AF2F40444EA0324B7
:1031400077E74AF2F00040EA042482E700F00F003B
:1031500000F0ACF8C4F3031440EA042444F410442F
:1031600077E700BF19BA00081CBA00083C22504398
:10317000C1F30723062202FB030353FA81F3034A38
:1031800032F8130082B002B0704700BF10B70008D9
:1031900007B5ADF804100199FFF7E8FF03B05DF83B
:1031A00004EBFFF72DBF0000822825D00CD8312872
:1031B00063D004D8292859D02A2865D070473528EB
:1031C0004DD0392818D07047E32830D004D8E028F3
:1031D00019D0E22826D07047E62832D0E72835D02B
:1031E000E42832D1304B5A7891072ED51B7813F052
:1031F000100F08BFE72012E02B4B1B7813F0030FD2
:1032000018BFE0207047284A1378D90743D4527872
:1032100012F0010F19D013F0100F08BFE32018BFF0
:1032200000207047204B1B7813F0040FF2E71E4A72
:103230001378590731D45278D20730D413F0100FD5
:10324000EDE7194B1B781A07D1D47047164A13784B
:10325000190726D452789207F0D5E420F5E7124BEF
:103260001B7813F0200F18BF292070470E4B1B78D6
:1032700013F0200F18BF352070470B4B1B7813F04D
:10328000400F18BF2A207047074B1B7813F0400FE0
:1032900018BF3120704739207047E2207047E02086
:1032A0007047E620704700BF142D0020294B1A7884
:1032B000510707D500F01801082927D100F0F700C1
:1032C00040F00400110707D500F01801182926D195
:1032D00000F0E70040F014005B78D90707D500F054
:1032E0001801082924D100F0F70040F001009907E7
:1032F00007D500F01803182B23D100F0E70040F0A9
:103300001100D30648BF00F0E700704700F0140139
:10331000042904BF00F0FB0040F00800D2E700F0F1
:103320001401142904BF00F0EB0040F01800D3E7AB
:1033300000F01101012904BF00F0FE0040F0080078
:10334000D5E700F01103112B04BF00F0EE0040F0B0
:103350001800D6E7142D002000207047014B18609C
:10336000704700BFBC0D0020014B1B68184700BF11
:10337000BC0D0020FFF7C6BC08B5FDF7DDFE6420DC
:1033800005F03BF8FDF7D8FE0020FDF7ABFFC307C3
:1033900005D5FFF7EFFFBDE8084004F02BB808BDE6
:1033A00008B5FFF7E9FF08BD08B5FFF7B5FC08B998
:1033B000FFF740FDFFF7BAFC084B1870FFF7C0FCA1
:1033C000074B1880FFF7ECFFFFF7B3FCFEF773FF26
:1033D000044B1868BDE80840FEF789BF621300205F
:1033E000142D00209012002008B504F0A3FBFFF775
:1033F00072FDBDE8084004F0B7BB08B504F0BAFBA5
:10340000FFF7ECFDBDE8084004F0DABB08B503F0B7
:103410002FFF04F08DFBFFF737FDFFF7E5FFFFF708
:10342000ECFFFFF747FDFAE770472DE9F04F8BB04F
:103430000F46149C9DF854E01699189D98468346B3
:103440001646199B0CB923F0100313F48062009206
:1034500000D00CB313F0200F20460DF108094FF0F7
:10346000000414BF4FF0370A4FF0570AB0FBF1FCCD
:1034700001FB1C0C5FFA8CF2BCF1090F94BF3032D7
:103480005244D2B2884209F8012BB0FBF1F204F1A8
:10349000010401D3202C11D113F0020201921ED19C
:1034A00003F001023DB132B1BEF1000F02D113F0C1
:1034B0000C0F00D0013D4FF0300C05E01046D5E771
:1034C00002A800F804C001341798A04201D9202CAA
:1034D000F6D130201AB1A54201D91F2C42D9DA0603
:1034E00020D5009A002A44D1002C42D0179AA2423B
:1034F00001D0AC423DD1621E3AD0102943D1023CEA
:10350000980642D41F2C18D80AAA2244782102F81F
:10351000201C01341F2C10D80AAA2244302102F8A2
:10352000201C01341F2C08D8BEF1000F33D00AAA8A
:1035300022442D2102F8201C01349B07324642D040
:1035400004EB020A5046AAEB0402002C3ED1019B78
:103550002BB1AAEB060A554506EB0A003DD80BB085
:10356000BDE8F08F0DF1080C0CF804000134B1E750
:1035700014461029C4D00229CCD11F2CDDD80AAAA8
:1035800022446221C3E71446F5E71F2CD5D80AAAC6
:1035900022445821BBE7590703D50AAA22442B210C
:1035A000C8E71A07C9D50AAA22442021C2E702F1B6
:1035B0000109434639462020D8474A460AEB020310
:1035C000AB42F4D3BCE7A4EB060AF7E7013C02A840
:1035D00043463946005DD847B4E70246434639467C
:1035E0002020D8470AF1010AB5E708B1FFF7BCBEB1
:1035F000704700002DE9F04F8BB01F46B44B149E6E
:10360000B1F10009904614BF83469B4600253878E7
:1036100060B945452CBF08F1FF322A46434649466A
:103620000020D84728460BB0BDE8F08F252807F1C9
:10363000010706D02A466C1C43464946D847254612
:10364000E5E7002306E02D2A15D0302A0CD143F0FF
:1036500001030F46394611F8012B2B2A0ED0F2D860
:10366000202A0ED0232A0FD0A2F1300009282AD810
:103670000022069212E043F00203EAE743F004035B
:10368000E7E743F00803E4E743F01003E1E70698B7
:103690000A2404FB0022303A06920F46394611F8FC
:1036A000012BA2F130000928F1D93A782E2A41D114
:1036B0007978A1F13000092807F1010243F4806311
:1036C00030D8002413E02A2A09D156F8042B002A06
:1036D000BCBF524243F0020306920F46E5E70022C8
:1036E0000692E2E70A2202FB0414303C024610462E
:1036F00010F8011BA1F13007092FF3D9174617F86D
:10370000011B6A2930D018D8682924D0174617F829
:10371000010B69283CD062D8622828D1022123F00D
:103720000C033DE02A2906D156F8044BBA1C24EAC2
:10373000E474E3E73A460024E0E76C2904D07A29F0
:10374000E4D143F48073E2E751786C29F9D143F472
:103750004073971CDBE75178682902D043F080035F
:10376000D5E743F0C003F4E743F40073CFE709D88B
:1037700025283FF45FAF58287FF45CAF43F0200367
:103780001021CCE7632800F0838064287FF452AFD7
:10379000692823F010034FF00A0101D06428BED13C
:1037A0005A0548BF23F00103692803F4007201D0D1
:1037B000642844D1002A7FF42AAFDA0506F1040A0E
:1037C00033D532680593069B0493002A4FEAD273DF
:1037D000039402910193B8BF524200923EE07328D5
:1037E00000F089801BD86F2801D1082197E7702845
:1037F0007FF420AF43F021030593082304931023A3
:10380000029300230394019356F8043B00932A4645
:10381000434649465846FFF708FE0546F7E6752831
:10382000B6D078287FF406AFAAE713F0400F3268CD
:1038300001D0D2B2C6E71E0648BF12B2C2E7002AC4
:103840007FF4E5AED80506F1040A10D50593069B72
:103850000493039402910192336800932A464346ED
:1038600049465846FFF7E1FD05465646CFE613F0B8
:10387000400F326808D0D2B20593069B0493002310
:10388000039402910193A8E7180648BF92B2F3E7A8
:1038900013F002042DD001232A46079356F8040B97
:1038A00043464946C0B2551CD847002C3FF4AFAE42
:1038B000069B079A93427FF6AAAE43462A4649469C
:1038C0002020D847079B6C1C013307932546EFE760
:1038D00029340008434649462020D8470AF102030C
:1038E0000793069B05EB0A020AF1010A9A45F1D3F8
:1038F000D4E7A246F2E7B246002C5AF8046B14BF94
:1039000021464FF0FF3131443246107808B19142E0
:1039100010D113F48061A2EB0602089102D0A242FA
:1039200028BF224613F00203099312D007922A46B9
:10393000951B15E00132E8E7434649462020D84769
:10394000079B591C07910699994205EB0302F3D88E
:10395000EEE71346AD1AF4E71C4643464946D847FE
:10396000AA1916F8010B28B1089B002BF5D0631E8D
:10397000002CF1D1099B1546002B3FF476AF079B35
:103980009C1A06E02A46434649462020D8476E1C2A
:103990003546069A63199342F4D366E70FB41FB510
:1039A00006AA02A952F8043B0392009204484FF081
:1039B000FF32FFF71FFE05B05DF804EB04B070475F
:1039C000EB35000800000000453807EE900AF8EEDD
:1039D000E77AB2EE087AC7EE877A08B517EE900A52
:1039E000FCF7F0FD9FED080B41EC110B06F0CCFD50
:1039F000002251EC100B064BFCF73CFEFDF7EAF8F9
:103A000000EE100A08BD00BF0000000000000040EA
:103A100000807B4008B545F61D43984205D18B7860
:103A200073B300F039FA002008BD45F61E439842F2
:103A300004D18B7823B300F045FAF4E745F61F4331
:103A4000984206D18B78DBB100F030F80028F2D133
:103A5000E7E745F62A43984209D18B7883B100F015
:103A60007DFC00220421074800F092F8DBE745F6D0
:103A70002B43984204D18B7813B100F075FCF0E72A
:103A80000120D1E7C00D002008B5FFF79DFFBDE87C
:103A9000084000F0FDB908B5FFF796FFBDE8084003
:103AA00000F016B900F00AB870477047024B18785A
:103AB00000F00100704700BF902D002038B50D4D7B
:103AC0002C78B4B90C4B1C7000F0FAFB0B4B0C4972
:103AD0001C700C4B1C700C4B1C800C4B2246013490
:103AE000082C1A8059601A8103F10C03F7D10123C5
:103AF0002B7038BDE00D0020631300206D130020F3
:103B0000000080BF6E1300206A130020302D0020BB
:103B10000B4B1B7883420FD9013B1B1A09485BB240
:103B20000C2202FB030393ED010AB5EEC00AF1EE8D
:103B300010FA01D900F01EBC9FED030A704700BFC8
:103B400063130020302D0020000000000D4B07EE15
:103B5000900A1B78F8EE676ADFED0B7A9B0166EE40
:103B6000A76A07EE903AB8EEE77AC6EE877A9FED3D
:103B7000077A67EE877AFCEEE77A17EE903A98B20A
:103B8000704700BF040E00200000704200007A441D
:103B9000F8B5224B1B78DB0704460F46154603D4C5
:103BA000BDE8F840FFF78ABF1D4B1B780BB900F04A
:103BB00061F81C4B1B780BB1FFF780FF1A4BD4ED5B
:103BC000017A1A4E01221A70194A346000231370C8
:103BD000184A1780184AFCEEE77A1570174D2B80AB
:103BE00017EE903A98B2FFF7B1FF94ED000A00F09B
:103BF000CBF803F0F3FB124B2A881880336803EBF1
:103C0000C203D3ED017AFCEEE77A17EE903A98B250
:103C1000FFF79CFF0B4B1880F8BD00BF902D0020D4
:103C2000641300206E1300206D1300202C2D002043
:103C30006C130020182D0020912D00206613002009
:103C4000681300206A13002008B5074B1B78DB07B8
:103C500004D5002204210548FFF79AFF03F0BEFBBC
:103C6000034B188008BD00BF902D0020080E0020D7
:103C70006813002010B5124C237803BBFFF74CF8F3
:103C800008B9FFF7D7F8FFF773F80E4B002218704A
:103C90000D4B0E4811460132082A198058601981CF
:103CA00003F10C03F7D123781BB900F0C3FA012309
:103CB0002370FFF703FFBDE81040FFF7C5BF10BD3D
:103CC00064130020902D0020302D0020000080BFC4
:103CD000F8B5264DB5EEC00A2B78F1EE10FA2DEDB1
:103CE000028BB0EE408A48BFB1EE408A002B3AD03A
:103CF0001F4B1B780BB9FFF7BDFF1E4B072418465F
:103D0000D3ED167AF4EE487AF1EE10FA26D10C21B2
:103D10006143002243184252174959601A810F46E5
:103D20001646072C0ED1154B01261E70144B1C781D
:103D3000013CE4B21C70B4B900F0C2FA114B2C7013
:103D40001E7010E003F10C0C9CE80700013483E8BE
:103D500007009E811F619E826346E2E7013C621C70
:103D6000A3F10C03CCD1BDEC028BF8BD6E13002087
:103D700064130020302D0020000080BF6F1300204E
:103D800063130020E00D00202DE9F041384B1B7833
:103D90000746D8072DED028BB0EE408A50D5354B43
:103DA0001B780BB9FFF766FF334DDFF8D0802B7817
:103DB000B5EEC08AF1EE10FA48BFB1EE488A5E1E39
:103DC0000C22711C2FD10133DBB2082B4DD90823F3
:103DD0002B702A4B002603F10C0494E807000136EF
:103DE000072E83E807002346F5D1254A01231370E7
:103DF000244A13702B785C1E03F0F0FA0C23634303
:103E000008EB030228F8030082ED018A178103F012
:103E1000E5FA1D4C1D4B188023788BB100F07AFA1F
:103E2000002323700CE002FB0684D4ED017AF4EE4B
:103E3000487AF1EE10FA16D12B78013B9E4203DB53
:103E4000BDEC028BBDE8F08104F10C0898E8070096
:103E500084E8070003F0C2FA0136A08184ED048AE9
:103E6000A7824446E8E7013EABE72B70BDE700BF01
:103E7000902D00206413002063130020302D0020BB
:103E80006F1300206E130020E00D00207C13002033
:103E90004FF6FF70FFF778BF08B5084B187840F071
:103EA00001001870FEF767FFFFF7FEFD00220221F8
:103EB0000348BDE80840FFF76BBE00BF902D00200F
:103EC000F40D002008B5002202210A48FFF760FE29
:103ED000FFF7EBFD4FF47A7004F08FFAFFF7EEFD79
:103EE000054B18786FF300001870C0B2BDE80840A9
:103EF000FEF741BFE40D0020902D0020624B1A78A0
:103F00002DE9F0479846614C12B92578002D70D004
:103F100003F064FA27788146F7B9002798F8003053
:103F2000002B00F0AF805A4B1D7825B9594B1D78F6
:103F3000002D08BF3D46584C584F00264FF6FD78DF
:103F40003B78B34200F38C80554A1378002B50D055
:103F5000002111701D464CE0524D534E288803F04D
:103F600042FA33888342D8D8288803F03CFAA5F86F
:103F700000904E4D3488B5F800A00AF10103041BEF
:103F80002B8003F02BFA4A4B18804A4B19882B8858
:103F90008B42A4B2A94605D3474B1D783DB30023FD
:103FA000A9F80030454B46481A680578B9F8003042
:103FB0008646DB0005BB02EBCA0CD5189CED007AE7
:103FC000D5ED007AB4EE677AF1EE10FA14D1012340
:103FD00003700220FFF7BAFD9FED3A0AFFF7D4FE07
:103FE0000220A9F800A0FFF7B1FD308096E7FFF7A7
:103FF00065FD2846BDE8F0871344D3ED017AFCEE59
:10400000E77A002017EE903A8EF8000098B2FFF79A
:104010009DFD01398442B9F8003001D999420DDC87
:1040200084423ABF001B84B2012402EBC303204642
:1040300093ED000AFFF7A8FE34806FE701339BB2CF
:10404000A9F8003002EBC303D3ED017AFCEEE77A66
:10405000201A17EE903A84B298B2FFF777FDD9E7AD
:104060002389013B9BB2434509D8208803F0BBF963
:104070002389834203D894ED010AFFF729FE013614
:104080000C345DE73D465FE76E1300206D130020A2
:104090007913002078130020302D002063130020B6
:1040A0006F130020681300206A130020661300209D
:1040B0007C130020182D0020912D00202C2D002095
:1040C0006C1300200000000010B5084C0849204681
:1040D00004F0A5FC2046022104F0B3FC03221021C9
:1040E0004FF09040BDE8104005F07FBB003000204D
:1040F000280E002008B5074804F0B1FC0122102169
:104100004FF0904005F071FB4FF0904310221A835E
:1041100008BD00BF0030002008B5114B2DED028B0B
:10412000B0EE408A83ED000AFFF7E4FFB5EEC08AE7
:10413000F1EE10FA10D938EE088A9FED0A0A0A4B00
:1041400028EE008ABCEEC88A83ED008ABDEC028BA3
:10415000BDE80840FFF7B8BFBDEC028B08BD00BF4B
:104160007013002000008043280E002010B5084C7A
:104170000849204604F053FC2046022104F061FC6B
:10418000032220214FF09040BDE8104005F02DBBE8
:1041900020300020380E002008B5074804F05FFCEE
:1041A000012220214FF0904005F01FFB4FF090437B
:1041B00020221A8308BD00BF2030002008B5114B13
:1041C0002DED028BB0EE408A83ED000AFFF7E4FF8D
:1041D000B5EEC08AF1EE10FA10D938EE088A9FEDDC
:1041E0000A0A0A4B28EE008ABCEEC88A83ED008AD0
:1041F000BDEC028BBDE80840FFF7B8BFBDEC028BF9
:1042000008BD00BF7413002000008043380E00205A
:1042100008B5FFF773FE58B10020FFF779FCFFF7F0
:104220007BFF0020FFF774FCBDE80840FFF7C6BF26
:1042300008BD000038B5184D184C032210214FF06E
:10424000904005F0D2FA2846154904F0AAFB15491A
:10425000154804F0E4FB032220214FF0904005F0C4
:10426000C4FA2046114904F09CFB1149114804F09E
:10427000D6FBAB6A10491A681048136823F0020392
:104280001360A36A1A68136823F400331360BDE84F
:10429000384004F0C4BB00BF6C2F00209C2F0020CE
:1042A0004CBE0008280E00200030002054BE00083C
:1042B000380E002020300020480E00201030002052
:1042C00010B50F4C0F4804F0CAFB204604F088FBE1
:1042D00040F2FF72002120460B4C04F070FB0B48AB
:1042E00004F0BDFB204604F07BFB204640F2FF7249
:1042F000002104F064FB0648BDE8104004F0AFBBA9
:104300006C2F0020003000209C2F00202030002047
:104310001030002008B50A4A0A490B484FF4807350
:1043200004F04FFB4FF4807308490948094A04F030
:1043300048FB02210848BDE8084004F082BB00BFEA
:104340004ABA00085CBE00086C2F00206CBE000852
:104350009C2F00204ABC000810300020014B002296
:104360001A7070477A130020014B00221A707047B0
:104370007A130020024B1B780BB9024A1370704766
:104380007A13002078130020024B1B780BB1FFF743
:1043900089BB70477F13002008B5FFF7F5FF044B7A
:1043A000044800221A700821BDE80840FFF7F0BB5E
:1043B0007F1300207C0F0020034B044800220821BB
:1043C0001A70FFF7E5BB00BF7E130020580E0020D7
:1043D00010B5FFF7D9FF084A08481378013303F0F6
:1043E00003031370282404FB030000220521BDE809
:1043F0001040FFF7CDBB00BFD80E0020DC0E002020
:10440000F8B5174B1B788BB1164C208840B902F0D9
:10441000E5FF2080144C154D227842B1531E08E070
:1044200002F0E1FF124B1B888342F0D3F8BD2B78DA
:10443000013B104E317849B10F49C85C8F5CFFF7E2
:104440002AFB337813B13846FFF71EFB237829780F
:104450000133B3FBF1F201FB12332370E6E700BF37
:104460009113002096130020921300209013002037
:10447000001000207F1300208013002070470000F0
:1044800008B5054B054801221A7008210022FFF7E4
:104490007FFBFFF7F3FF08BD7F130020C00F002054
:1044A0007047000008B5054B054801221A70082125
:1044B0000022FFF76DFBFFF7F3FF08BD7E1300201E
:1044C000980E00202DE9F04145F6264398428AB027
:1044D000044606D18B78002B3ED0FFF7D1FF002099
:1044E00053E045F62743984205D18B78002B33D013
:1044F000FFF752FFF3E745F62843984206D15D4B9C
:104500008A781B7842B3002BF2D1E6E745F62C43BC
:10451000984204D18B78FBB1FFF7C4FFDFE745F683
:104520002D43984204D18B78B3B1FFF745FFD6E70E
:1045300045F62E43984206D18B786BB14E4B1B78D3
:10454000002BF2D1E8E745F62943984204D18B7855
:1045500013B1FFF73DFFC2E7464B1E7826B9464B25
:104560001B78002B00F084808F78002F3DD0E02C4A
:104570000ED1FFF709FF414B01221A70404B00207A
:104580001870404B1870404B18700AB0BDE8F081AD
:10459000E22C0BD1FFF7F8FE384B1A7812B1384AEB
:1045A0000121117000201870364BEDE7E32C0FD17C
:1045B000334B1B78CBB1FFF7E7FE304B0020187070
:1045C000304B01221A70314B1870314B1880DCE7E8
:1045D000522C04D12F4A13880A3B13807FE7512CB9
:1045E00003D12C4A13880A33F7E74B780A782A4913
:1045F000062000FB031313F80280284B1D78284B7C
:104600001B6824351D44274B1B78EDB29BB94544EC
:10461000EDB23FB316B12846FFF736FA174B1B78B9
:104620002BB1194A20491378CD5401331370B4FAD1
:1046300084F04009A9E723221C4901A806F0FEFFE7
:104640000723B8FBF3F303EB4302C3EBC30305EB10
:104650008205A8EB03030AAA52FA83F313F8243C59
:104660001D44D5E7002EE2D02846FFF714FADEE716
:1046700001208AE77F1300207E130020941300207E
:104680009313002091130020901300209213002018
:104690009613002000100020D4B60008021000205D
:1046A000BC0F0020D80E0020801300208BB600081D
:1046B000164B1B78D90707D5154B187840007F2873
:1046C00020D808B3C0B270479A0703D5104B1878AA
:1046D0008000F4E75B0703D50D4B1878C000EEE7C8
:1046E0000C4B1B7863B10C4A094912780878934245
:1046F000F4D210FB03F0C000B0FBF2F080B2DEE7B2
:104700000820DFE77F20704701207047A2130020B8
:1047100005100020A313002006100020154B1B7865
:10472000D90705D5144B1878800800B3C0B270477C
:104730009A0703D5104B18784008F6E75B0705D5B4
:104740000D4B18787F28F0D97F2070470B4B1B78D2
:104750005BB10B4A084912780878934236BF10FBC8
:1047600003F080B2B0FBF2F0ECE70120DEE70120BD
:10477000704700BFA213002009100020A4130020DE
:104780000A100020ED2808B505D1FFF791FF40423F
:10479000294BD87008BDEE2802D1FFF789FFF7E753
:1047A000EF2805D1FFF784FF4042234B9870F1E7D3
:1047B000F02802D1FFF77CFFF7E7F92804D1FFF7D3
:1047C000ADFF1D4B1871E5E7FA2803D1FFF7A6FFEF
:1047D0004042F6E7FB2805D1FFF7A0FF4042164B09
:1047E0005871D7E7FC2802D1FFF798FFF7E700F1EF
:1047F0000F03DBB2072B08D80F4A0123F13803FA65
:1048000000F0537818435070C4E7FD2805D10B4AD7
:10481000137843F001031370BCE7FE2804D1074A64
:10482000137843F00203F6E7FF28B3D1034A137865
:1048300043F00403EFE700BF9C130020A213002005
:10484000364BED2893F902200AD193F90310002981
:104850000CDA0021D97052B9314A0021117006E0FA
:10486000EE280DD193F903100029F2DC72B11A7908
:104870005B7913435BB2002B4FD12A4A1370704708
:10488000EF2806D1002AF1DA00229A7093F903206A
:10489000E1E7F02802D1002AF6DCE7E7F92893F9EE
:1048A000041004D10029E1DD00211971DEE7FA28A6
:1048B00002D10029DADAF7E7FB2893F9051004D1D1
:1048C0000029D3DA00215971D0E7FC2802D1002950
:1048D000F8DCCBE700F10F01C9B2072907D8F1389E
:1048E00001218140587820EA01005870BEE7FD2878
:1048F00005D10D48017821F001010170B6E7FE28CD
:1049000004D10948017821F00201F6E7FF28ADD172
:104910000548017821F00401EFE770479C1300205F
:10492000A3130020A4130020A21300202A4B1B78FD
:1049300013F0080F10B5294C39D02948FFF72EF88D
:1049400061782848FFF72AF82748FFF727F894F9F5
:1049500002102648FFF722F82548FFF71FF894F9C0
:1049600003102248FFF71AF82148FFF717F894F9C7
:1049700004101E48FFF712F81D48FFF70FF894F9CE
:1049800005101A48FFF70AF81A48FFF707F81A4BFC
:104990001A481978FFF702F81948FEF7FFFF194B7C
:1049A00016481978FEF7FAFF1748FEF7F7FF02F0EE
:1049B00015FDE378A278134318BF144B227918BF72
:1049C00018806379134318BF114BBDE8104018BF1E
:1049D0001880024802F0F4BA621300209C130020F1
:1049E0007CBE0008CEB900089FBE0008A1BE00082A
:1049F000A2C70008A4BE0008A3130020A7BE000899
:104A0000AABE0008A2130020ACBE00089813002024
:104A10009A1300202DE9F047564C94F9028094F93E
:104A2000037094F9046094F9055094F800A094F888
:104A300001900023A370E3702371637158EA0703A8
:104A40000AD04D4B188802F0CEFC4C490B783BB392
:104A50004B4A127890422DDC56EA05030BD0494BA5
:104A6000188802F0C0FC48490B78002B4ED0474A0A
:104A70001278904254DCE278A378134322791343EE
:104A80006279134301D0FFF751FF84F800A084F846
:104A9000019084F80280E77026716571BDE8F087A7
:104AA0003B4A127802EB8202B0EB420FD4DD0133B5
:104AB0000B7001E0FF2BFAD1B8F1000F08D0FFF71F
:104AC000F7FDB8F1000FCCBF0123FF235843A070BE
:104AD0003FB1FFF7EDFD002FCCBF0123FF2358436B
:104AE000E07094F90220002AB6D094F9031000294E
:104AF000B2D0B5235A43121203FB01F308BF0122BF
:104B00001B1208BF0123A270E370A5E7214A1278A7
:104B100002EB8202B0EB420FADDD01330B7001E01E
:104B2000FF2BFAD13EB1FFF7F9FD002ECCBF0123D8
:104B3000FF23584320713DB1FFF7F0FD002DCCBF9E
:104B40000123FF235843607194F90420002A92D076
:104B500094F9051000298ED0B5235A43121203FB95
:104B600001F308BF01221B1208BF012322716371E8
:104B700081E700BF9C13002098130020A31300209E
:104B8000041000209A130020A41300200810002015
:104B9000031000200710002008B506220021054858
:104BA00006F05AFD044A00231370044A1370044AA5
:104BB000137008BD9C130020A3130020A413002031
:104BC000A213002007B50023014601220DF10700C2
:104BD0008DF8073000F00AFA9DF8070003B05DF881
:104BE00004FB07B50023014602220DF10600ADF8D3
:104BF000063000F0FBF9BDF8060003B05DF804FBD9
:104C000007B50422002301460DEB0200019300F0DA
:104C1000EDF9019803B05DF804FB07B501228DF8AA
:104C2000071001460DF1070000F014FA03B05DF81B
:104C300004FB07B50222ADF8061001460DF106008F
:104C400000F008FA03B05DF804FB07B504220191F7
:104C500001460DEB020000F0FDF903B05DF804FB26
:104C600038B50C460546FFF7ADFFA04205D02146FA
:104C70002846BDE83840FFF7D0BF38BD38B50C46F0
:104C80000546FFF7AEFFA04205D021462846BDE805
:104C90003840FFF7CEBF38BD38B50C460546FFF7A4
:104CA000AFFFA04205D021462846BDE83840FFF7B7
:104CB000CCBF38BD10B500F085FA094C094800F0AA
:104CC00039FA094800F036FA204600F033FA07486E
:104CD00000F030FA00F084FA054B1C6010BD00BFF4
:104CE00000F0030800E0030800E8030800F80308E8
:104CF000A823002038B54FF6FE73034003F100658A
:104D000005F578354FF6FF712A888A4210D10A4995
:104D10005C5AE443A4B294420CD000F053FA21460A
:104D2000284600F029FA044600F05AFA204638BD19
:104D30000024FBE70524F9E7A6130020F8B5FFF7E8
:104D4000B9FF00F03FFA0B4E0B4C0C4F052536F81F
:104D5000021B39B1C94389B2204600F00DFA05287B
:104D600018BF05460234BC42F1D100F039FA28469A
:104D7000F8BD00BFA613002000E0030800F0030800
:104D8000F8B51C4B1C4FC65A3A68012E9ABF1B4DF2
:104D900002230423C3F1006394BF45EA46358038FB
:104DA00003F5802392BFADB280B24FF460459A42C2
:104DB00003D9BDE8F840FFF7C1BF45EA500400F051
:104DC00001FA38682146831C3B6000F0D5F9B5F53F
:104DD000604F044609D13868F143831C89B23B60B7
:104DE00000F0CAF9052818BF044600F0F9F920467A
:104DF000F8BD00BFA6130020A82300200080FFFFFD
:104E000038B50D4C0D4B22689A42054603D9BDE8D2
:104E10003840FFF793BF00F0D5F9094B2068E95CF3
:104E200041EA0521831C89B2236000F0A5F90446FC
:104E300000F0D6F9204638BDA8230020FFFF030864
:104E4000A61300201F4B204A2048F0B51D4632F81B
:104E5000021BC943824223F8021BF8D11C4C4FF6B7
:104E6000FF7743F6FE761388BB4206D0180409D4B8
:104E7000190A6B540232A242F5D9164B4FF48050F6
:104E80001A60F0BD03F4C041B1F5C04F0FD1901CC2
:104E9000A04215D85188C94389B279B106EA4303C3
:104EA00080330246B3F5805FE4D2E952E2E7590469
:104EB000E0D4C3F3403106EA4303F3E70246D9E7FF
:104EC0000246DAE7A613002000E0030800F003081A
:104ED000FFFF0308A823002008B5FFF7EBFEBDE89D
:104EE0000840FFF7AFBF0000B0F5805F10B5044683
:104EF00014D20C4BC25C8A4212D0C154FFF7FAFEA6
:104F000068B97F2C04D82046BDE81040FFF778BF71
:104F100024F00100BDE81040FFF732BF072010BDAC
:104F20000020FCE7A6130020B0F5805FF8B504462A
:104F30000E4634D210F001050DD0C9B2FFF7D4FFF0
:104F40000546601C310A80B2FFF7CEFF052818BF66
:104F500005462846F8BD134BC75AB942F9D0E1526D
:104F6000FFF7C8FE05460028F3D17F2C12D8FBB20C
:104F7000F2B293420CD02046FFF742FF0546360AB4
:104F8000B6EB172FE5D0601C80B2FFF739FFDDE7E5
:104F90000525F4E72046BDE8F840FFF7F1BE0725F8
:104FA000D7E700BFA6130020B0F5805F3ABF024BE1
:104FB000C05CFF20704700BFA613002040F6FE73C0
:104FC00098420AD8064BC20741BF5A1C825CC05C9B
:104FD00040EA022058BFC05A70474FF6FF70704732
:104FE000A6130020FFF72EBFFFF776BF2DE9F84389
:104FF000044615464AB1CB0707D588B24A1CFFF7CD
:10500000D3FF04F8010B013D11466F0804F00109BC
:10501000A61C01EB470841450BD16FF0010202FBD2
:10502000075222B188B2FFF7BFFF04F81700BDE8AE
:10503000F88388B2FFF7C2FFB9F1000F04D126F858
:10504000020C02310236E6E706F8020C000A06F806
:10505000010CF6E72DE9F04705460C4616464AB125
:10506000CB0707D54F1CA0B215F8011BFFF73CFF7B
:10507000013E3C464FEA560805F0010AAF1C04EB1E
:1050800048094C450BD16FF0010202FB0862C2B126
:1050900015F81810A0B2BDE8F047FFF725BFBAF128
:1050A000000F07D137F8021CA0B2FFF73DFF023412
:1050B0000237E6E717F8013C17F8021C41EA032122
:1050C000F2E7BDE8F08700000B4BDA68D2070CD49A
:1050D000DA6851070BD4DA68D2060AD4DB6813F019
:1050E000010F0CBF052004207047012070470220EB
:1050F00070470320704700BF0020024073B504468C
:10510000FFF7E2FF0025FF2601280FD114B9062082
:1051100002B070BD01950196019B1BB9FFF7D4FF4A
:10512000013CF1E7019B013B0193F5E7002C08BF2F
:105130000620EDE738B5054640F6FF70FFF7DEFFC5
:10514000052815D10B4C236943F0020323616561E7
:10515000236943F04003236140F6FF70FFF7CEFF61
:1051600006281EBF236923F0020323613423E36072
:1051700038BD00BF00200240104B00F178429A4237
:1051800070B505460E4616D81F20FFF7B7FF052855
:1051900010D10B4C236943F0010323611F202E80A3
:1051A000FFF7ACFF06281EBF236923F0010323612C
:1051B0003423E36070BD0720FCE700BFFEFF07005B
:1051C00000200240044B1A69120641BF034A5A608C
:1051D00002F188325A60704700200240230167457F
:1051E000024A136943F080031361704700200240B4
:1051F00030B585B0C0F307220190C0F30740BAB9BB
:1052000009B1314B185C8DF80C008DF80D008DF84C
:105210000E009DF80C30002063F307009DF80D3060
:1052200063F30F209DF80E3063F3174005B030BDD7
:105230009DF8043071B32449085C03EB4304FF215B
:105240006400B4FBF1F46FF05401614301EB4301DE
:1052500001EB4101C9B212FB01F3C1F1FF01C2F13F
:10526000FF054A431B121212C3F1FF03C2F1FF02F2
:10527000454343434243C5F30725C3F30723C2F322
:105280000722C0B2062C19D8DFE804F00608110F77
:105290001418060080B2D0E7034610468DF80C00C3
:1052A0008DF80D308DF80E50B3E7024618462B46A8
:1052B0001546F3E7134602462846F9E70246284614
:1052C0001D461346EAE700BF10C3000884B0012161
:1052D00004B0FFF78DBF704784B004B0FFF7F6BF8E
:1052E00013B58DF802208DF800008DF8011000989C
:1052F0001C46FFF7F1FFC0F30743C0F307226270BB
:105300002070A37002B010BD064A137813F0FE0F90
:1053100004D1012161F3470313707047492BFCD975
:105320002421F7E7942D00200820FFF769BC08B579
:10533000FFF7EAFFBDE8084001460820FFF7ACBCD4
:10534000034B0448186000221A71FFF7F0BF00BF3A
:10535000942D00200300FFFF38B51C4C2378D9079B
:1053600032D51B48FEF71AFB2378DA072CD5194DE6
:105370001948297801F00101FEF710FB2378DB07BB
:1053800022D5297815484908FEF708FB2378D80765
:105390001AD569781248FEF701FB2378D90713D58F
:1053A000A9781048FEF7FAFA2378DA070CD5E978DD
:1053B0000D48FEF7F3FA2378DB0705D529790B486A
:1053C000BDE83840FEF7EABA38BD00BF62130020DE
:1053D000C7BE0008942D0020E0BE0008FDBE0008F6
:1053E00018BF000832BF00084CBF000866BF0008A5
:1053F000034B1B7813F0010018BF5808704700BF1B
:10540000942D0020054B1A79022A9CBF01321A7193
:1054100010B11868FFF78BBF704700BF942D0020B4
:105420000120FFF7EFBF0000044B1A790AB1013ADF
:105430001A7110B11868FFF77ABF7047942D0020D9
:105440000120FFF7F1BF00F07FBE0000104B1148B4
:105450001B7870B5104D13F00103697806D02B78D6
:1054600003EB43031844FFF7EEFF70BDAA78EE7814
:1054700002EB42040444964204F10304EFD90132E2
:1054800004F8023C04F8033C04F8013CD2B2F2E711
:10549000942D00209C2D00200E1000200E4B1B7818
:1054A000DB0770B416D50D4C0D4EA378E57803EBF1
:1054B00043043444AB4204F1030402D370BCFFF74D
:1054C000C5BF013304F8020C04F8031C04F8012CD6
:1054D000DBB2EFE770BC7047942D00200E10002067
:1054E0009C2D0020094B1B78DB0707B50AD501ABC3
:1054F000FFF7F6FE9DF806209DF804109DF80500C4
:10550000FFF7CCFF03B05DF804FB00BF942D002033
:10551000064B0279064910B504468A5C587899789A
:10552000FFF7E0FF23790133237110BD942D002094
:10553000DFBF0008054B10B50446DA78997800798A
:10554000FFF7D0FF23790133237110BD942D002084
:1055500037B5164C0546207838B9FF2201AB114605
:10556000FFF7BEFE9DF8053023702979012915D07B
:1055700089B1022916D0002210461146FFF78EFF8E
:105580002B7903220133B3FBF2F202EB42029B1AA6
:105590002B7103B030BD20780A46EFE70022217856
:1055A0001046EBE7002022780146E7E7B42300200D
:1055B0002DE9F04F474D95F800C089B01CF0010F60
:1055C00006468946174605932DD04FEA5C03424CA8
:1055D000DFF820E1E45C8EF800400CF0FE0CBCF13A
:1055E000020FDFF814A121D107ABFFF779FE9DF878
:1055F0001E209DF81C109DF81D00FFF74FFF059B16
:105600006E7085F80290EF70002B5AD02868FFF773
:105610008EFE9AF80030DA0705D5EB78AA7869781B
:105620002E48FEF7BBF909B0BDE8F08F022C01D17E
:10563000EF78E4E7062C01D16E78E0E7092CFBD087
:10564000192CDCD1193BDBB203F001020392DA43DF
:1056500002F0010204925B08214AD35C02934FF0EE
:10566000000B204B1B795FFA8BF8434502D8FFF7FC
:10567000EDFEC4E7029A02FB08F4B4FBF3F4039BCB
:10568000E4B2E3B934449AF80030D907E4B207D55C
:10569000029B00932246049B13484146FEF77EF985
:1056A000104B9B789844114B08EB480843443A460A
:1056B00049462046FFF714FE0BF1010BD1E7341BDE
:1056C000E1E79AF80030DB07ADD53B464A46314664
:1056D0000748A6E7942D002082BF000815C20008E5
:1056E000B3BE00080E100020EEC100089C2D002063
:1056F0003AC20008B623002062130020054910B406
:105700004C78CA78897808340346E0B25DF8044BD7
:10571000FFF74EBF942D00200120FFF7EFBF0000E0
:10572000054910B44C78CA788978083C0346E0B241
:105730005DF8044BFFF73CBF942D00200120FFF7DC
:10574000EFBF000010B4074CA178E2781131FF29B7
:1057500028BFFF210346C9B260785DF8044BFFF70C
:1057600027BF00BF942D00200120FFF7EBBF0000F2
:1057700010B4064CA178E278113921EAE1710346B0
:10578000C9B260785DF8044BFFF712BF942D00207A
:105790000120FFF7EDBF000010B4074CE278A178BC
:1057A0001132FF2A28BFFF220346D2B260785DF88B
:1057B000044BFFF7FDBE00BF942D00200120FFF732
:1057C000EBBF000010B4064CE278A178113A22EA4F
:1057D000E2720346D2B260785DF8044BFFF7E8BE90
:1057E000942D00200120FFF7EDBF0023FFF7E0BE5E
:1057F0002DE9F041144EDFF85880144F044600257F
:105800003179E8B281420DD8FFF720FEA37813F07A
:10581000010F237914BF013303F1FF335BB223710E
:10582000BDE8F081B378FF22B2FBF1F221790344A5
:1058300003EB430302FB00104344FA78B978C0B28B
:10584000FFF74EFD0135DBE70E100020942D002000
:105850009C2D00202DE9F74F8378314E314D13F008
:10586000010F0CBF01234FF0FF3300934FF00009ED
:1058700033795FFA89F843450CD8FFF7E7FD009BC1
:10588000012B2B7845D103B93379013B2B7003B041
:10589000BDE8F08FB378244ADFF890B0434403EBBF
:1058A000430303EB020A00248AF801409C549DF84C
:1058B00000308AF80240019327462A782244D2B267
:1058C00053B2092B1FDD092293FBF2F202EBC20255
:1058D0009B1A5BB298450DD19BF803309BF80210E0
:1058E0009BF80100C7F104025A43C2F387025346F2
:1058F000FFF7F6FC019B01371C44042FE4B2DCD116
:1059000009F10109B4E7002BE4DA054B1B791344D4
:10591000DFE731790133B3FBF1F201FB1233B5E775
:105920000E100020B52300209C2D0020942D002077
:105930002DE9F8432B4C2C4DA378E07803EB430280
:105940002A440021984202F1030220D8274EDFF8B2
:10595000A090DFF8A48000272179FAB291421FD8E5
:10596000FFF774FD224D23482A78017833780A44E2
:1059700052B20B445BB2002A33702A7003DD2279E5
:10598000013A934201DB49420170BDE8F8830133DB
:1059900002F8021C02F8031C02F8011CDBB2D1E77A
:1059A000B2FBF1F301FB1323A1780B4496F900102D
:1059B000DBB28A4203EB43030EDB99F900108A4203
:1059C0000ADC2B4498F8032098F8021098F801009C
:1059D000FFF786FC0137BFE7E91800224A70EA5456
:1059E0008A70F7E70E1000209C2D0020B3230020C2
:1059F0000B1000200C100020942D0020037913FBC5
:105A000003F25A43C3F120032DE9F04703FB03F1EE
:105A10005525554303FB0123B5FBF3F5EDB2292DC5
:105A200085BFC5F1550404EB440405EB450404EBC4
:105A3000D474DFF87480DFF874A094BF6FEA540464
:105A40006FEA64040646E4B20027C14698F80420D1
:105A5000FBB29A420BD8FFF7F9FC3379104AD3B95D
:105A600001211170127813443371BDE8F0879A0751
:105A700099F802200B49134458BFC5F1550003EBB8
:105A8000430354BFC0B22846534422468978FFF7E7
:105A900027FC0137DAE7202BE4D1FF21E1E700BF43
:105AA0000D100020942D00200E1000209C2D0020B1
:105AB0002DE9F041154FDFF85C80154D06460024B6
:105AC0003A79A24208DCFFF7C1FC3379013303F0D5
:105AD00001033371BDE8F081BB7896F804C06878A3
